:10000000401E00209D0900004752000089090000A1
:10001000890900008909000089090000000000002A
:10002000000000000000000000000000090B0000BC
:100030008909000000000000A50A000089090000ED
:10004000910C0000910C0000910C0000910C00003C
:10005000910C0000910C0000910C0000910C00002C
:10006000910C0000910C0000910C0000910C00001C
:10007000910C0000910C0000910C0000910C00000C
:10008000910C0000910C0000910C0000910C0000FC
:10009000910C0000910C0000910C0000910C0000EC
:1000A000910C0000910C0000910C0000910C0000DC
:1000B000910C0000910C0000910C0000910C0000CC
:1000C000910C0000910C0000910C0000910C0000BC
:1000D000910C0000910C0000910C0000910C0000AC
:1000E000910C0000910C0000910C0000910C00009C
:1000F000910C0000910C0000910C0000910C00008C
:1001000037B5002311488DF8073004F0ACFF00F03C
:1001100037F8014690B90E4C0E4D0DF1070000F076
:100120003BF8014678B99DF90710284604F09BFF7B
:1001300000214FF4004005F0A4FDEEE7064804F06E
:1001400092FF03B030BD2046F0E700BF34630000EB
:1001500095630000816300005563000008B5064800
:1001600005F073FC28B9054804F07DFF6FF012001C
:1001700008BD0020FCE700BFF05E0000B463000093
:1001800010B5FFF7EBFF044610B9024804F06BFF0F
:10019000204610BDC86300001FB5D0B104230293F0
:1001A000032301908DF80C300B489DF80C308268C9
:1001B00043F002038DF80C3094684D23012201A90D
:1001C000A047044610B1054804F04DFF204604B096
:1001D00010BD6FF01504F9E7F05E0000ED6300005C
:1001E000014B1B68184700BFC0040020014B18607A
:1001F000704700BFC004002030B585B004460D46EE
:1002000010220021684605F0A1FD02238DF802307E
:100210002A46044B01932146684604F0E5FB05B0ED
:1002200030BD00BFE101000080B505460E4617460F
:10023000984603F09FFF034605F0F4FDDFF81890A1
:10024000044649F80030424630463946A84754F83B
:10025000090000F011FC00BF080000002DE9F04784
:10026000058B04462807904611D4022905F007059E
:1002700040F0CC80204604F003FF78B10138218B98
:10028000042811D8DFE800F0C2106D85950001291F
:100290000CBF45F0100545F02005258388F3118833
:1002A000BFF36F8FBDE8F08701F0070AAA4500F0A1
:1002B000A5800027B9463E46A368002B00F0BC800D
:1002C00041F00801218388F31188BFF36F8FA16883
:1002D000002900F0BA800D68002900F0B680D1F83E
:1002E0000480334652462046C047002D76D02B6806
:1002F00029461D46F0E701F007035A1F012A1BD8C3
:10030000002221F00701062B276889B2C4E90022E8
:1003100009D13B4603E0628B013262831B68002BEC
:10032000F9D141F002012183204604F0A9FE002802
:100330007AD041F0200176E0042B0AD121F00701A8
:1003400089B22183204604F09BFE10B141F02001C8
:100350002183218B01F0070AAA454FD00027B94617
:10036000AAE7236921F0070141F00601062DD3F821
:10037000009021832DD1B9F1000F3FD041F0080149
:10038000218388F31188BFF36F8F3A492046C8470D
:1003900029E021F00701236941F0040189B2042D0D
:1003A000D3F804902183E6D000273E464FF0040A9C
:1003B00082E721F00701236941F0050189B2052D8B
:1003C000D3F808902183D6D000273E464FF0050A87
:1003D00072E700273E464FF0060A6DE72B4687E797
:1003E000B9F1000FD1D1EFF31188202383F31288E4
:1003F000BFF36F8F238B23F008032383258BEA063B
:100400002ED525F01003238305F007056669218B9F
:10041000002EBFF670AF00232768C4E9003321F037
:10042000070141F001012183218B01F0070AAA4550
:100430004FF000097FF440AF002F9CD041F008013D
:10044000218388F31188BFF36F8F002FC8D03D68D8
:10045000394633465246204604F03EFE2F46F4E726
:10046000AB067FF51BAF25F02003238305F00705BE
:1004700000E700BF05510000014B036000207047FA
:100480001861000008B5044804F0EDFDBDE808401F
:10049000024804F0E8BD00BF086400003D640000AD
:1004A000014804F0F9B800BF1861000038B50446EF
:1004B00018B90F4B0F485B6898476168B1F5683F02
:1004C00010D0B1F5680F0DD00B4DA9420AD011F430
:1004D0006861206807D00146084805F011FB002339
:1004E0002360656038BD142205F030FCF9E700BFD9
:1004F000AC0500206B6400002C5F5CA9280D002077
:1005000008B520B34368B3F5683F10D101220368F2
:10051000BFF35B8F53E8001F002903D143E800209D
:100520000028F7D1BFF35B8F0DD1002008BD094A29
:1005300093420AD000684FF0FF324FF0FF3303F0D0
:100540003FFA0028F1D00448F0E70448EEE76FF4E2
:10055000E040EBE72C5F5CA9E98FFFFFEA8FFFFF2C
:1005600008B5D8B14368B3F5683F10D100220368DD
:10057000BFF35B8F53E8001F012903D143E800203C
:100580000028F7D1BFF35B8F0BD1002008BD074ACD
:10059000934208D0006803F08BFAF6E76FF4E0406E
:1005A000F4E70348F2E70348F0E700BF2C5F5CA9DB
:1005B000E98FFFFFEA8FFFFF10B5044618B91D4B06
:1005C0001D485B6898476368B3F5683F2FD0B3F563
:1005D000680F2CD0194A934219D1236803BB1848DD
:1005E0004FF0FF324FF0FF33214603F0BBF908B95B
:1005F00023681BB90F4B13485B6898472068142287
:10060000002105F0A3FB4FF46863636008E0B3F5D5
:10061000683F0DD83A2B03D040F6BA629342DED140
:10062000206805F0B7FA636843F03A03636010BDD1
:10063000054AF3E7AC0500206B6400002C5F5CA961
:10064000280D0020916400003A00003A08B50649E0
:1006500006484023142205F045FABDE80840044945
:10066000044804F08BB800BF28080020280D0020A3
:10067000206100003461000030BFFFF7FDBF00BF04
:100680002DE9F0410B4EDFF8308006EB0807CC1B5C
:10069000054632460949204605F04AFBA019424664
:1006A0000021083C05F052FB2C6707F10800BDE86B
:1006B000F08100BF000000000400000004610000A1
:1006C000074A936893F90E10002907DB5269934299
:1006D0001FBF044A536843F080535360704700BF04
:1006E0005C0E002000ED00E070B5264B15469A6ABE
:1006F00012F0100F9A6A14BF1124102412F0080F80
:100700009A6A18BF1224920706460AD5586B9A6A4D
:10071000140634D519B19A6A22F080029A62132421
:1007200001E06FF01500174B9A6A12F0010F9A6AF8
:1007300018BF142412F0200F9A6A18BF1524D2068D
:1007400002D49B6A9B070AD50E4B5B68190506D538
:10075000314600F057FA10B180F309880224094BA2
:100760009A6A920642BF5A6A22F400525A629A6A00
:1007700042F0FF029A6200232B70204670BD6FF09A
:100780001500CCE700ED00E0134B9A6A12F0007FF1
:100790009A6A14BF1E201D2012F0807F9A6A18BF2B
:1007A0001F2012F4002F9A6A18BF212012F4802F04
:1007B0009A6A18BF222012F4003F9A6A18BF2320B9
:1007C00012F4803F9A6A6FEA02426FEA12429A621A
:1007D00018BF2420704700BF00ED00E010B5194B92
:1007E0000246986A9C6A10F4805F14BF1720162096
:1007F00014F4006F9C6A18BF1820A40509D5986BE3
:10080000986A000404D51AB19A6A22F400429A62E6
:1008100019200C4B9A6A12F4806F9A6A18BF1A203A
:10082000D2050CD49B6A13F4005F18BF1C20054A44
:10083000936A43F47F43936200230B7010BD1B2027
:10084000F5E700BF00ED00E0F0B5484B5B688BB00A
:100850000446C3F30803002585F31188BFF36F8FA7
:1008600002F07F40B0F17F4F11D102F00C00082858
:100870000DD010074CBF0C4601250022033B8DF81C
:100880000720032B05D8DFE803F0246367602C46BC
:10089000F3E700239DF80720CAB902AE04F1200750
:1008A00020686168324603C20834BC421646F7D15C
:1008B000099A002D54D0C2F3080121B96FEA5222DF
:1008C0006FEA4222099202A9184604F0B2FC0BB06A
:1008D000F0BD264BDA6A9107DBD4DA6A002AD8DB4E
:1008E000DA6A5200D5D55A69A16942F480725A6118
:1008F000BFF34F8FBFF36F8F5A6931F8021C22F498
:1009000080725A61BFF34F8FBFF36F8F4DF6027243
:1009100091420AD09A6AD2B24AB10DF1070201217E
:100920002046FFF7E1FE0346B4E72368B2E79A6A80
:1009300012F47F4F05D00DF107010120FFF74EFFA4
:10094000F1E79B6AB3F5803FA3D3FFF71DFFEAE70A
:100950000DF107020021E3E70DF107010020EDE7AB
:1009600022F4FF7222F00102ACE700BF00ED00E0CC
:10097000044B5A6942F010025A615A6922F0080287
:100980005A61704700ED00E0EFF30880EFF3098152
:1009900001B57246FFF758FF01BD00BF002080F38C
:1009A0001488BFF36F8F0F4880F3088801F0A2FB13
:1009B00000200D490860BFF34F8F00F02BF8202076
:1009C00080F3118809484FF40461401880F30988C6
:1009D000EFF314800221084380F31488BFF36F8F74
:1009E00000F0D8F8401E002094ED00E080100020B8
:1009F0000749D1F890200023C2F3072218469342FA
:100A000000DB7047C1F89830C1F8A0000133F6E769
:100A100000ED00E008B572B6002383F31388FFF7FA
:100A2000E7FF144B4FF0FF32C3F88020C3F8842057
:100A3000C3F88820C3F88C20C3F89020C3F8942012
:100A4000C3F89820C3F89C20C3F88021C3F8842100
:100A5000C3F88821C3F88C21C3F89021C3F89421EE
:100A6000C3F89821C3F89C2162B6BFF34F8FBFF340
:100A70006F8F08BD00E100E0084B9B6883420BD1FB
:100A8000EFF3058343B1064B5A6842F080525A6037
:100A90005A6A22F400425A6203F072BB5C0E0020D4
:100AA00000ED00E015498A684FF030001044EFF384
:100AB000098C80E8F01F202080F31288BFF36F8F2D
:100AC0000F4F4FF000664A698A603E604FF0700435
:100AD000141920680B4C2060506F0023536780F37B
:100AE000118804B5104600F0F1F8BDE8044002F1A9
:100AF000300090E8F01F8CF3098870475C0E0020EE
:100B000004ED00E0440D00201EF0040F0CBFEFF3D5
:100B10000880EFF30980816911F8021C0229FFD0D7
:100B200001B5724604F08BFB01BD00BF40B2002846
:100B300007DB044A4109012300F01F00834042F80B
:100B40002130704700E100E0054B420900F01F0032
:100B500053F82220012303FA00F01040704700BF31
:100B600000E100E040B20028A8BF00F1604001F1C0
:100B70000101B8BF064B4FEA4111ACBF00F561401F
:100B800000F00F00C9B2B4BF195480F800137047C9
:100B900014ED00E00B4A08B50B4B22F07F029A607F
:100BA000BFF34F8FBFF36F8FD3F8882022F470020A
:100BB000C3F8882002F012FE03F0F0FB00F05CF8AE
:100BC00002F050FE0000000000ED00E042F8203C82
:100BD000009B42F81C3C0A49019B42F8183C029BCE
:100BE00042F8143C21F001014FF0807342F8043CBC
:100BF00042F8081C0023203A02654367704700BF93
:100C000029020000094A0346906870B113F1160FDB
:100C1000006E05D0A0F140029A4205D8834203D26B
:100C2000814228BF00207047002070475C0E0020E2
:100C300008B51546094A0A4B9060026F1A600E46C5
:100C400000F044F82C4686F309880020054B9847AD
:100C50002046002100220023034C20475C0E002088
:100C6000440D00205D52000029020000014B1022BB
:100C70001A61704700ED00E0044800232021C218EB
:100C80000133302B82F80013F9D1704700E100E006
:100C900008B5EFF30583064A103B02EBC30152F897
:100CA000330049688847BDE80840FFF709BD00BF29
:100CB000185F0000024B034A0348012100F076B898
:100CC000000004200000002044610000026E054B7B
:100CD000403A1A60044A4021C3E901121846012132
:100CE00000F06EB8480D002000000B15084AC2F84D
:100CF00098000B6823F01F03034343F01003C2F86E
:100D00009C308B6843F00103C2F8A030704700BFED
:100D100000ED00E02DE9F043DFF8608085B00E467D
:100D20001F4604464FF00009B14523DA6068D8B188
:100D30003FB1411E08421BD11F2819D9236819420F
:100D400016D12368019304F0ACFAA368034303931C
:100D5000D8F89050C5F30725D0B2013DA84207D876
:100D600001A9FFF7C3FF421C09F101090C34DBE7BD
:100D70006FF01502104605B0BDE8F08300ED00E00D
:100D8000044B0522C3F89420BFF34F8FBFF36F8F3E
:100D9000704700BF00ED00E0BFF35F8F024B002201
:100DA000C3F89420704700BF00ED00E010B5034C7D
:100DB00001232278FFF7AEFF207010BD6C100020D9
:100DC00008B50B4A00231278FFF7A4FF10F1160FA5
:100DD00007D0084A0021D2F89030C3F30723984285
:100DE00000DB08BDC2F89800C2F8A0100130F2E79D
:100DF0006C10002000ED00E02DE9F043534B544C03
:100E0000D3F890302568C3F307239D4285B000F2E4
:100E10009A80FFF7C1FF00200C2685421AD14D4C65
:100E20004D4F25706846FFF727FBDFF82081DFF87C
:100E30002C9106460025AE4213D123784349002069
:100E4000D1F89020C2F30722934276DBFFF798FF98
:100E5000002042E0616806FB0011FFF747FF013008
:100E6000DBE7009800EB05114FEA051CCB683B401F
:100E7000B3F5000F48D00AD8B3F5001F30D0B3F552
:100E8000800F36D0B3F5801F10D00135D3E7B3F112
:100E9000807F42D0B3F1007FF7D150F80C308868E2
:100EA0004A6804F0FEF940F4802009E050F80C3064
:100EB00088684A6804F0F5F940F0885040F4302022
:100EC000CDE901230390D8F890302078C3F30723AD
:100ED000013B98422AD96FF0150005B0BDE8F083B8
:100EE00050F80C3088684A6804F0DBF940EA0900E1
:100EF000E6E750F80C3088684A6804F0D2F940F010
:100F0000E06040F40030DBE750F80C3088684A6855
:100F100004F0C7F940F08270D2E750F80C308868CE
:100F20004A6804F0BEF940F08870C9E701A9FFF7EC
:100F3000DDFE237801332370A7E7C1F89830C1F8AC
:100F4000A00001337CE74FF0FF30C6E700ED00E082
:100F5000506100006C1000200000F0FF000008113C
:100F600008B5024B1B689847002008BD540D0020AF
:100F7000034B044A1860937843F002039370704760
:100F8000540D0020E404002008B50649064821F06D
:100F90000701C1F1005202F5802204F00AF8002096
:100FA00008BD00BF871E0020580D00200E4A0123F7
:100FB000C2F840354FF080424FF08051C2F878358A
:100FC000D1F83001082808D1D1F83411052904D806
:100FD0000648415C09B1C2F838364FF0804301221F
:100FE000C3F880250020704700E00140CD64000078
:100FF00020B1034B800143F001031847704700BF45
:1010000010610000084B70B5C31A0D4607499B10CC
:10101000044659430648402204F061F92B46014634
:101020002046BDE870401847780D0020B76DDBB64C
:10103000A05E000073B50C4C0C4A4023041B0093C7
:101040000D460B460A49A41061430646094804F0C0
:1010500072F9011E05DA30462B4602B0BDE8704039
:10106000184702B070BD00BF780D0020A1530000EA
:10107000B76DDBB6A05E000010B5EFF3118420233E
:1010800083F31288BFF36F8F074A136823F00201BE
:10109000DB07116002D4012004F045FB84F31188C2
:1010A000BFF36F8F10BD00BFC80D0020002270B5C8
:1010B000012104461046FFF755FD0F4801F0A4F941
:1010C0000E4B984215D101F0AFF926690C49304614
:1010D00004F025F800280BDB012535642469084954
:1010E00004F11C0004F01BF8002801DBE56400207B
:1010F00070BD6FF00400FBE7FD1100000000AD0BB8
:10110000706100001FB500220123CDE90223094AC6
:10111000CDF800D06B46CDF804D004F03AF90028A1
:1011200005DB4FF480420023684602F045FD05B020
:101130005DF804FBBF53000030B4104B0C2202FBDF
:10114000003301460020D3E90E529863EFF311807B
:10115000202484F31288BFF36F8F1C6C04F0C0044A
:1011600044F002041C6480F31188BFF36F8F1DB13B
:101170002B46034830BC184730BC7047780D002020
:10118000A05E000010B4EFF31182202383F31288D5
:10119000BFF36F8F1748016841F002040460C8076D
:1011A00007D482F31188BFF36F8F012010BC01F0C8
:1011B0004DB94FF08041D1F80C04D1F80C14C90797
:1011C000EFD5EFF3118083F31288BFF36F8F0A49D5
:1011D0000B6C03F0C00343F002030B6480F311882F
:1011E000BFF36F8F82F31188BFF36F8F002010BCA5
:1011F000FFF7A2BFC80D0020780D002010B1012814
:1012000004D07047034B1B6C5B0701D1FFF794BF01
:10121000704700BF780D00202DE9F0413849BFF339
:101220005B8F0746012251E8003F41E8002000287B
:10123000F9D1BFF35B8F33B9324933484B60CB6090
:101240008A6003F07FFF7B1E012B2BD8012F07D173
:101250004FF08043D3F81C3403F00303012B21D05B
:1012600004F09FFC0546F8B9284B1B78E3B14FF01A
:1012700080430222C3F808230646DFF894804FF02B
:101280008044D4F81824D4F81834D20315D503F0C8
:101290000303012B01D0012F0FD155B386F3118821
:1012A000BFF36F8FBDE8F081EFF31186202383F346
:1012B0001288BFF36F8F0125DFE7ADB1304603F031
:1012C000E1FFD4F81835002BDBD1D4F80421002A33
:1012D000D7D0C4F80431D4F804310123C4F8183548
:1012E000C8F88031A360CCE70021212004F0C9FCBC
:1012F000E7E74FF080430222C3F80423D2E700BFA0
:10130000740D0020640D0020940D00206F1000204B
:1013100000E100E008B5074804F097FB38B1064843
:10132000FFF726FE0448FEF761FF002008BD6FF0BE
:101330001200FBE7DC5E00003D1300000A2838B510
:10134000074D044604D1AB680D215B6828469847D9
:10135000AB6803485B68E1B29847204638BD00BFE0
:10136000DC5E0000F0B54068057B01F01F0444EA34
:101370004514056987B0002D64D0B2F5001F00F157
:10138000100506D12146284604F04DFA002007B08A
:10139000F0BD01AE0027B2F5800F0197776039D11B
:1013A000B3F1007F14BF052304238DF8043000231C
:1013B000CDE904630393836823FA01F111F001017D
:1013C0001AD1B2F1A07F17D104F01F03620903F50F
:1013D000E0732AD0012A3BD11F4A52F82330DB07A1
:1013E0000AD40DF1030632462146284601F016FBC9
:1013F0001A4B98421CD0029603AA2146284601F0B7
:10140000CFF9174B984220D101222146284601F0FE
:1014100069FBBBE7B3F1C06F05D0B3F1007F14BF28
:1014200001230223C1E70323BFE74FF0A042D4E723
:101430003146284601F050FB094B9842DBD06FF053
:101440000B00A4E76FF08500A1E76FF015009EE7A1
:1014500051F82330FFDE00BF000300500400AD0B45
:101460000000AD0B38B545682B69B3B1103528467F
:1014700001F022FB044680B90146284601F0E8FA53
:10148000084B98420BD108492246284601F0C0FA81
:10149000224605210620FFF765FB002038BD6FF0CE
:1014A0000400FBE70000AD0BAD140000420970B56D
:1014B000034602D0012A17D070BD0D4E3269516823
:1014C0000029F9D003F01F0301250C689D40002975
:1014D000F2D08A682A4002D04B68304698472CB137
:1014E000236821461C46F2E7024EE7E72346F8E769
:1014F000C85E0000B45E00002DE9F043466840F28B
:101500000635D006337B87B002EA050554BFC2F327
:101510004010032001F01F07B5F5837F144647EA0A
:1015200043178DF8030045D00FD8062D18D007D8E3
:10153000B5B1022D40D06FF0150007B0BDE8F083C3
:10154000B5F5807FF7D101250AE040F202229542ED
:1015500034D0B5F5407F33D0B5F5007FEBD102250F
:101560000123220303FA01F12CD57368C3F808158F
:10157000326982BB07F01F037F0929D0012F77D181
:101580003E4A02EB830284F48033D2F80017C3F39F
:101590000043C4F3404444EA430421F4E16144EAD3
:1015A000800421F0070144EA05230B43C2F8003709
:1015B0000020C2E70725D3E70425D1E70525CFE7BB
:1015C0000325CDE7630344BF7368C3F80C15CFE769
:1015D0004FF0A042D5E710360DF1020239463046F1
:1015E00001F01CFA14F4403F80460CD139463046D5
:1015F00004F017F9224B9845DAD19DF802103046D5
:1016000001F064FAD4E701AB4FF0000903AA3946B0
:101610003046CDE90439CDE90199CDF80C9001F0BF
:10162000BFF8174B984286D114F4003315D09DF8BB
:1016300003308DF80E3084F48034C4F300444B46FC
:1016400003AA394630468DF80C508DF80D4001F054
:1016500061F90B4B9842CDD06DE7CDE9043303AA75
:101660000DF1030339463046039301F099F8F0E792
:1016700003F5E07352F82330FFDE00BF0003005093
:101680000000AD0B02780B69012A08D0022A08D0AD
:101690004AB9064A5A6203F1140002F059BA044AE0
:1016A000F8E7044AF6E7044AF4E700BF0000AD0B90
:1016B0000100AE0B0200AE0B0100AD0B2DE9F04FA7
:1016C000D0F81090D0F8048085B005460C46174637
:1016D000029309F1040A4FF0FF324FF0FF335046F6
:1016E00002F06AFA09F1140B00230022584602F0B6
:1016F00063FA404601F00CFE7B1E00260393B742BE
:1017000001D8002322E0039B217AB34283BF237DCB
:1017100083F00403C3F3800300230193029B00932F
:10172000D4E90023284600F04DF8034670B94FF481
:1017300080420023584602F03FFA98B1404601F03B
:10174000F7FD284600F02CF86FF0040340460293A2
:1017500001F0EEFD504602F0FBF9029B184605B081
:10176000BDE8F08FD9F82430034A934204F10C0409
:10177000EAD10136C3E700BF0000AD0B08B5034650
:101780004068826900F1080101F07EFD034B984238
:1017900014BF6FF00F00002008BD00BF0000AD0BAC
:1017A00008B543681B68D3F80805D3F80C1501F099
:1017B000C5FE034B984214BF6FF00F00002008BD18
:1017C0000000AD0B2DE9F04186B00C4647689DF84E
:1017D00034801546002112220DF106001E4604F049
:1017E000B5FABDF830208DF8052004F0010314F09F
:1017F00008028DF804300296049519D1A10704D48B
:10180000B8F1000F12D19BB9202201A9384601F08E
:10181000ABFD0A4B98420ED00B3398420CBF6FF0D1
:101820000F006FF0040006B0BDE8F0814022ECE745
:101830006FF08500F7E70020F5E700BF0000AD0B73
:10184000036803F01F025B09026004D0012B034808
:1018500018BF002070474FF0A040704700030050B1
:101860002DE9F04FDFF89491DFF894A185B015468B
:10187000834600EB810140F2FF18594503D1002057
:1018800005B0BDE8F08FDBF800305E04C3F3C3227F
:10189000C3F3080400F1AC801B0E19F80270444534
:1018A00008BF4FF0FF34222B00F2A580DFE803F0E1
:1018B00012191F22252B22A3A3A3A33B68A3A3A332
:1018C000A3A3A3A3A3A36B818487A3A3A38A9194B7
:1018D000979A9D00C5F80C45601C5ED10BF1040B76
:1018E000CBE7C5F81445621CF8D000265FE0C5F8C8
:1018F0000845F1E7C5F81045F5E7631CC5F808454C
:10190000ECD0002604E0661CC5F80C45E6D00126A4
:1019100003A80394FFF794FF039B012202FA03F349
:10192000C0F80C3508E0C5F80845002FDBD1631C72
:10193000D4D0002632460627DBF80030019303F4AA
:101940000040002818BF002203A8009218BF0126FB
:101950000394FFF775FF039C019B009A00EB840042
:10196000C3F3412CD0F800473B0243EA8C031343F6
:1019700004EA0A04234343EA4603C0F80037ADE70C
:10198000C5F80C45D1E7C5F86045601CDBF80030B0
:10199000A4D0C3F30043002BB9D003A80394FFF7EE
:1019A0004FFF039B012606FA03F3C0F808353246C1
:1019B000C2E7C5F86445E8E7C5F86845E5E7C5F856
:1019C0006C45E2E7C5F82445621C87D00022012659
:1019D000B2E7C5F828457FE7C5F83045F4E7C5F814
:1019E0003445F1E7C5F83845EEE7C5F83C4573E7FF
:1019F0006FF0150044E76FF0850041E70B650000CC
:101A0000F0F8FCFF036803F01F025B09026004D0DA
:101A1000012B034818BF002070474FF0A0407047CB
:101A20000003005073B50446002201211C20FFF77B
:101A300099F860682369244A00F1080101F02CFA42
:101A4000224B98423CD16568AE6B01AA002130461A
:101A500003F046FD002805DB019B32681979186800
:101A6000FFF7FEFE002631462B6801F5AC7253F8F5
:101A70002230002B0EDB01A80193FFF7C3FF019A70
:101A8000D0F80435D34013F001031CBF01238B4071
:101A90003343DEB201310429E6D10023012062681C
:101AA000916A00FA03F232420CBF01220022D203F3
:101AB00021F813200133042BF1D1002002B070BDB6
:101AC0006FF00F00FAE700BF075500000000AD0BF4
:101AD0002DE9F041044647680D4604F062F84FF0E6
:101AE000200888B9264B1B7873B16426606803F020
:101AF000C3FDF0B9012003F008FE013EF6D100213C
:101B0000212004F0BEF8F0E7EFF31186314688F3A8
:101B10001288BFF36F8F606803F0AEFDA8B986F33B
:101B20001188BFF36F8FEFE786F31188BFF36F8FD4
:101B3000E5E7EFF31186314688F31288BFF36F8F24
:101B4000606803F099FD0028EED0BB691D706368E2
:101B5000BA691B680020C3F844250122C3F8482550
:101B6000C3F82001D3F82041C3F85801D3F8580135
:101B70009A6081F31188BFF36F8FBDE8F08100BFD9
:101B80006F100020F7B50546002201210220FEF764
:101B9000E9FF0220FEF7CAFF6A6811681369C1F8FD
:101BA0002435137D507D927D03431343C1F86C357A
:101BB0006E68D6E9004313F0010348D02F6907F19E
:101BC000080003F0AEFD304B98425AD1387A04F148
:101BD0000C0204F5907103F09AFD387A012707FA98
:101BE00000F000F0A9FB0823C4F80035B369C4F87D
:101BF00044350023C4F84835A760D4F85831002B89
:101C0000FBD00021C4F800156B68DC6801AA2046EF
:101C100003F066FC002805DB019B2268197918682F
:101C2000FFF71EFE6A6813680821C3F80015117AD1
:101C300051B9D269C3F834250122C3F83825C3F855
:101C40001011D3F810111A60002003B0F0BD082263
:101C5000C4F80025B269C4F84425C4F84835012306
:101C6000A360D4F82031002BFBD00023C4F820312E
:101C7000D4F820310123E3604FF48073C4F80433B7
:101C8000BBE76FF00400E0E70000AD0B70B5012387
:101C900083400E4ABFF35B8FDC4352E8001F01EA2A
:101CA000040542E80056002EF7D1BFF35B8F4FF4D6
:101CB000803282400648C0F80823BFF35F8FBFF32D
:101CC0006F8F0B4214BF0120002070BDFC0D00205F
:101CD0000010014070B40E49D1E90034D01AC31885
:101CE00044F1000422F07F46C1E90034A6F5001358
:101CF000B3F5400F09D2074B1B681A0A1B069C1943
:101D0000054B42F10005C3E9004570BC02F006BC7A
:101D100078060020000E00208006002011B3BFF3DB
:101D20005B8F0123104A834052E800CF4CEA030C3A
:101D300042E800C10029F7D1BFF35B8F0B4A4FF493
:101D400080338340C2F80433094BBFF35B8F1B68B9
:101D5000BFF35B8FC340DB0742BF064B4FF400323B
:101D6000C3F80021704700BFFC0D002000100140A7
:101D7000F80D002000E100E00D4B1868010A000694
:101D8000BFF35F8F0B4BD3F80435181841F10001F6
:101D9000B3F5801F0AD2084BD3E90023904271EBC0
:101DA000030303D210F1807041F10001704700BFBE
:101DB000000E002000100140800600202DE9F04FA9
:101DC00085B016461F469DF840A00446FFF75EFF0B
:101DD0000190FFF7D1FFB04271EB070354D23E4BA5
:101DE000301A67EB0101984271F100014FD23B4B71
:101DF00003EB0413D3E902239F4208BF96425ED04F
:101E000037494FF4803804F1500508FA04F8AD0062
:101E1000C1F848832046ADB203F05FFC26F07F4B4B
:101E200005F1804504F5A87305F58835DC464FF0CB
:101E300003090293029A2CF07F4341F82230C1F843
:101E40004483D1F80435274A6FF00200C01A604479
:101E500020F07F40904232D9286868B1D1F804352B
:101E60000393A3EB0B0020F07F40B0F5000F26D9C1
:101E7000204603F032FC039BBAF1000F07D109EBB7
:101E8000030C09F10109D5E7BAF1000F09D06FF091
:101E9000150520460199FFF741FF284605B0BDE82A
:101EA000F08F0123104ABFF35B8FA34052E8000F6D
:101EB000184342E800010029F8D1BFF35B8F0749BE
:101EC0000E98230101EB0412C8500F9B5360C2E926
:101ED00002670025DDE700BF0100800068060020E2
:101EE00000100140FDFF7F00F80D00207FB51C4C65
:101EF0001C4BC4F80833C4F848331B4B00254FF083
:101F0000FF304FF0FF31C4F80855C3E902014FF428
:101F10008033C4F80433154B02264FF400320121FC
:101F2000C4F804631120C3F880212A46FEF71AFE84
:101F30001120FEF7FBFD0E4A0123A360236013600E
:101F40000C4B0D4A0093CDE9015500232846FFF7BD
:101F500035FF3046FFF760F9284604B070BD00BF7A
:101F60000010014003000F006806002000E100E0BF
:101F7000FC0D0020D51C0000FFFF7F002DE9F7437A
:101F80002F4CD4F8043399070BD5D4F8043143B15E
:101F90002C4A0023C4F80431D4F804311368013307
:101FA0001360D4F80433DA0329D5BFF35B8F264BD3
:101FB00053E8002F22F0010143E800100028F7D178
:101FC000BFF35B8FD30702D4D4F84031BBB10025F7
:101FD000C4F84051D4F84031FFF7CEFEEFF3118240
:101FE000202383F31288BFF36F8F184BD3E9026766
:101FF000B042B94106D282F31188BFF36F8F03B0AC
:10200000BDE8F0834FF0FF384FF0FF39C3E9028994
:10201000D3E900101D604FF48033C4F84833C4F88E
:102020004051D4F8403182F31188BFF36F8F0029FB
:10203000E5D0009032463B4628468847DFE700BFA0
:1020400000100140000E0020F80D0020680600205E
:1020500030B5431C124C85B005D08442A8BF04465D
:10206000012CB8BF0124FFF787FE0E4B0C4DD3E9BE
:102070000013401AB0F5000F10D22218AA4228BF50
:102080002A4652184FF0000007490091CDE901009F
:1020900043F10003FFF792FE05B030BD2A46F0E79A
:1020A000FFFF7F0078060020D51C000008B5FFF771
:1020B00063FE024B1B68C01A08BD00BF78060020F3
:1020C0004FF08053D3F83021082A06D1D3F83431A9
:1020D000052B02D8024AD05C70470020704700BF31
:1020E00034650000024AD2F80034002BFBD0704760
:1020F00000E0014010B54FF08053D3F83021082A9A
:102100004ED14FF080420021C2F80C11C2F81011DC
:10211000C2F8381502F54042D3F80414C2F820156D
:10212000D3F80814C2F82415D3F80C14C2F82815F3
:10213000D3F81014C2F82C15D3F81414C2F83015C3
:10214000D3F81814C2F83415D3F81C14C2F840158B
:10215000D3F82014C2F84415D3F82414C2F8481553
:10216000D3F82814C2F84C15D3F82C14C2F8501523
:10217000D3F83014C2F85415D3F83414C2F86015EB
:10218000D3F83814C2F86415D3F83C14C2F86815B3
:10219000D3F84014C2F86C15D3F84434C2F8703543
:1021A000FFF78EFF18B13A4B3A4AC3F88C26FFF777
:1021B00087FF18B1384BFB22C3F81825FFF780FFC3
:1021C00070B14FF080414FF08053D1F8E42ED3F836
:1021D000583222F00F0203F00F031343C1F8E43E1C
:1021E000FFF76EFF20B12D4B4FF40072C3F840266D
:1021F0004FF08053D3F83031082B1AD14FF0804381
:10220000D3F80024D20744BF6FF00102C3F80024C2
:102210004FF08053D3F83431052B02D8204AD35CD9
:102220003BB14FF01023D3F808224FF08043C3F89E
:1022300058254FF01023D3F80022002A03DBD3F8EF
:102240000432002B22DA174901234FF01020C1F885
:1022500004351224FFF746FFC0F80042FFF742FFA3
:10226000C0F80442FFF73EFF0023C1F80435FFF732
:1022700039FFBFF34F8F0C490C4BCA6802F4E06280
:102280001343CB60BFF34F8F00BFFDE710BD00BF0E
:10229000005000404881030000F0004000900240E0
:1022A0002E65000000E0014000ED00E00400FA05AA
:1022B00030B50468CCB1BFF35B8FB4FA84F3C3F1DB
:1022C0001F03DBB201229A4024EA020250E8005FB9
:1022D000A54204D140E8002CBCF1000FF6D1BFF3B9
:1022E0005B8FE6D102480B7030BD0248FCE700BFAF
:1022F0000000AD0B0200AD0B10B50368CB40DB074F
:1023000014D401238B400268BFF35B8F43EA0201C0
:1023100050E8004F944204D140E8001CBCF1000F8B
:10232000F6D1BFF35B8FEED1014810BD0148FCE749
:102330000000AD0B0400AD0B014BC3F80405704762
:1023400000F00140F7B50546F8B101281BD1042281
:102350004FF4807301464FF0804003440244C0F8BC
:1023600008130026012111601E608D421B688DF844
:10237000071008BF0DF1070642F210744FF08047B6
:1023800045B1012D28D003B0F0BD0C224FF482736B
:102390000221E0E7D7F8183403F480333EB9002B6C
:1023A000F1D0012003F0B1F9013CF3D1EBE7D7F80C
:1023B000182402F003023260002BE4D09DF80700DD
:1023C000012803D103F0A1F9013CD9D1012DDAD1C3
:1023D0000C4B00225A71D6E7D7F80C3403F4803343
:1023E0003EB9002BF4D0012003F08FF9013CF3D16A
:1023F000EEE7D7F80C2402F001023270002BDDD199
:10240000E6E700BF040E0020044B1A7922B901222E
:1024100018609A800248704702487047040E0020F6
:102420000000AD0B0C00AD0B08B5074B1B682BB1C2
:102430000020FEF789FB08B9FEF778FB4FF08043D8
:102440000022C3F8182508BD040E002010B510B1F5
:10245000012843D010BD4FF08043D3F81814D3F8AF
:102460001824C80321D502F00303012B04D013B1B3
:102470000020FFF767FF00234FF080420220C2F8E0
:10248000183508224FF4827303F18043002119604C
:1024900002F180421C6801241460154A12680AB3D4
:1024A0004FF08043C3F80403D4E7D3F81424D107D2
:1024B000E1D5D3F81C249207DAD40D4A12681AB178
:1024C0000222C3F80423C5E7D3F80421002AFBD075
:1024D0000022C3F80421D3F80431BBE700224FF4F3
:1024E0008073D1E71A68002AFCD019601B68B1E735
:1024F000040E0020F8B54FF080431C4ED3F804437F
:102500000125002704B9F8BDB4FA84F0C0F11F001A
:10251000830003F580739BB203F1804305FA00F258
:10252000196892B224EA02040029EBD01F601B68EC
:102530004FF08043012AC3F8082305D0022A08D0AF
:102540003368C0B29847DDE77379002BDAD1727136
:10255000F6E7D3F81814D3F818148907F0D1C3F8A4
:102560001855C3F804239D60CCE700BF040E00207B
:10257000036803F01F025B09026004D0012B0348CB
:1025800018BF002070474FF0A04070470003005074
:10259000034A430900F01F00D35C1844C0B27047DF
:1025A0003A65000070B50546FFF7F2FF0C4C0830A5
:1025B0000E4634F81030DA0508D5C3F3432304EB94
:1025C000C302284654F8333052689847A3682BB1A9
:1025D000E26831462846BDE87040184770BD00BF2C
:1025E0001C05002008B5FFF7D3FF034B083033F874
:1025F0001000400B08BD00BF1C05002008B5FFF708
:10260000C7FF034B083033F81000C0F3400008BD8B
:102610001C05002008B5FFF7BBFF034B083033F85B
:102620001000C0F3401008BD1C050020034611F047
:10263000010010B5CCB20DD1A207C4F3400012D5F1
:10264000094AD2F820055860C2F82005003818BFA2
:10265000012008E04FF0A041D1F820251A60C1F810
:102660002025002AE8D010BD0003005010B5FFF768
:102670008FFF124A083032F81030D9051CD5C3F349
:10268000432123F4F85322F8103002F10E04002005
:1026900034F8023F13F4807F03D0C3F343239942FD
:1026A0000AD001303028F3D1002342F831300448F9
:1026B000BDE81040FFF720BE10BD00BF1C05002084
:1026C00094050020F0B50546002004460126074683
:1026D0008C420BD1114BD3F87C2132B10022C3F8CC
:1026E0007C21D3F87C3140F00040F0BDE3B29B0088
:1026F00003F580729B0806FA03F31D420BD002F12A
:10270000804202F5C042D2F800C0BCF1000F02D0F6
:102710001760126818430134DAE700BF0060004018
:10272000F7B506460846FFF733FF194F00F10805D5
:102730000C4637F81530DB0727D5304603F04DF847
:102740002046FFF767FF40B12046FFF74BFF316897
:1027500000F5A270002341F820302046FFF786FFE5
:10276000002301A827F815300194FFF701FF019B12
:1027700000EB8300074BD0F80027134043F002031F
:10278000C0F80037044803B0F0BD0448FBE700BFC1
:102790001C050020F0F8FCFF0000AD0B0400AD0BA1
:1027A0002DE9FF41164680460846FFF7F1FE0D462B
:1027B0003168044609B32846FFF720FF18B12846C0
:1027C000FFF728FF10BB0023CDE900338DF80E3052
:1027D0008DF80F300DF10F020B4628460DF10E015A
:1027E00002F0A3FF474A04F1080132F8113023F048
:1027F000020343F0010322F81130736863B32846E3
:102800001F785968FFF7FAFE10B1D1B13E4826E0B3
:102810003C4A04F1080032F8103023F02003DB04B6
:10282000DB0C22F8103061B1032FEFD871684968D2
:1028300091F800C0D8F80010A7B90CF5A27C41F8B7
:102840002C70304A04F1080132F8113023F01C03D7
:1028500043EA870322F81130B3684BBB2B4804B01E
:10286000BDE8F08101EB8C0143EA4C33D1F810E56F
:102870002EF0030EC1F810E5D8F8001001EB8C0E15
:1028800043F02003DEF8101522F8103021F44F3108
:1028900021F44071CEF810152902DEF8108501F4FC
:1028A0007C5141EA074141EA0801CEF81015C8E71A
:1028B000D3E900672846FFF7D9FE002ECED0114D90
:1028C000D5E90023964203D19F4201D1002209E0BD
:1028D0000F480DF10F01FFF7EBFC0C4B9842BED1F6
:1028E0009DF80F2045F8326005EBC20308345F60A5
:1028F00035F8143043EA422343F4807325F814304A
:10290000ACE700BF1C0500200400AD0B0000AD0BC0
:10291000940500202DE9F0430C4685B08046204602
:1029200011461E46FFF734FE054629B32046FFF741
:1029300065FE18B92046FFF76DFE18BB314F05F153
:10294000080937F8193013F01C0F02D04B78012B0F
:1029500018D001238DF80F300023CDE900134A1C55
:102960008B1C20460DF10F0102F0DFFE37F8193005
:1029700043F0030327F81930002E41D02046FFF71B
:102980003DFE18B9204805B0BDE8F08396F800C0B8
:10299000D8F800301B4F0CF5A272002143F822102A
:1029A00005F1080237F8121021F02001C904C90C02
:1029B00027F8121075781DB3D8F80000B67800EB30
:1029C0008C002D04D0F8103523F4991323F4F85318
:1029D000C0F81035230203F47C5305F44035360566
:1029E000D0F810E52B4306F4801641EA4C3133430E
:1029F00041F0200143EA0E0327F81210C0F8103509
:102A00000248C0E71C0500200400AD0B0000AD0B20
:102A1000014BC3E9021270471C05002010B508469F
:102A20001446FFF7F7FD50B10846FFF7B1FD054B1F
:102A3000083033F8103004485B0B237010BD034896
:102A4000FCE700BF1C0500200000AD0B0400AD0B2F
:102A500070B5164D95F8804006462CBB2146602285
:102A600005F1100003F072F930682E6F21468E4296
:102A70000ED10023C0F87C31D0F87C3140F3073010
:102A8000FEF754F801230A4885F88030AB6770BD23
:102A9000CBB29B0003F580727C2B08BF845001F100
:102AA000010108BF8358E2E70248F0E71C05002057
:102AB0000000AD0B0C00AD0B034B93F88000003809
:102AC00018BF0120704700BF1C0500200148FFF718
:102AD00013BC00BF900500200148FFF7E9BB00BF11
:102AE0009005002073B503681646D3F80423002A26
:102AF000A8BF4FF000420546A8BFC3F8042308460C
:102B00000C46FFF787FD00B30846FFF777FD014647
:102B1000D8B92046FFF766FD04B2A40004F5807220
:102B2000034628688150296882582144D1F810252D
:102B300042F00102C1F810252EB12968012202FAE3
:102B400003F3C1F8043302B070BD2046FFF720FD47
:102B50000F4B083033F81030C3F38203042B12D02C
:102B6000052B12D001A80194FFF702FD019AD0F8BD
:102B70001035D34003F00103991C204602B0BDE894
:102B8000704002F01BBE0321F7E70221F5E700BF0A
:102B90001C0500202DE9F04F694BDFF8A881D3F820
:102BA0000403D8F87010C0B289B040F00040FFF7BD
:102BB00089FD051E2FDAC24600235AF87C1F06A89D
:102BC000CDE90633FFF732FD5F4B01930DF1180994
:102BD0004FF0000B019A12F8013B0192DA0803F062
:102BE00007031AF8022022FA03F3DA071CD409F1CA
:102BF0000409BBF1000F14D0D8F870104FF000405A
:102C0000FFF760FDD8F87C1006A8FFF70FFD00283D
:102C1000DAD125F000450124002D79D109B0BDE8B5
:102C2000F08F4FF0010BD5E7484B5B440293D9F886
:102C300000100029DBD0029B91FAA1F11C78B1FAB7
:102C400081F141EA44142046FFF7A2FC08300594C4
:102C500038F81070C808BB0819F80020039301F079
:102C60000701012303FA01F122EA010209F8002019
:102C700005A8FFF77DFC059A039B02F5E072C7F3F8
:102C8000820650F822205B073746C2F3014224D562
:102C900020463946D6B2FFF785FC05A80594FFF714
:102CA00067FC059B03F5E07350F82330C3F3014341
:102CB0009E4207D10021204602F080FD3146204689
:102CC00002F07CFD05A80594FFF752FC059B01224C
:102CD00002FA03F3C0F82035A9E7022A0CD1032138
:102CE000204602F06BFD06F00503012BEAD13946C0
:102CF0002046FFF757FCE5E702212046039202F049
:102D00005DFD032EF3D0039A032ADBD1022EEDE7FB
:102D100095FAA5F3B3FA83F304FA03F29B0003F1E7
:102D2000804303F5C04325EA0205D3F81005D3F824
:102D30001015C0F30520C1F30141FFF733FC6BE729
:102D4000006000401C0500204A6500004A65000044
:102D500001460148FFF7ACBAA0050020036803F064
:102D60001F025B09026004D0012B034818BF00203A
:102D700070474FF0A04070470003005070B50579D0
:102D80000A4C14236B43E618E35833B90068022158
:102D900002F080FD08B101233372142303FB0544C4
:102DA000207A023818BF012070BD00BF0C0E002031
:102DB0002DE9F3470B7F04466BBBDFF8D8900D1F5E
:102DC00001F1100601F10C08012755F804AFBAF122
:102DD000FF3F1CD03378CDF804A001A8002B50D0C1
:102DE000FFF7BCFF019B07FA03F3C0F8083501A801
:102DF000CDF804A0FFF7B2FF019B00EB8300D0F8F1
:102E0000003703EA090343F00303C0F80037A8457D
:102E100006F10106D9D191F81DC00D8B4F7D8E7D35
:102E20008A7EC87E2368BCF1000F0BD1D1E9008EE9
:102E3000D1E902C1C3F86085C3F864E5C3F868C589
:102E4000C3F86C1542EA0022C3F80C75C3F8046598
:102E5000C3F80855C3F8102520680023C0F81031C6
:102E6000D0F81021C0F80831D0F80821C0F80C3192
:102E7000D0F80C3140F3073002B0BDE8F047FDF761
:102E800055BEFFF76BFF019B07FA03F3C0F80C3543
:102E9000ADE700BFF0F8FCFF2DE9F04190F80480A9
:102EA0000D4C142606FB08F6A71997F808C0BCF1CC
:102EB000000F0ED1A2517B6019B10B7F3B74FFF75D
:102EC00077FF142303FB0844044801232372BDE861
:102ED000F0810348FBE700BF0C0E00200000AD0BA3
:102EE0000C00AD0B70B40C460179266815461A46E5
:102EF0001A4B01EB810103EB81010368C3F82065E4
:102F0000A688C3F82465A668C3F82865E668C3F8F0
:102F10002C6503682668C3F84065A688C3F8446535
:102F2000A668C3F84865E468C3F84C45046805F032
:102F3000010303EB5505C4F81455D4070CD412F063
:102F4000020403D0002B14BF082404240568C5F82C
:102F5000004270BC02F069BC1024F7E70C0E0020A0
:102F600038B5036805790022C3F8002203680122FE
:102F700004465A6071B12046FFF700FF0028FAD0DE
:102F800023680022C3F80025054B142202FB0533F9
:102F900001221A722046BDE83840FFF7EFBE00BF9D
:102FA0000C0E002010B5B2211A4802F073FCC106C5
:102FB000044608D5184BDA68520704D51A6812B1CE
:102FC000596801209047A00608D5134BDA6811070D
:102FD00004D51A6812B1596802209047220608D514
:102FE0000D4BD86810F0100003D11A680AB1596867
:102FF0009047A3070DD5074B0022C3F80025064BC9
:1030000001221A721A6822B1BDE8104059680320E3
:10301000104710BD00C001400C0E002030B500F07C
:103020001F04400911D0012812D10C4800EB840084
:103030001B02D0F800570A4C43EA82022C4042EAB5
:1030400041012143C0F8001730BD4FF0A040EDE72B
:1030500004F5E074002353F82430FFDE0003005031
:10306000F0F8FCFFCB7B10B433B9D1E90042036820
:10307000C3F80845C3F80C2503688A68C3F82425FB
:1030800003793C225343054AD3582BB1006810BC46
:1030900040F30730FDF74ABD10BC7047200E0020FA
:1030A00013B53B4B01930023C0F80431D0F8042141
:1030B000C0F82431D0F82421C0F81C31D0F81C21EC
:1030C000C0F80831D0F80821C0F800324B6381F80D
:1030D0002F300123036291F82D209A4218BF83609C
:1030E0004B6B8A6A934204460ED24A6AD35CC0F89C
:1030F0001C350B6803B340F286238B608B68254830
:10310000C4F8043302B010BD91F82C3013B1012380
:10311000C361EEE70B6A13F0400F4FF0010316BFD7
:10312000C361436181F82D30E3E7204602F0DEFB06
:1031300028B1019B013B0193019B002BF5DC91F829
:103140002F305BB91348019B002BDBDC0023C4F854
:10315000003505231048C4F80035D3E7D4F8C4344B
:10316000C4F8C4348BB10D4A0B4813F0010F18BFDB
:10317000104613F0020F02F1010218BF104613F0BF
:10318000040F074B18BF1846DDE70348DBE700BF15
:10319000A08601000000AD0B0100AD0B0000AE0BDE
:1031A0000200AE0B13B5334B01930023C0F804317A
:1031B000D0F80421C0F82431D0F82421C0F81C3103
:1031C000D0F81C21C0F80831D0F808214B6381F8F1
:1031D0002F308B6A012B044617D10B6A5B0614D47F
:1031E0000223C4F800320123236291F82D20022A21
:1031F00018BF23600B688BB140F286238B608B680D
:103200001D48C4F8043302B010BD0123E9E720468D
:1032100002F06CFB28B1019B013B0193019B002B49
:10322000F5DC91F82F305BB91348019B002BEADCE9
:103230000023C4F8003505231048C4F80035E2E740
:10324000D4F8C434C4F8C4348BB10D4A0B4813F01D
:10325000010F18BF104613F0020F02F1010218BF50
:10326000104613F0040F074B18BF1846DDE703485C
:10327000DBE700BFA08601000000AD0B0100AD0B35
:103280000000AE0B0200AE0B2DE9F84390F804905D
:103290001C4E07463C2000FB09F035180C4695F8FB
:1032A0002E1061BBA96032506B6085F82D1085F837
:1032B000311085F83010CCB1637B85F8383094F844
:1032C0000E8085F83980B8F1000F0BD120680623F5
:1032D00003224146FFF7A2FE60680623032241460F
:1032E000FFF79CFE21463846FFF7BCFE3C2303FB5C
:1032F00009660548012386F82E30BDE8F8830348A7
:10330000FBE700BF200E00200000AD0B0C00AD0B52
:10331000036802790521C3F80015044B3C2101FB29
:103320000233022283F82E20704700BF200E0020B7
:1033300003680B4A0179C3F80823D3F8002222F06E
:103340000302C3F800220022C3F80025054B3C20ED
:1033500000FB0133012183F82E1083F830207047E1
:1033600086420400200E00202DE9F047314F0479F9
:10337000D0F800903C2303FB04730D4693F82D30E6
:10338000012B944604D10B78012B06D12A4811E079
:10339000022B02D10B78012BF8D13C26274BC9F820
:1033A000083306FB047696F830302BB1B368244816
:1033B000C9F80433BDE8F0878CF00403C3F380033D
:1033C00086F83030C6F820C0A846B8E80F0006F1ED
:1033D0000C0EAEE80F00D8F80030CEF800306B6865
:1033E000B362EB6873626B78C9F888352B78C4EBED
:1033F000041A012B07EB8A0A17D09BB9CCF3401CA7
:103400003C2303FB04735146484683F82CC0FFF766
:1034100047FE3C235C433A193B59002BCAD182F842
:103420003030C7E74FF0010CEAE751464846FFF756
:10343000B9FEEEE7200E00200500AD0B8642040029
:103440000B00AD0BF0B5324C324887B0214602F08C
:103450004DFA002859D194F82F70FFB9227B931EA2
:10346000012B1BD8606AA369984217D1E369636294
:103470006369A362236A274884F82D70C3F340135D
:10348000032A84F82C3004D107B0BDE8F040FFF7E0
:1034900007BE07B0BDE8F040FFF784BE1E4E0FCE5A
:1034A00001AD0FC533682B6047B31A4AD2F8C43454
:1034B000C2F8C43413F0020106D001238DF80030A5
:1034C000002384F8303007E013F0040209D002230F
:1034D0008DF8003084F83010D4E900316846984700
:1034E00013E013F0010305D003238DF8003084F8B6
:1034F0003020F1E704228DF80020E2E7236A8DF8FE
:1035000000705B0784F83070E6D507B0F0BD00BFEF
:10351000200E0020003000402C0E0020036803F035
:103520001F025B09026004D0012B034818BF002072
:1035300070474FF0A040704700030050F7B50646B3
:1035400002F06CFA084602F069FA01A80196FFF74A
:10355000E5FF019B2E4D00EB83000C46D0F80037B1
:10356000019440F20D612B400B43C0F8003701A8D5
:10357000FFF7D4FF019B00EB83000127D0F8003751
:103580002B400B43C0F80037042002F0BEF8092599
:1035900001A80194FFF7C2FF019AD0F81035D3407B
:1035A000DB0715D401A80196FFF7B8FF019B07FAC6
:1035B00003F3C0F80C35042002F0A7F8304602F0FF
:1035C0002DFA013D042002F0A0F815F0FF05DFD12F
:1035D00001A80194FFF7A2FF019A01239340C0F8CC
:1035E0000C35042002F091F8204602F017FA04206E
:1035F00002F08BF801A80194FFF790FF019AD0F830
:1036000010350448D34003F00103C01A03B0F0BDE5
:10361000F0F8FCFF0100AD0B08B5144BA822002107
:10362000184602F093FB0322026111494261114ADC
:103630008161C2614FF48062026200228262426252
:10364000C26201660C494166102181660346026729
:10365000C2664267BFF35F8F084911F8010D9854A5
:103660000132102AF9D1BFF35F8F08BD100400208A
:103670004C6500001000002000000020656500007F
:1036800010B4BFF35F8F0B4A0B490023C85C12F8DC
:10369000014D844209D10133102BF7D10023BFF330
:1036A0005F8F23B110BCFFF7B7BF0123F7E710BC52
:1036B000704700BF656500001004002038B5EFF3C7
:1036C0001185202383F31288BFF36F8F064B9C680C
:1036D00002F0CEF985F31188BFF36F8F2046BDE865
:1036E0003840FDF7C9B900BF5C0E002038B5094B62
:1036F00053F82040013053F82050A54200D838BD7F
:10370000636823B1204602F0B6F90834F5E7236870
:103710009847FAE79462000070B52B4B2B4C2C4D68
:10372000012286B003201A70FFF7E0FFFCF7AAFE23
:1037300002F0BDF90420FFF7D9FF2646AE4204F19E
:10374000300410D300F01CFC204C224EAC4226D397
:1037500000F02AFCFCF7D4FC1F4A137B23F0010382
:10376000137306B070BD54F80C3C059354F8103C2C
:10377000049354F8143C039354F8183C029354F8FF
:103780001C3C019354F8203C009354E90A2354E96B
:103790000C0100F037FA54F8303C5E65CDE7D4E90F
:1037A0000A23B3F1FF3F08BFB2F1FF3F05D052EA51
:1037B0000301206803D100F0B7FC3034C6E731467E
:1037C000183000F035FEF8E76F1000209860000018
:1037D000986000007B5C00000807002008B50348E3
:1037E000034A0021121A02F05EF908BD68060020A3
:1037F0007410002070B5002386B00122CDE90423A7
:10380000134E144D01930F22CDE9023212491423B5
:1038100003FB005506EBC01604464FF4C07000FBD6
:1038200004110E4B00954FF4A072304600F0EAF9F7
:10383000737B0B4AEE6023F0040373734FF404634D
:1038400004FB033313442C746B6006B070BD00BFDF
:10385000880600205C0E0020C01800206F5B00006E
:1038600080100020BFB50020FFF740FF2C4B83F3F2
:1038700008882C4D2C4E6B692C4F43F400736B6100
:103880000024E02385F82230EC772C766C76AC7639
:1038900085F820406B6A43F4E0236B6285F823408F
:1038A000FDF766F8FDF7E2F94FF0FF33AB62EB622C
:1038B000FDF7A2FAFDF7FEF91D4BB36040F20112CD
:1038C0009A81C3E91844DC6602F0BEF80120FFF7D4
:1038D0000DFF0220174DFFF709FF00F099FB164B73
:1038E00075610593012315490094CDE903434FF415
:1038F00080623B46CDE90144284600F083F96A7BAB
:10390000064622F0040228466A7302F08AF920462D
:10391000FFF770FF3A4631462846FDF789F900BFA8
:10392000C018002000ED00E05C0E002019370000F8
:10393000880700200807002066650000401A002064
:1039400038B5064C064D0020AC4200D338BD2046A9
:1039500002F0AEF80028F9DB1C34F5E71806002069
:103960001806002073B50C46EFF31181202585F36E
:103970001288BFF36F8FC5685DB125602B68C36087
:10398000836901338361002081F31188BFF36F8F56
:1039900011E052EA030603D125606FF00B00F3E754
:1039A000CDE900230246083000F04AFA18B9034B6B
:1039B0009B685B69236002B070BD00BF5C0E002095
:1039C0002DE9F341044617461E46EFF311882023E4
:1039D00083F31288BFF36F8FC368334A7BB180686B
:1039E0009168884219D057EA060318D188F31188E4
:1039F000BFF36F8F6FF00F0002B0BDE8F0819168E8
:103A000091F90E1021610133E3609368A36088F39C
:103A10001188BFF36F8F0020EEE72169F2E791F97B
:103A20000E1090F90E309942A8BF19466FF07E0231
:103A30009142B8BF11468B422DDD02F0A3F8054636
:103A4000CDE9007619482246414600F0F9F90028F0
:103A5000E1D0EFF31186202383F31288BFF36F8F39
:103A6000A068D0B1236821699C420AD04BB193F978
:103A70000E309942A8BF19466FF07E039942B8BF35
:103A8000194602F07FF840B10848314600F052FA7A
:103A90006FF00A00B0E70025D2E7002DF4D186F3DD
:103AA0001188BFF36F8FF3E75C0E002070100020C9
:103AB000F8B583680546002B3FD0234A92689342AD
:103AC0003ED1C368012B03D9013BC3600020F8BD80
:103AD000EFF31187202383F31288BFF36F8F0169FF
:103AE000806802F04FF82C68A54207D10023C5E991
:103AF000023387F31188BFF36F8FE7E7002CF5D00F
:103B0000D4E9003213605A60637B002623F002037D
:103B10006373C4E90066A66004F1180002F0E3F8DC
:103B2000AC6094F90E302B612046A66702F079F85C
:103B30000648394600F0FEF9C8E76FF01500C6E701
:103B40004FF0FF30C3E700BF5C0E00207010002074
:103B500070B5EFF31186202383F31288BFF36F8FC4
:103B60000468A0421AD0CCB1D4E9003213605A6084
:103B7000637B002523F002036373C4E90055A5604D
:103B800004F1180002F0AFF82046A56702F049F8EA
:103B900031460848BDE8704000F0CCB9D0E90232A7
:103BA0009A4218BF0133836086F31188BFF36F8F89
:103BB00070BD00BF7010002013B5EFF311812024F9
:103BC00084F31288BFF36F8F846844B1013C846032
:103BD00081F31188BFF36F8F002002B010BD52EA4D
:103BE000030406D181F31188BFF36F8F6FF00F00CC
:103BF000F3E7CDE900230246014800F021F9ECE7A4
:103C0000701000202DE9F043073285B022F0070242
:103C10000E461F461099017300F158037F32C0E928
:103C200016330446002322F03F02042183604173CF
:103C30003F2A0F98A073C4E90633E37306F14009E5
:103C4000A2F1400805D883F31188BFF36F8F0846AF
:103C500002DFB51829462046FCF712FD07300E9BFF
:103C600020F00700A066C4E9189802930D9B019309
:103C70002D1A0C9B00932A463B4631462046FCF702
:103C8000A5FF00236365044B9B6803B1DB6EE3660D
:103C9000284605B0BDE8F0835C0E0020094A936811
:103CA0006FF00A019967084958674B6843F08053E1
:103CB0004B60002383F31188BFF36F8F9368986F75
:103CC000704700BF5C0E002000ED00E070B590F979
:103CD0000D20437B002A39DBD90637D18269002ABF
:103CE00034D11D4C63F07F032246437352F8183FD2
:103CF00093422CD1E169C0E900210860E06111E044
:103D00009942F8D01B68002BF5D090F90E5093F92A
:103D10000E60B542F4D0AE42F2DD5968C0E9003120
:103D200008605860A569954200D005B9E568A368A8
:103D30005A7BD20604D1DA897F2A01D9AA6942B115
:103D4000AB4202D0284600F0D1FA656170BDE1694E
:103D5000D9E76361FAE700BF5C0E002038B590F93F
:103D60000D20437B002A014604DA03F07F034373EE
:103D700001F01DFF0D4D2A46AB6852F8184F9442D2
:103D800000D004B9EC688B4207D05A7BD20604D12C
:103D9000DA897F2A01D9A2692AB1A34202D020463A
:103DA00000F0A4FA23466B6138BD00BF5C0E002012
:103DB00070B590F90D20437B002A014604DA03F028
:103DC0007F03437301F0F3FE4B7B1C4C63F07F03D6
:103DD00022464B7352F8183FE069934207D1C1E97C
:103DE00000200160E16111E09842F8D01B68002BCF
:103DF000F5D091F90E5093F90E60B542F4D0AE4271
:103E0000F2DD5868C1E9003001605960A569A36816
:103E1000954200D005B9E5688B4207D05A7BD2069F
:103E200004D1DA897F2A01D9AA692AB1AB4202D02A
:103E3000284600F05BFA2B46636170BD5C0E0020E3
:103E4000F8B5124B0C461146114A98681060DDE92E
:103E50000676EFF31182202282F31288BFF36F8F70
:103E60009D68284601F0B5FEB6F1FF3F08BFB7F1E7
:103E7000FF3F06D007493A46334605F1180000F0E7
:103E8000D7FA2046BDE8F840FFF708BF5C0E0020D7
:103E90007C0E00207B5C0000F8B50446EFF3118631
:103EA000202383F31288BFF36F8F437BDA0649B276
:103EB00017D18269AAB903F07F03437301F077FE3B
:103EC0001B4D437B817363F07F032A46437352F893
:103ED000183F93422AD1E869C4E900200460EC61EC
:103EE00016E0A173002086F31188BFF36F8FF8BD31
:103EF0008342F1D01B68002BEED093F90E70B942CB
:103F0000F6D08F42F4DD5968C4E900310C605C6082
:103F1000AC69944200D004B9EC68AB689C4202D012
:103F2000204600F0E3F96C610120DCE7E869E2E794
:103F30005C0E002049B9EFF3058030B9054B5A6992
:103F40009B689A4201D0FFF7A9BE81F31188BFF3A5
:103F50006F8F70475C0E0020034648B9EFF305826F
:103F600032B9064A51699268914201D0FFF796BE74
:103F700083F31188BFF36F8F704700BF5C0E002082
:103F8000EFF31181202383F31288BFF36F8F054B6A
:103F90009A68D37B013BD37381F31188BFF36F8F92
:103FA000704700BF5C0E002070B5EFF31186202330
:103FB00083F31288BFF36F8F144DAB68DA7B013245
:103FC000DA732A4652F8184F944200D004B9EC68CC
:103FD0005A7BD20604D1DA897F2A01D9A2692AB193
:103FE000A34202D0204600F081F923466B6186F39C
:103FF0001188BFF36F8FEFF31180202383F31288B2
:10400000BFF36F8FBDE87040FFF7A6BF5C0E0020C6
:10401000024B03F11802C3E9062270475C0E002030
:1040200070B5EFF31186202383F31288BFF36F8FEF
:104030001B4CA168E0690B68814214BF1A4600223C
:1040400049680B605960A368E1692AB9154AC3E958
:1040500000210B60E3610CE093F90E0092F90E5021
:10406000A84218D0854216DD5168C3E900210B60D3
:104070005360A5690B4B9D4200D005B9E568A36864
:104080009D4202D0284600F031F965613046BDE816
:104090007040FFF703BE8A42D8D01268D5E700BF50
:1040A0005C0E0020740E002050EA01032DE9F0415F
:1040B00005460E4604D1FFF7B3FF0020BDE8F081AE
:1040C000831C71F1FF3324DB01F02EFE4419EFF362
:1040D0001188202383F31288BFF36F8F0F4F104B8B
:1040E000B8681860FFF73AFEB8680E492A463346AA
:1040F000183000F09DF9BA68537B43F00403537302
:104100004046FFF7CBFD01F00FFE201A20EAE070D9
:10411000D4E76FF00104241AD9E700BF5C0E002039
:104120007C0E00207B5C000038B50446183001F09E
:10413000DAFDEFF31185202383F31288BFF36F8F2D
:10414000637B5A0704D485F31188BFF36F8F38BDA2
:1041500023F0040363732046FFF7B8FDEFF30583F4
:10416000002BF0D129460248BDE83840FFF7E2BEF7
:1041700070100020014B9868704700BF5C0E002053
:104180002DE9F8430446EFF31187202383F31288C7
:10419000BFF36F8F067B16F001060DD087F31188F1
:1041A000BFF36F8F002383F31188BFF36F8F042356
:1041B000184602DFBDE8F883437B1A0704D587F36E
:1041C0001188BFF36F8FF5E7D90943F0080250D18A
:1041D0004273A36813B1204601F0F1FC04F118000A
:1041E00001F081FDA56D04F15808A84511D04FF0EC
:1041F000000975B1284601F0E2FC05F1180001F054
:1042000072FDC5F878902846FFF760FDA56DA845BA
:10421000EFD11C4DAB689C4204D1EFF30586003E04
:1042200018BF0126D5F81880174A904502D0B8F17A
:10423000000F01D1D5F80C80434502D0404600F074
:1042400055F8C5F8148046B1104BAB6040F201122E
:104250009A810022C3E91822DA66AB689C42AED18B
:10426000EFF30583002BAAD13846BDE8F843FFF7EA
:1042700015BD03F07F0343F00803437301F097FC7F
:10428000A7E700BF5C0E0020740E00208807002006
:10429000044BC01A044BC0105843044B01221A545B
:1042A000704700BF08080020ABAAAAAA701000201F
:1042B000C3897F2B12D80A4B1B6863B1094B90F955
:1042C0000E201B689A4209DB437BDB0606D1064BB6
:1042D000C31A18BF012303F0010070470023FAE757
:1042E000840E0020800E00208806002070B50E4B42
:1042F0000E4C1E7C06EB460304EBC3040546204629
:1043000001F0F1FC0A4B002228469A55FFF7D0FF36
:1043100048B1084B08491A68013A2046D317BDE84E
:10432000704000F085B870BD5C0E002008080020C9
:1043300070100020840E00209142000038B5EFF389
:104340001185202383F31288BFF36F8F104B114A1E
:104350009C681068A04206D1FFF7C8FF85F311885A
:10436000BFF36F8F38BD00211B7C11600A4AD35CFC
:10437000002BF3D02046FFF79BFF0028EED0637B95
:10438000DB0602D12046FFF713FD2046E4E700BF1D
:104390005C0E00207C0E0020701000200748084AA8
:1043A000084908B5121A01F080FB0748074A084976
:1043B000BDE80840121A01F078BB00BFC00400201D
:1043C0006806002084650000B8040020C0040020B6
:1043D0007C650000024B1868984208BF00207047B7
:1043E000A4050020034B1B680BB9FDF75FBE00203E
:1043F000704700BF880E002030B570B10B4B5B6872
:1044000098420AD0036843B1D3E90421D0E90445B6
:10441000121941EB0501C3E90421D0E90032136010
:104420005A600023C0E9003330BD00BFA40500205E
:10443000B3F1FF3F08BFB2F1FF3FF8B504461D4698
:1044400016465AD08160EFF31187202383F3128838
:10445000BFF36F8F013275F1FF3321DA2C49D1E9B7
:1044600000206FF001039B1A4FF0FF3262EB000057
:104470009E1B60EB0500012E70F1000301DA01269E
:104480000020C4E90460FFF7A5FF224E844670684F
:10449000BCF1000F0DD1C4E90060046074601CE041
:1044A000FFF7A0FF013645F10005361845EBE07037
:1044B000E7E7DCE90425D4E90431934271EB050E0A
:1044C0001CDAD21ADCF8043065EB0105CCE90425CE
:1044D000C4E900C31C60CCF80440FFF77BFF8442B2
:1044E00007D10D4B1C6824B901F0E4FB2146FDF710
:1044F000AFFD87F31188BFF36F8FF8BD9B1A61EB97
:1045000005018445C4E90431C5D0DCF800C0BFE72B
:1045100020080020A4050020880E00202DE9F04787
:10452000EFF31185202383F31288BFF36F8FDFF839
:10453000A090DFF8A080C9F80000FFF74BFF00262D
:104540000027D9F80030D8E900ECD91750B1D0E9EC
:104550000442A34271EB020A1ADAE41A62EB010286
:10456000C0E9044213EB0E034CEB01010024C8E93F
:104570000031C9F8004001F09DFB2146FDF768FDC0
:1045800085F31188BFF36F8FBDE8F047FFF7D6BE04
:1045900014EB0E024CEBE473C0E90467C8E9002396
:1045A000FFF72AFF85F31188BFF36F8F8368984761
:1045B000EFF31185202383F31288BFF36F8FD9F8AF
:1045C00000301B1BC9F80030FFF704FFB9E700BF3C
:1045D000880E00202008002010B5EFF3118420235E
:1045E00083F31288BFF36F8FFFF7FCFE054A034683
:1045F000D2E90001181841EBE37184F31188BFF38D
:104600006F8F10BD2008002010B50A4C23681BB125
:1046100001232360002010BD00F0EAF80028F7D045
:104620000138062803D8044B53F8200010BD034876
:1046300010BD00BF8C0E0020AC620000FE8FFFFF9B
:10464000BFF34F8F0549064BCA6802F4E06213437B
:10465000CB60BFF34F8F00BFFDE700BF00ED00E070
:104660000400FA0510B4094B09490A4C4FF0FE3218
:10467000C3F800244968C3F80424C3F80824C3F825
:104680000C240023C4F8003510BC084700B00250C9
:10469000AC05002000A00250D0E90012014BC3E994
:1046A00000127047AC05002010B5044650B1636895
:1046B00013F0685F05D0064A934202D000232360BE
:1046C000626010BD034B04485B689847EFE700BF8A
:1046D0002C5F5CA9AC050020C8620000C8B143682B
:1046E0000D4A934213D013F0685F0ED0012350E8B7
:1046F000002F194640E8001C9CF0000FF7D1012A5A
:10470000F5D0BFF35F8F002070470448704704481E
:1047100070476FF4E04070472C5F5CA9E98FFFFFA2
:10472000EA8FFFFF80B14368094A93420AD013F031
:10473000685F05D0BFF35F8F0023036018467047A2
:1047400004487047044870476FF4E040704700BF6A
:104750002C5F5CA9E98FFFFFEA8FFFFF10B50446CD
:1047600020B1044B63600022226010BD0248FFF7B5
:1047700079FFF6E73A00003AF062000070B5D0E940
:104780000023174C174D6360D0E90230C4E90230B2
:1047900022604868D1F800C0134BC3E900C0D5F8C7
:1047A0001801D1F808C0C3F808C010F0685FD1F84C
:1047B0000CC00969C3F80CC0196110D00B49C5F8C9
:1047C000BC110023C5E9453105F58A70C5F8B8313B
:1047D0009047236805F5DC70BDE87040184770BD50
:1047E000C8050020A40E0020B40500202C5F5CA9A1
:1047F00038B500F02FF820B1032400F063F820460C
:1048000038BD00F031F898B900F0ACF898B90F4D08
:10481000D5F828391B0EF02B08D1D5F8242A0C4BDB
:104820009A420AD0072400F017F8E6E70624FAE7D0
:104830000424204638BD0024F5E7012000F092F85A
:1048400004460028F7D1C5F80C0AD8E700B002509A
:104850000000E0200020704700207047014BC3F8A3
:10486000040A704700B0025010B5114800F048F833
:1048700000B110BD0F4800F043F80028F9D10E4CEC
:10488000204600F03DF80028F3D10C4B0C481C608A
:1048900000F036F801460028EBD100F02DF8044670
:1048A00008B1204610BD00F03FF82046FAE700BFEF
:1048B000080600200406002000060020F80500205D
:1048C000FC05002008B5084800F024F8074800F06F
:1048D00021F8074800F01EF8064800F01BF8BDE874
:1048E000084000F00BB800BF0806002004060020B6
:1048F00000060020FC05002000207047704700BF24
:1049000008B5034B02681B6810689847002008BD73
:10491000C805002008B5034B02685B68106898471B
:10492000002008BDC805002070B5094C094D20695C
:10493000AB68984718B1084B08485B689847084A25
:10494000EB68206900211160BDE87040184700BF86
:10495000B4050020C8050020AC0500201463000049
:10496000A00E0020F8B51A4D1A4E0446B268286908
:104970009047E8B9184F3B684CB1A3B1012B19D04F
:10498000013B3B602869F36898470020F8BD43B9B4
:10499000124A0121C2F800151149D1F81029002A44
:1049A000FBD101333B60F368286998470020F8BDCC
:1049B0000C48F8BD0A4AD2F81039002BFBD1074A3F
:1049C0006FF07E40C2F80035FFF748FF3B68D7E73D
:1049D000B4050020C8050020A00E002000A0025051
:1049E00000B00250E98FFFFF2DE9F04F8DB0436812
:1049F0000293837815469A07804640F10D81002482
:104A00000E78002E00F00A81252E0BD04B1C03934C
:104A10000134029B4146304698470028C0F2F68098
:104A20000399EDE74E788B1C252E0393F0D00027D9
:104A3000B946BB46BBF11F0F38D8A6F12003102B97
:104A40000AD8DFE803F02A09093009090921090910
:104A50000928092D09091F00A6F13003092B33D9B4
:104A60002A2E37D11BF0400F55F8043B40F08280CE
:104A7000002BA7BF4BF0200B9946C3F100094BF068
:104A8000280B01E04BF0010B039B13F8016B039320
:104A9000002ECFD130E04BF0020B4BF0040BF3E7CC
:104AA0004BF0080BF0E74BF0100BEDE7BBF17F0F7D
:104AB00019D8A6F13003092BD2D81BF0400F03D030
:104AC0000A2101FB0737DFE70A2101FB09394BF017
:104AD000200BD9E72E2E06D11BF0400F40F09E8010
:104AE0004BF0400BD0E76C2E31D02BD8682E36D04F
:104AF0006A2E3CD04C2E3AD0002F46F02003B8BF8F
:104B00002BF04002A3F16501BCBF1FFA82FB002716
:104B1000022901D9612B2FD1073525F00705DFF8D0
:104B2000ACA2083507271BF0080F66D00AEB070B6D
:104B300056465E4563D1A4EB0A0A06EB0A02A9EBCE
:104B400007096FE1742E9FD07A2E9DD0D4E71BF019
:104B5000800F18BF4BF4007B4BF0800B94E71BF4E5
:104B6000807F18BF4BF4007B4BF4807B8CE74BF4C9
:104B7000207B89E71F4687E7A6F16301122900F22F
:104B8000F080DFE811F013004F00EE00EE00EE00C1
:104B9000EE004F00EE00EE00EE00EE00EE00FE0034
:104BA000E900EE00EE001B00EE00AF0055F8043BFC
:104BB0008DF8183001270DF1180AB4E755F804AB49
:104BC000834BBAF1000F08BF9A461BF0400F14BF89
:104BD00039464FF0FF31504601F0C0F80746A2E7D2
:104BE000029B41462020984700280FDB013EB74238
:104BF000F6D34C44A41BB14698E74E46F7E716F8A7
:104C0000010B029B41469847002892DA98F802303F
:104C100043F0040388F802304FF0FF3420460DB013
:104C2000BDE8F08F1BF0800F34D01BF4007F2CD038
:104C3000073525F00705AA4669685AF8080B2BF0D6
:104C400010050029ADB237DA404261EB410145F46D
:104C500080650DF1180B0A235A4601F08BF8A0EB82
:104C60000B0301936B0662D5019B25F001019F4266
:104C700089B240F3A180002E00F0998015F0100257
:104C800040F09C80BB460D4623E0AA465AF8040B30
:104C9000C117D4E7AA461BF4807F5AF8041B01D140
:104CA0000846F5E71BF4007F15BF48B208B241F390
:104CB000C01141F3C031C2E750EA0103C9D11BF072
:104CC000400FC6D0002FC4D12BF0110295B2BB46C5
:104CD000019740F2064115EA01021CBF0BF1010BDE
:104CE00000222CE02BF010021FFA82FB0A231BF09B
:104CF000800C49D01BF400711DBF073525F0070556
:104D0000AA46AA461ABF5AF8080B69685AF8040B53
:104D100050EA010545D12BF016051BF0400FADB24E
:104D200042D0002F40D12BF0170295B2019715F019
:104D3000100248D0019B002E42D103F1010B29073C
:104D40005AD4EB0706D5D9456FDD0199A9EB0B03C2
:104D50005F18CB465B4649E04BF0100B10237826DA
:104D6000C5E7782B04D1C6F1780343F01003BEE702
:104D7000029B4146252098470028FFF647AF0234A2
:104D800047E608230026B2E7AA461BF480715AF8CA
:104D9000040BBDD01BF400711ABFC0B2614680B2D3
:104DA000B6E72BF0060295B20DF1180B54E725F08B
:104DB0001105ADB2BB468CE70D46B8E73B460D4644
:104DC00003F1020BBBE7DDF804B082E77265000077
:104DD0006B650000CDE904324146029B20209847D4
:104DE0000028FFF613AF049B059A01339945F1DCC7
:104DF000A4EB0B01CC189B460AB3029B4146302022
:104E000098470028FFF602AF8EB901342744019B72
:104E1000391B994224DC1D465DBB019AA9EB0B09A5
:104E2000224455461446914435E0019F92E70234EE
:104E300041463046029B98470028E7DAE6E640F212
:104E400006410D42E2D015F0020F14BF2B202020A6
:104E500015F4806F04F10104414618BF2D20E9E7E5
:104E6000029B414630209847002804F10104CEDA25
:104E7000CCE606AB013D4146585D029B98470028B1
:104E8000CADAC3E6029B414620209847002804F175
:104E90000104FFF6BBAEA9EB0403002BF2DCBFE577
:104EA0007047836800EBC101B3F5004F2CBF51F888
:104EB000220031F81200704700EBC1018068B0F5A4
:104EC000004F2CBF41F8223021F81230704708B54E
:104ED0000122FFF7E6FFD04008BD8368B3F5004F1D
:104EE00000EBC10108D34B681AB143F001034B60DA
:104EF000704723F00103FAE74B881AB143F001032E
:104F00004B80704723F00103FAE753000122FFF7BB
:104F1000D3BFB0F5004F34BF04230823481C083327
:104F2000A0EBD300B0FA80F0C0F11F0070472DE96C
:104F3000F0410D4686680446FFF7C9FFB6F5004FFD
:104F4000014601D3012832D03046FFF7E2FF04EBDF
:104F500080010E6996B9E368012282401343E36041
:104F600002220D612B4629462046FFF7A5FF0322AA
:104F700029462046BDE8F041FFF79EBF0222314698
:104F80002046FFF78EFF2946034607462046FFF7D7
:104F900093FF0322334629462046FFF78DFF39460B
:104FA0002B462046FFF788FF02223146E1E7BDE8A5
:104FB000F081B2F5802F2CBF08230423D21A2DE9EB
:104FC000F0418C18CD1D25F0070524F00704641B63
:104FD0000026E40805602146AC60EE602046FFF73D
:104FE00098FF421D9200013002F107074FEAD707F0
:104FF000A2F110023146B8BF324605F1100000F0B0
:10500000A5FE3A4631462846FFF77FFF3346324633
:1050100031462846FFF750FFA4EB070828463146E3
:105020000122FFF75AFF42463946FFF76EFF3B4623
:10503000324639462846FFF73FFF21462846FFF70C
:1050400064FF4346324621462846FFF735FF214696
:1050500028460122FFF741FF3946BDE8F041FFF73E
:1050600066BF002070470FB407B504A951F8040BC0
:105070000191FBF7C1F803B05DF804EB04B0704791
:10508000038B13F0070305D10368002B0CBF00202E
:1050900003207047022B05D1408BB0FA80F0400905
:1050A00080007047012B05D10368002B0CBF002046
:1050B000052070470020704710B50C4600B111B9AB
:1050C0006FF0150010BD081D00F093F80028F9D10D
:1050D000A368032BF6D9F3E72DE9F0410D46074607
:1050E0001946281D90461E4600F094F8044638B133
:1050F0003346424629463846A446BDE8F04160475B
:10510000BDE8F08110B4EFF31182202484F31288FB
:10511000BFF36F8F416110BC0121FBF79FB838B519
:105120000C46054658B151B10B6843B14B6833B1D9
:105130001C22002100F00AFE2C61002038BD6FF017
:105140001500FBE770B505460E46FFF7B5FF041ED8
:1051500014DBEFF31182202383F31288BFF36F8FE8
:105160006B8B2C8B4FF6FF718B4204F0070407D139
:1051700082F31188BFF36F8F6FF00A04204670BD71
:10518000022C0CD101336B8382F31188BFF36F8F34
:105190000023224631462846FFF79EFFEEE7062C05
:1051A00014D8DFE804F004131313041A04000023D6
:1051B00033606B683BB9C5E90066ACB9022128468B
:1051C000FBF74CF8DAE71E606E60F6E782F31188B1
:1051D000BFF36F8F6FF00404D0E782F31188BFF341
:1051E0006F8F6FF08504C9E782F31188BFF36F8F6B
:1051F000C4E7034658B1426802F00302012A03D013
:10520000032A04D1026812B10020986070476FF041
:10521000150070474268816002F00302032A4FF0D4
:10522000000203460CBF006810465A607047704782
:10523000FEE7012801D1EFF30583FEF73FBA0146EF
:105240000068FFF7F6BF08B5FBF716FABDE808409F
:10525000FBF736BA00210120FFF7EBBF61B662B65B
:1052600080F31188BFF36F8F704772B6002383F30A
:105270001188BFF36F8FBFF34F8F30BF62B6BFF39C
:105280006F8F704772B6002383F31188BFF36F8F5F
:10529000BFF34F8F20BF80F31188BFF36F8F62B6CB
:1052A0007047202809D9B0F1004F08D80138B0FA6A
:1052B00080F0C0F11F0040007047082070473E207A
:1052C000704708B5FBF74CFE002008BD0369C9B262
:1052D0000C2201FB0233186C00F00700704770B518
:1052E000C9B20369EFF31185202484F31288BFF358
:1052F0006F8F0C2606FB0134246C14F0C00408D018
:10530000A24206D085F31188BFF36F8F4FF0FF30B4
:1053100070BD06FB013301221A6485F31188BFF3C7
:105320006F8F436803EBC1035B6898470020EFE78A
:105330008022FFF7D4BFF8B5069F0469C9B2EFF326
:105340001186202585F31288BFF36F8F0C2505FB8E
:105350000144256C05F0070CBCF1010F0CD127644A
:1053600086F31188BFF36F8FC4E90E23436853F8A7
:10537000313098470020F8BD05F0C005AF4286F3F4
:105380001188BFF36F8F0CBF6FF077004FF0FF30C5
:10539000F1E713B580240094FFF7CDFF02B010BDF4
:1053A00010B40069CBB21C2403FB0400002110BC24
:1053B00010470020FDF74AB8002000F0B4B91046AD
:1053C000FEF7C6BB43685B68D3F810350B6000205E
:1053D000704743685B6802EA010021EA0201C3F8F2
:1053E0000805C3F80C150020704743685B6800206F
:1053F000C3F80815704743685B680020C3F80C15B4
:10540000704743685A68D2F8043521EA03000B401C
:10541000C2F80805C2F80C350020704710B50369C2
:105420005868F8B1884219D19C6808685860A14250
:1054300000D19860002008602AB15A680A609A6812
:10544000596002B99960002010E0814206D10868D5
:10545000206098688142EDD19C60EBE704460068CB
:105460000028F2D1002AE8D16FF0150010BD37B541
:105470000446002201210320FBF774FB6368DD6909
:1054800001AA0021284600F02BF800280DDB019B23
:105490002A6819791868FCF7E3F9002805DB20462B
:1054A00003B0BDE83040FCF769B903B030BDCA07AE
:1054B0004368006905D4C1F34202012A04D0022ADC
:1054C0000AD06FF0150070471B684FF0CC72C3F81C
:1054D00024250160002070471B684FF0CD62F6E77D
:1054E00030B543681360057A446804EBC504A342F1
:1054F00002D36FF0010030BD5C798C4201D00833DB
:10550000F0E70020F7E770474368DB6B0020C2E953
:10551000003070472DE9F341BDF820C045680469AB
:10552000032906460CF0010C5ED8A87F012808BFAD
:105530005B084FF0010008BF52088840002B56D08E
:10554000934257D22768BA4211D0277987434BD16B
:105550009646BEF5004F42D2226067712A6895F8E0
:105560001E80C2F80C75C2F80485C2F808E562799D
:1055700023FA02F292B24FF0010E77688CF0010824
:10558000BF6A42EAC83227F81120C7B2BEF1000F45
:105590003FD12A6801F5AC7152F82120002A0FDBB7
:1055A000BCF1000F4AD0B3FA83F35B093BBB01A8FF
:1055B0000192FCF727FA019A01239340C0F80C35B9
:1055C000217921EA0701217139B3A37973BB102333
:1055D000012205F128012846FDF784FC22E001376D
:1055E000082F4FEA5E0EB4D16FF015001BE09E4607
:1055F0001A46C2E74FF0000E47F6FF72BDE701A85A
:105600000192FCF7FFF9019A01239340C0F8083595
:10561000D6E723793B432371D7E77068FDF7A0FCF9
:105620000123A371002002B0BDE8F0810023A37123
:10563000284600F059F90028FAD0C8E7003B18BF07
:105640000123B3E743681B68D3F88004C3F88004E0
:10565000704742681368D3F8100150B1D269002036
:1056600012780A70C3F81001D3F8102101221A60D1
:1056700070474FF0FF30704702680346D2F8580178
:1056800040B95B68DB0706D4D2F82001003818BFA8
:10569000012070470120704743681B68D3F804233A
:1056A000D20517D5D3F82021A2B1EFF31182202122
:1056B00081F31288BFF36F8FD3F8201131B100212D
:1056C000C3F82011D3F820110121D96082F3118889
:1056D000BFF36F8FD3F85831704700F150039B0030
:1056E0009BB203F1804303F5883300221A601B68E4
:1056F0007047FEF789BF08B5FAF7D2FEFAF7A6FFA2
:10570000BDE80840FEF780BF004700F099B9C0002F
:1057100000F1804000F5F830C0F81015C0F81425ED
:105720007047FDF715BBFCF70DBEF7B5019001A85A
:10573000DDE9084716461D46FCF71AFF019BB6F146
:10574000000C18BF4FF0010C00EB83000B1E18BFBC
:105750000123002D43EA4C0314BF4FF00C0C4FF013
:10576000000C002C43EA0C0314BF4FF4E06C4FF024
:10577000000C002F43EA0C03D0F8002714BF4FF4AD
:10578000403C4FF0000C43EA0C0322EA030301B152
:1057900009780EB13678760019430DB12D78AD0039
:1057A00031430CB12478240229430FB13F783F04E0
:1057B0000C433C43C0F8004703B0F0BD1FB50DF1EA
:1057C0000F03019300238DF80F1000931A4619461A
:1057D000FFF7ABFF05B05DF804FB38B5054608469A
:1057E0000C46FCF717FFB0B10846FCF707FF90B96D
:1057F0000846FCF7F7FE2A6801238340C2F8083305
:105800002A6803B202EB8303D3F8102522F00302C7
:10581000C3F8102538BD20460021BDE83840FFF709
:10582000CDBFFCF77DBFFFF7D8BF30B502240C72A7
:10583000CA6004680125C4F80055096879B112F0FE
:10584000040F0CBF82219221150748BF41F02001AF
:10585000D406046848BF21F08001C4F800139B00FF
:105860000168083312F0800006BF0122CA50C81830
:1058700030BD30B5A2F58075AD080124AC400C42B6
:1058800007D0815829B10021815082581A682243DB
:105890001A6030BD13B500230C4601934FF4887293
:1058A00001ABFFF7E6FF21464FF48A72FFF7E1FFF5
:1058B00021464FF48E72FFF7DCFF21464FF48272CF
:1058C000FFF7D7FF21464FF48472FFF7D2FF21463E
:1058D0004FF48672FFF7CDFF4FF48C722146FFF72D
:1058E000C8FF019802B010BDFDF748BA30B5D0F836
:1058F00004312BB10023C0F80431D0F80431012366
:1059000091F82F2022B30022C0F82421D0F824419E
:10591000C0F81C21D0F81C41C0F80821D0F808219B
:10592000002B79D0002281F82D2091F82F20002A19
:1059300037D14D6B8C6AA5421FBF0523C0F80025E7
:10594000C0F80035134683F0010381F82F3028E0BA
:10595000D0F8244114B1C0F824210EE0D0F81C2165
:105960006AB3C0F81C41D0F81C214A6B01324A636B
:10597000D0F8245145B1C0F82441D0F824210122A7
:10598000426181F82F20CBE78C6AA24204D24C6A94
:10599000A25CC0F81C25C3E791F82C201AB10123A2
:1059A000C361002030BD0A6A12F0400F4FF00102BF
:1059B00003D0C26181F82D20F3E74261B0E7D0F84F
:1059C0000841002CACD0C0F80821D0F80841D0F82C
:1059D0002441002CBFD14A6B8C6AA242A0D24C6AEF
:1059E000D0F81855A5544A6B8C6A0132651EAA423C
:1059F0004A6308D10A6A540602D40222C0F800227F
:105A0000012202628CE7A242FAD10A6A520687D5C5
:105A1000022381F82D30C4E70120C3E707B50190C8
:105A200001A8FDF77BFD019A01239340C0F80835DA
:105A300003B05DF804FB08B5FDF722FE002008BDA9
:105A400008B1FBF7D5BA7047704740B1C3685878C2
:105A500010F001001EBF1878B0FA80F040097047BE
:105A6000EFF31183202383F31288BFF36F8FFEE7D8
:105A700008B5FFF7F5FF10B5D0E9003433B90020C1
:105A8000E268537843F00103537010BD20469847F5
:105A90000028F4D00028B8BF4042E368FF28A8BF20
:105AA000FF201870ECE700F051B900F041B97047E1
:105AB0004169836843EA010212F003020FD1C26018
:105AC0000269013A01FB023382689A4201D900203F
:105AD0007047C2681A604269C3609B1AF4E76FF0AE
