:10000000403800209D14000027650000891400007E
:100010008914000089140000891400000000000009
:1000200000000000000000000000000009160000B1
:100030008914000000000000A515000089140000CC
:100040009117000091170000911700009117000010
:100050009117000091170000911700009117000000
:1000600091170000911700009117000091170000F0
:1000700091170000911700009117000091170000E0
:1000800091170000911700009117000091170000D0
:1000900091170000911700009117000091170000C0
:1000A00091170000911700009117000091170000B0
:1000B00091170000911700009117000091170000A0
:1000C0009117000091170000911700009117000090
:1000D0009117000091170000911700009117000080
:1000E0009117000091170000911700009117000070
:1000F0009117000091170000911700009117000060
:1001000053B94AB9002908BF00281CBF4FF0FF317E
:100110004FF0FF3000F00CB8ADF1080C6DE904CEE3
:1001200000F010F8DDF804E0DDE9022304B07047C8
:10013000704700BF034613F8012B002AFBD1181AA1
:10014000013870472DE9F04786468C460846089EE0
:10015000154674461946002B40F0C2808542B2FA1B
:1001600082F245D94AB1C2F1200300FA02FC2EFA0C
:1001700003F3954043EA0C0C94404FEA154EA8B2A5
:10018000BCFBFEF8230C0EFB18CC08FB00F943EA7D
:100190000C43994528D9EB1808F1FF3704D299454B
:1001A00002D9A8F102072B44A3EB0903A4B2B3FBC5
:1001B000FEFC0EFB1C330CFB00F044EA0344A0429F
:1001C00014D92C190CF1FF3304D2A04202D9ACF19E
:1001D00002032C44241A43EA07401EB1D4400023F2
:1001E00034607360BDE8F0874746DDE76346F1E7BA
:1001F00092BB431B01214FEA154EAFB2B3FBFEFC8D
:10020000200C0EFB1C330CFB07F840EA0343984517
:1002100062D9EB180CF1FF3004D2984502D9ACF149
:1002200002002B44A3EB0803A4B2B3FBFEFC0EFBBD
:100230001C330CFB07F744EA0344A7424ED92C19A0
:100240000CF1FF3304D2A74202D9ACF102032C44D3
:10025000E41B43EA0040C0E7C2F1200320FA03F1A7
:10026000954090402EFA03F303434FEA154EAFB288
:10027000B1FBFEFC0EFB1C10190C0CFB07F841EA4D
:100280000041884504FA02F422D969180CF1FF30C4
:1002900004D2884502D9ACF102002944A1EB08013F
:1002A0009BB2B1FBFEFC0EFB1C110CFB07F743EAF3
:1002B00001439F420ED9EB180CF1FF3104D29F424B
:1002C00002D9ACF102012B44DB1B41EA004192E769
:1002D0006046E3E76146F7E76046A3E76346B7E7B2
:1002E000834206D916B9002108467BE7C6E900E03B
:1002F000F9E7B3FA83F78FB9834201D3724508D87F
:10030000BEEB020460EB030301209C461EB90021F2
:1003100068E73846FAE7C6E9004CF8E7C7F1200C71
:10032000BB4022FA0CF41C432EFA0CF120FA0CF319
:10033000B84001434FEA14490EFA07F5B3FBF9F848
:100340001FFA84FE09FB18300B0C08FB0EFA43EA77
:1003500000439A4502FA07F240D9E31808F1FF304A
:1003600004D29A4502D9A8F102002344A3EB0A0360
:1003700089B2B3FBF9F809FB183308FB0EFE41EA1A
:1003800003418E452CD9611808F1FF3304D28E4504
:1003900002D9A8F10203214443EA0040A0FB0298DD
:1003A000A1EB0E014145CE46434602D306D14D4551
:1003B00004D2B9EB020E68EB04030138002EA6D07C
:1003C000B5EB0E0261EB030101FA0CFC22FA07F314
:1003D0004CEA0303F940C6E9003198E74046C5E717
:1003E0004346D9E710B5064C23782BB940F6CD40EB
:1003F000002107F082F9F7E741F69A10F8E700BF0D
:10040000E214002030B5184D184C85B02B782BB96C
:10041000002140F6CD4007F070F9F7E740F6CD42F5
:1004200000230DF10701204604F0BEF90028EDD1AC
:100430009DF8070000F062F9002200230DF107018A
:10044000204604F0B1F90028F2D000F0B5FA00F02F
:1004500079F90028DAD103A902A800F0BDFADDE994
:10046000020100F08FFBD1E7E2140020CC0600204F
:10047000D0B588B000F0A0F828B1384805F063FF87
:10048000002008B0D0BD00F01BFB08B13448F5E7F0
:1004900000F088FB04460028F8D1324807F083F8C2
:1004A000002600270123CDE90243CDE90667CDE907
:1004B00000442D4B2D4904944FF480622C4804F0E5
:1004C00043FB2C4B18600223CDE90243CDE90667BC
:1004D000CDE90044284B294904944FF48062284810
:1004E00004F032FB274B18600323CDE90243CDE92A
:1004F0000667CDE90044244B244904944FF48062FC
:10050000234804F021FB234B18600423CDE9024368
:10051000CDE90667CDE900441F4B204904944FF410
:1005200080621F4804F010FB1E4B18600523CDE9C4
:100530000243CDE90667CDE900441B4B1B490494F7
:100540004FF480621A4804F0FFFA1A4B18604FF01B
:10055000FF314FF0FF3007F0D0F891E7387F00000F
:10056000497F0000300C00200504000040260020D8
:10057000F8080020080C0020DD0500000022002003
:1005800078080020040C0020E5030000C01D0020B6
:10059000F8070020000C0020F36000008019002004
:1005A00078070020FC0B0020EB60000040150020C5
:1005B000F8060020F80B002008B5064806F041FFB9
:1005C00028B9054805F0BFFE4FF0FF3008BD0020F8
:1005D000FCE700BF307A00005B7F0000F7B51848E9
:1005E00006F02FFF28B9174803B0BDE8F04005F02A
:1005F000AABE0023144C124D144E8DF806302378F9
:100600002BB940F6CD40002107F077F8F7E70DF160
:1006100007030DF106024D21284605F06DFD60B976
:100620009DF907704FF0FF324FF0FF33074804F099
:100630001DF97775054804F091F94FF48040E2E721
:10064000307A00006F7F0000E2140020300C0020A0
:1006500070B5114B1C78BCB1104B00221D4613F82D
:10066000016B232E0ED001329442F8DC6FF00500AE
:1006700070BDEE5C212E0AD001339C42F9DC6FF094
:100680000600F5E71346F8E74FF0FF30F0E70260A9
:100690000B600020ECE700BFCD140020CE1400203A
:1006A000F7B50C4601682368124D043B481C2844EA
:1006B000591A05F03CFD042103460F4A0DEB0100D9
:1006C00005F0FEF901A8FFF735FD01AB00228242DB
:1006D00002D1002003B0F0BD276813F8016BA91800
:1006E000394411F8031CB14201D10132EFE76FF038
:1006F0000200EFE7CE140020827F0000064A137844
:10070000132B9FBF0549C8540133002094BF1370B9
:100710006FF00300704700BFCD140020CE140020FE
:10072000064A1378132B9FBF0549C8540133002094
:1007300094BF13706FF00300704700BFB81400201F
:10074000B91400202DE9F04186B004A903A8FFF7F1
:100750007FFF0446601C00F0A28003A8FFF778FF2B
:10076000821D044600F09B8003A8FFF771FFC31DA4
:10077000044600F0948003A8FFF792FF874D039B87
:10078000874E0446002840F0F580EA1852784D2A3A
:1007900033D0532A00F08780432A40F0D880814F1D
:1007A0004FF0FF324FF0FF33384604F05FF897F810
:1007B0001580384604F0D2F87B4ACDF800802B2310
:1007C000042105A805F07CF92320FFF7A9FF632089
:1007D000FFF7A6FF9DF81400FFF7A2FF9DF8150094
:1007E000FFF79EFF9DF81600FFF79AFF6F48042160
:1007F00005F09DFC6E4A03462AE00233E918EA5AE6
:100800008B788DF8170005A8ADF814208DF81630F8
:1008100007F02CF88046674F4FF0FF324FF0FF3360
:10082000384604F023F8C7F81480384604F096F8E8
:100830002320FFF775FF4520FFF772FF3020FFF7F9
:100840006FFF0221594805F072FC594A0346042102
:1008500002A805F035F99DF80800FFF761FF9DF843
:100860000900FFF75DFF9DF80A00FFF759FF2120FF
:10087000FFF756FFDDE9033796F80080FF1A0137CE
:10088000A8EB07084246E919284606F0CDFF3A468C
:10089000302105EB080086F8008006F0DFFF2046D7
:1008A00006B0BDE8F0810233E918EA5A8B788DF87A
:1008B000170005A8ADF814208DF8163006F0D6FF05
:1008C000642807462DD92320FFF72AFF4520FFF78C
:1008D00027FF6920FFF724FF0221344805F027FC99
:1008E000334A0346042102A805F0EAF89DF80800FF
:1008F000FFF716FF9DF80900FFF712FF9DF80A00A9
:10090000FFF70EFF2120FFF70BFFDDE9033796F815
:1009100000802248FF1A0137A8EB07084246E91970
:10092000B3E7DFF880804FF0FF324FF0FF334046EF
:1009300003F09CFF88F81470404604F00FF8232061
:10094000FFF7EEFE4520FFF7EBFE3920C2E7049CDF
:100950003778E41A01343F1B29193A46284606F035
:1009600063FF22463021E81937706FF0010406F06A
:1009700075FF94E7049C3778E41A01343F1B29196A
:100980003A46284606F050FF22463021E8193770D3
:100990006FF0020406F062FF81E700BFCE14002072
:1009A000CD140020300C0020877F0000BA140020F6
:1009B000827F00000C0C002010B5054C237833B169
:1009C00004481422302106F049FF0023237010BD93
:1009D000B8140020B9140020024B1B780B60024BA6
:1009E00003607047B8140020B9140020F7B50B78E5
:1009F0000C46062B45D8DFE803F0040A0C2B292D02
:100A00004200224803B0BDE8F04005F09CBC2048FD
:100A1000F8E72048204E214F05F095FC0025E368BB
:100A2000AB4205D81E4803B0BDE8F04003F0E6BF76
:100A3000A3687219D35C8DF80730002200230DF1F2
:100A40000701384603F05AFE0135E8E71548D9E7B3
:100A50001548D7E7154805F076FC154B18688368EC
:100A60000D49DC683C224FF47A73A047014650B12F
:100A7000104805F068FC4FF0FF3004F0F3FF0E481B
:100A8000C0E70E48BEE703B0F0BD00BF8E7F000098
:100A9000A47F0000BD7F0000E3140020CC060020EE
:100AA0004C0C0020D27F0000F07F00000D80000081
:100AB000C0040020278000004F80000068800000F4
:100AC00070B5244C206806F0BCFC30B9224805F013
:100AD0003AFC4FF0FF34204670BD204805F033FC4F
:100AE0001F4D20686FF085032B6083681B6833B946
:100AF0006FF0570129601B4805F025FCE9E71A490A
:100B000000229847014628600028F4D120688368B5
:100B10001649DE683C224FF47A73B04701462860DC
:100B200008B11348E8E72068836812495C684D22E1
:100B30004FF0FF33A0470446286010B101460E482D
:100B4000DAE70E4805F0FFFB012221460C4806F0CB
:100B500031FDC0E7C00400207F800000B2800000AB
:100B6000480C0020BD800000ED090000E3140020C7
:100B70002780000020060020E88000000981000096
:100B80004C0C002030B4064B04460A4618688368B3
:100B90005D682146AC464FF0FF3330BC604700BF74
:100BA000C004002008B5264806F04BFC28B92548AB
:100BB00005F0C9FB4FF0FF3008BD214806F041FCAD
:100BC0000028F4D01E4806F03CFC0028EFD01C485A
:100BD00006F037FC0028EAD0194806F032FC00285D
:100BE000E5D0174806F02DFC0028E0D0144806F0A8
:100BF00028FC0028DBD014484FF4803105F0A2FA1D
:100C000012484FF4803105F09DFA11484FF48031BD
:100C100005F098FA0F484FF4B01105F093FA0E481A
:100C20004FF4B01105F08EFA0C484FF4B01105F0F6
:100C300089FA0B484FF4B01105F084FA0020BBE7A5
:100C4000087A00001B810000A87C0000A07C000046
:100C5000987C0000907C0000887C0000807C000074
:100C6000787C000073B5194C194D2669A3681748A4
:100C70005B6801A9984720B93268019B53401B0566
:100C8000F4D521692B78096883F0010211F4005F23
:100C900008BF13462A70ABB1A368DB684FF400515C
:100CA0002046984729780B4A0B4B0C4800290CBF6B
:100CB0001146194605F047FB002143F2343006F097
:100CC0001CFDD3E7A3681B69E8E700BF087A0000B2
:100CD000E2140020418100003E81000045810000B7
:100CE000014B1B68184700BFC4040020014B18606B
:100CF000704700BFC404002030B585B004460D46DF
:100D000010220021684606F0A9FD02238DF802306A
:100D10002A46044B01932146684604F073FF05B050
:100D200030BD00BFE10C000080B505460E461746F9
:100D3000984604F0A1F9034606F008FEDFF8189083
:100D4000044649F80030424630463946A84754F830
:100D5000090000F011FC00BF080000002DE9F04779
:100D6000058B04462807904611D4022905F0070593
:100D700040F0CC80204605F0F3FA78B10138218BA1
:100D8000042811D8DFE800F0C2106D859500012914
:100D90000CBF45F0100545F02005258388F3118828
:100DA000BFF36F8FBDE8F08701F0070AAA4500F096
:100DB000A5800027B9463E46A368002B00F0BC8002
:100DC00041F00801218388F31188BFF36F8FA16878
:100DD000002900F0BA800D68002900F0B680D1F833
:100DE0000480334652462046C047002D76D02B68FB
:100DF00029461D46F0E701F007035A1F012A1BD8B8
:100E0000002221F00701062B276889B2C4E90022DD
:100E100009D13B4603E0628B013262831B68002BE1
:100E2000F9D141F002012183204605F099FA00280A
:100E30007AD041F0200176E0042B0AD121F007019D
:100E400089B22183204605F08BFA10B141F02001D0
:100E50002183218B01F0070AAA454FD00027B9460C
:100E6000AAE7236921F0070141F00601062DD3F816
:100E7000009021832DD1B9F1000F3FD041F008013E
:100E8000218388F31188BFF36F8F3A492046C84702
:100E900029E021F00701236941F0040189B2042D02
:100EA000D3F804902183E6D000273E464FF0040A91
:100EB00082E721F00701236941F0050189B2052D80
:100EC000D3F808902183D6D000273E464FF0050A7C
:100ED00072E700273E464FF0060A6DE72B4687E78C
:100EE000B9F1000FD1D1EFF31188202383F31288D9
:100EF000BFF36F8F238B23F008032383258BEA0630
:100F00002ED525F01003238305F007056669218B94
:100F1000002EBFF670AF00232768C4E9003321F02C
:100F2000070141F001012183218B01F0070AAA4545
:100F30004FF000097FF440AF002F9CD041F0080132
:100F4000218388F31188BFF36F8F002FC8D03D68CD
:100F5000394633465246204605F02EFA2F46F4E72E
:100F6000AB067FF51BAF25F02003238305F00705B3
:100F700000E700BFE5630000014B036000207047FD
:100F8000B07C000008B5044805F0DDF9BDE8084074
:100F9000024805F0D8B900BF5081000085810000EB
:100FA000014804F0B7BB00BFB07C000038B5044670
:100FB00018B90F4B0F485B6898476168B1F5683FF7
:100FC00010D0B1F5680F0DD00B4DA9420AD011F425
:100FD0006861206807D00146084806F08DFA0023B2
:100FE0002360656038BD142206F038FCF9E700BFC5
:100FF000C0050020B38100002C5F5CA95C110020BB
:1010000008B520B34368B3F5683F10D101220368E7
:10101000BFF35B8F53E8001F002903D143E8002092
:101020000028F7D1BFF35B8F0DD1002008BD094A1E
:1010300093420AD000684FF0FF324FF0FF3303F0C5
:1010400015FC0028F1D00448F0E70448EEE76FF4FF
:10105000E040EBE72C5F5CA9E98FFFFFEA8FFFFF21
:1010600008B5D8B14368B3F5683F10D100220368D2
:10107000BFF35B8F53E8001F012903D143E8002031
:101080000028F7D1BFF35B8F0BD1002008BD074AC2
:10109000934208D0006803F061FCF6E76FF4E0408B
:1010A000F4E70348F2E70348F0E700BF2C5F5CA9D0
:1010B000E98FFFFFEA8FFFFF10B5044618B91D4BFB
:1010C0001D485B6898476368B3F5683F2FD0B3F558
:1010D000680F2CD0194A934219D1236803BB1848D2
:1010E0004FF0FF324FF0FF33214603F0D9FA08B931
:1010F00023681BB90F4B13485B689847206814227C
:10110000002106F0ABFB4FF46863636008E0B3F5C1
:10111000683F0DD83A2B03D040F6BA629342DED135
:10112000206806F040FA636843F03A03636010BD3C
:10113000054AF3E7C0050020B38100002C5F5CA9DD
:101140005C110020D98100003A00003A08B5064938
:1011500006484023142206F0C1F9BDE808400449BE
:10116000044804F049BB00BF5C0C00205C11002067
:10117000B87C0000CC7C000030BFFFF7FDBF00BF93
:101180002DE9F0410B4EDFF8308006EB0807CC1B51
:10119000054632460949204606F038FBA01942466A
:1011A0000021083C06F05AFB2C6707F10800BDE857
:1011B000F08100BF0000000008000000707C00000B
:1011C000074A936893F90E10002907DB526993428E
:1011D0001FBF044A536843F080535360704700BFF9
:1011E000A012002000ED00E070B5264B15469A6A6B
:1011F00012F0100F9A6A14BF1124102412F0080F75
:101200009A6A18BF1224920706460AD5586B9A6A42
:10121000140634D519B19A6A22F080029A62132416
:1012200001E06FF01500174B9A6A12F0010F9A6AED
:1012300018BF142412F0200F9A6A18BF1524D20682
:1012400002D49B6A9B070AD50E4B5B68190506D52D
:10125000314600F057FA10B180F309880224094B97
:101260009A6A920642BF5A6A22F400525A629A6AF5
:1012700042F0FF029A6200232B70204670BD6FF08F
:101280001500CCE700ED00E0134B9A6A12F0007FE6
:101290009A6A14BF1E201D2012F0807F9A6A18BF20
:1012A0001F2012F4002F9A6A18BF212012F4802FF9
:1012B0009A6A18BF222012F4003F9A6A18BF2320AE
:1012C00012F4803F9A6A6FEA02426FEA12429A620F
:1012D00018BF2420704700BF00ED00E010B5194B87
:1012E0000246986A9C6A10F4805F14BF172016208B
:1012F00014F4006F9C6A18BF1820A40509D5986BD8
:10130000986A000404D51AB19A6A22F400429A62DB
:1013100019200C4B9A6A12F4806F9A6A18BF1A202F
:10132000D2050CD49B6A13F4005F18BF1C20054A39
:10133000936A43F47F43936200230B7010BD1B201C
:10134000F5E700BF00ED00E0F0B5484B5B688BB0FF
:101350000446C3F30803002585F31188BFF36F8F9C
:1013600002F07F40B0F17F4F11D102F00C0008284D
:101370000DD010074CBF0C4601250022033B8DF811
:101380000720032B05D8DFE803F0246367602C46B1
:10139000F3E700239DF80720CAB902AE04F1200745
:1013A00020686168324603C20834BC421646F7D151
:1013B000099A002D54D0C2F3080121B96FEA5222D4
:1013C0006FEA4222099202A9184605F0A2F80BB072
:1013D000F0BD264BDA6A9107DBD4DA6A002AD8DB43
:1013E000DA6A5200D5D55A69A16942F480725A610D
:1013F000BFF34F8FBFF36F8F5A6931F8021C22F48D
:1014000080725A61BFF34F8FBFF36F8F4DF6027238
:1014100091420AD09A6AD2B24AB10DF10702012173
:101420002046FFF7E1FE0346B4E72368B2E79A6A75
:1014300012F47F4F05D00DF107010120FFF74EFF99
:10144000F1E79B6AB3F5803FA3D3FFF71DFFEAE7FF
:101450000DF107020021E3E70DF107010020EDE7A0
:1014600022F4FF7222F00102ACE700BF00ED00E0C1
:10147000044B5A6942F010025A615A6922F008027C
:101480005A61704700ED00E0EFF30880EFF3098147
:1014900001B57246FFF758FF01BD00BF002080F381
:1014A0001488BFF36F8F0F4880F3088801F0ECFCBD
:1014B00000200D490860BFF34F8F00F02BF820206B
:1014C00080F3118809484FF40461401880F30988BB
:1014D000EFF314800221084380F31488BFF36F8F69
:1014E00000F0D8F84038002094ED00E0802A002079
:1014F0000749D1F890200023C2F3072218469342EF
:1015000000DB7047C1F89830C1F8A0000133F6E75E
:1015100000ED00E008B572B6002383F31388FFF7EF
:10152000E7FF144B4FF0FF32C3F88020C3F884204C
:10153000C3F88820C3F88C20C3F89020C3F8942007
:10154000C3F89820C3F89C20C3F88021C3F88421F5
:10155000C3F88821C3F88C21C3F89021C3F89421E3
:10156000C3F89821C3F89C2162B6BFF34F8FBFF335
:101570006F8F08BD00E100E0084B9B6883420BD1F0
:10158000EFF3058343B1064B5A6842F080525A602C
:101590005A6A22F400425A6203F074BDA01200207D
:1015A00000ED00E015498A684FF030001044EFF379
:1015B000098C80E8F01F202080F31288BFF36F8F22
:1015C0000F4F4FF000664A698A603E604FF070042A
:1015D000141920680B4C2060506F0023536780F370
:1015E000118804B5104600F0F1F8BDE8044002F19E
:1015F000300090E8F01F8CF309887047A01200209B
:1016000004ED00E0781100201EF0040F0CBFEFF392
:101610000880EFF30980816911F8021C0229FFD0CC
:1016200001B5724604F07BFF01BD00BF40B2002847
:1016300007DB044A4109012300F01F00834042F800
:101640002130704700E100E0054B420900F01F0027
:1016500053F82220012303FA00F01040704700BF26
:1016600000E100E040B20028A8BF00F1604001F1B5
:101670000101B8BF064B4FEA4111ACBF00F5614014
:1016800000F00F00C9B2B4BF195480F800137047BE
:1016900014ED00E00B4A08B50B4B22F07F029A6074
:1016A000BFF34F8FBFF36F8FD3F8882022F47002FF
:1016B000C3F8882002F030FF03F0F2FD00F05CF880
:1016C00002F06EFF0000000000ED00E042F8203C58
:1016D000009B42F81C3C0A49019B42F8183C029BC3
:1016E00042F8143C21F001014FF0807342F8043CB1
:1016F00042F8081C0023203A02654367704700BF88
:10170000290D0000094A0346906870B113F1160FC5
:10171000006E05D0A0F140029A4205D8834203D260
:10172000814228BF0020704700207047A01200208F
:1017300008B51546094A0A4B9060026F1A600E46BA
:1017400000F044F82C4686F309880020054B9847A2
:101750002046002100220023034C2047A012002035
:10176000781100203D650000290D0000014B10227A
:101770001A61704700ED00E0044800232021C218E0
:101780000133302B82F80013F9D1704700E100E0FB
:1017900008B5EFF30583064A103B02EBC30152F88C
:1017A000330049688847BDE80840FFF709BD00BF1E
:1017B0006C7A0000024B034A0348012100F076B81E
:1017C0000000042000000020DC7C0000026E054BBD
:1017D000403A1A60044A4021C3E901121846012127
:1017E00000F06EB87C11002000000B15084AC2F80A
:1017F00098000B6823F01F03034343F01003C2F863
:101800009C308B6843F00103C2F8A030704700BFE2
:1018100000ED00E02DE9F043DFF8608085B00E4672
:101820001F4604464FF00009B14523DA6068D8B17D
:101830003FB1411E08421BD11F2819D92368194204
:1018400016D12368019304F09CFEA368034303931D
:10185000D8F89050C5F30725D0B2013DA84207D86B
:1018600001A9FFF7C3FF421C09F101090C34DBE7B2
:101870006FF01502104605B0BDE8F08300ED00E002
:10188000044B0522C3F89420BFF34F8FBFF36F8F33
:10189000704700BF00ED00E0BFF35F8F024B0022F6
:1018A000C3F89420704700BF00ED00E010B5034C72
:1018B00001232278FFF7AEFF207010BD1F15002016
:1018C00008B50B4A00231278FFF7A4FF10F1160F9A
:1018D00007D0084A0021D2F89030C3F3072398427A
:1018E00000DB08BDC2F89800C2F8A0100130F2E792
:1018F0001F15002000ED00E02DE9F043534B544C40
:10190000D3F890302568C3F307239D4285B000F2D9
:101910009A80FFF7C1FF00200C2685421AD14D4C5A
:101920004D4F25706846FFF727FBDFF82081DFF871
:101930002C9106460025AE4213D12378434900205E
:10194000D1F89020C2F30722934276DBFFF798FF8D
:10195000002042E0616806FB0011FFF747FF0130FD
:10196000DBE7009800EB05114FEA051CCB683B4014
:10197000B3F5000F48D00AD8B3F5001F30D0B3F547
:10198000800F36D0B3F5801F10D00135D3E7B3F107
:10199000807F42D0B3F1007FF7D150F80C308868D7
:1019A0004A6804F0EEFD40F4802009E050F80C3065
:1019B00088684A6804F0E5FD40F0885040F4302023
:1019C000CDE901230390D8F890302078C3F30723A2
:1019D000013B98422AD96FF0150005B0BDE8F083AD
:1019E00050F80C3088684A6804F0CBFD40EA0900E2
:1019F000E6E750F80C3088684A6804F0C2FD40F011
:101A0000E06040F40030DBE750F80C3088684A684A
:101A100004F0B7FD40F08270D2E750F80C308868CF
:101A20004A6804F0AEFD40F08870C9E701A9FFF7ED
:101A3000DDFE237801332370A7E7C1F89830C1F8A1
:101A4000A00001337CE74FF0FF30C6E700ED00E077
:101A5000E87C00001F1500200000F0FF00000811C6
:101A600008B5024804F00CF8FEE700BF158200003C
:101A700008B5024B1B689847002008BD881100205C
:101A8000034B044A1860937843F002039370704745
:101A900088110020E804002008B50649064821F016
:101AA0000701C1F1005202F5802204F0F2FB002090
:101AB00008BD00BFA73800208C1100200E4A01236A
:101AC000C2F840354FF080424FF08051C2F878356F
:101AD000D1F83001082808D1D1F83411052904D8EB
:101AE0000648415C09B1C2F838364FF08043012204
:101AF000C3F880250020704700E001401A820000F2
:101B000020B1034B800143F001031847704700BF29
:101B1000707C0000084B70B5C31A0D4607499B1036
:101B2000044659430648402204F049FD2B4601462D
:101B30002046BDE870401847AC110020B76DDBB6F9
:101B4000E079000073B50C4C0C4A4023041B009351
:101B50000D460B460A49A41061430646094804F0A5
:101B60005AFD011E05DA30462B4602B0BDE8704032
:101B7000184702B070BD00BFAC11002081660000A4
:101B8000B76DDBB6E079000010B5EFF311842023C8
:101B900083F31288BFF36F8F074A136823F00201A3
:101BA000DB07116002D4012005F085FA84F3118867
:101BB000BFF36F8F10BD00BFFC110020002270B575
:101BC000012104461046FFF74DFD0F4801F0E6FAEB
:101BD0000E4B984215D101F0F1FA26690C493046B6
:101BE00004F00DFC00280BDB01253564246908494D
:101BF00004F11C0004F003FC002801DBE564002074
:101C000070BD6FF00400FBE70D1D00000000AD0B80
:101C10000C7D00001FB500220123CDE90223094AF3
:101C2000CDF800D06B46CDF804D004F022FD00289A
:101C300005DB4FF480420023684602F013FF05B035
:101C40005DF804FB9F66000030B4104B0C2202FBD1
:101C5000003301460020D3E90E529863EFF3118060
:101C6000202484F31288BFF36F8F1C6C04F0C0042F
:101C700044F002041C6480F31188BFF36F8F1DB120
:101C80002B46034830BC184730BC7047AC110020CD
:101C9000E079000010B4EFF31182202383F312885F
:101CA000BFF36F8F1748016841F002040460C80752
:101CB00007D482F31188BFF36F8F012010BC01F0AD
:101CC0008FBA4FF08041D1F80C04D1F80C14C90739
:101CD000EFD5EFF3118083F31288BFF36F8F0A49BA
:101CE0000B6C03F0C00343F002030B6480F3118814
:101CF000BFF36F8F82F31188BFF36F8F002010BC8A
:101D0000FFF7A2BFFC110020AC11002010B1012888
:101D100004D07047034B1B6C5B0701D1FFF794BFE6
:101D2000704700BFAC1100202DE9F0413849BFF3E6
:101D30005B8F0746012251E8003F41E80020002860
:101D4000F9D1BFF35B8F33B9324933484B60CB6075
:101D50008A6004F067FB7B1E012B2BD8012F07D173
:101D60004FF08043D3F81C3403F00303012B21D040
:101D700005F02CFC0546F8B9284B1B78E3B14FF071
:101D800080430222C3F808230646DFF894804FF010
:101D90008044D4F81824D4F81834D20315D503F0AD
:101DA0000303012B01D0012F0FD155B386F3118806
:101DB000BFF36F8FBDE8F081EFF31186202383F32B
:101DC0001288BFF36F8F0125DFE7ADB1304604F015
:101DD000C9FBD4F81835002BDBD1D4F80421002A34
:101DE000D7D0C4F80431D4F804310123C4F818352D
:101DF000C8F88031A360CCE70021212005F07DFCEC
:101E0000E7E74FF080430222C3F80423D2E700BF84
:101E1000A811002098110020C81100202F150020C3
:101E200000E100E008B5074805F00BFB38B10648B3
:101E3000FFF726FE0448FEF759FF002008BD6FF0AB
:101E40001200FBE71C7A00004D1E00000A2838B57E
:101E5000074D044604D1AB680D21DB69284698473D
:101E6000AB680348DB69E1B29847204638BD00BF44
:101E70001C7A0000F0B54068057B01F01F0444EABD
:101E80004514056987B0002D64D0B2F5001F00F13C
:101E9000100506D12146284605F08DF9002007B02F
:101EA000F0BD01AE0027B2F5800F0197776039D100
:101EB000B3F1007F14BF052304238DF80430002301
:101EC000CDE904630393836823FA01F111F0010162
:101ED0001AD1B2F1A07F17D104F01F03620903F5F4
:101EE000E0732AD0012A3BD11F4A52F82330DB0786
:101EF0000AD40DF1030632462146284601F058FC6B
:101F00001A4B98421CD0029603AA2146284601F09B
:101F100011FB174B984220D101222146284601F09F
:101F2000ABFCBBE7B3F1C06F05D0B3F1007F14BFCA
:101F300001230223C1E70323BFE74FF0A042D4E708
:101F40003146284601F092FC094B9842DBD06FF0F5
:101F50000B00A4E76FF08500A1E76FF015009EE786
:101F600051F82330FFDE00BF000300500400AD0B2A
:101F70000000AD0B38B545682B69B3B11035284664
:101F800001F064FC044680B90146284601F02AFCB1
:101F9000084B98420BD108492246284601F002FC22
:101FA000224605210620FFF75DFB002038BD6FF0BB
:101FB0000400FBE70000AD0BBD1F0000420970B537
:101FC000034602D0012A17D070BD0D4E3269516808
:101FD0000029F9D003F01F0301250C689D4000295A
:101FE000F2D08A682A4002D04B68304698472CB11C
:101FF000236821461C46F2E7024EE7E72346F8E74E
:10200000087A0000F47900002DE9F043466840F2B8
:102010000635D006337B87B002EA050554BFC2F30C
:102020004010032001F01F07B5F5837F144647EAEF
:1020300043178DF8030045D00FD8062D18D007D8C8
:10204000B5B1022D40D06FF0150007B0BDE8F083A8
:10205000B5F5807FF7D101250AE040F202229542D2
:1020600034D0B5F5407F33D0B5F5007FEBD10225F4
:102070000123220303FA01F12CD57368C3F8081574
:10208000326982BB07F01F037F0929D0012F77D166
:102090003E4A02EB830284F48033D2F80017C3F384
:1020A0000043C4F3404444EA430421F4E16144EAB8
:1020B000800421F0070144EA05230B43C2F80037EE
:1020C0000020C2E70725D3E70425D1E70525CFE7A0
:1020D0000325CDE7630344BF7368C3F80C15CFE74E
:1020E0004FF0A042D5E710360DF1020239463046D6
:1020F00001F05EFB14F4403F80460CD13946304677
:1021000005F057F8224B9845DAD19DF80210304679
:1021100001F0A6FBD4E701AB4FF0000903AA394652
:102120003046CDE90439CDE90199CDF80C9001F0A4
:1021300001FA174B984286D114F4003315D09DF85C
:1021400003308DF80E3084F48034C4F300444B46E1
:1021500003AA394630468DF80C508DF80D4001F039
:10216000A3FA0B4B9842CDD06DE7CDE9043303AA17
:102170000DF1030339463046039301F0DBF9F0E734
:1021800003F5E07352F82330FFDE00BF0003005078
:102190000000AD0B02780B69012A08D0022A08D092
:1021A0004AB9064A5A6203F1140002F027BC044AF5
:1021B000F8E7044AF6E7044AF4E700BF0000AD0B75
:1021C0000100AE0B0200AE0B0100AD0B2DE9F04F8C
:1021D000D0F81090D0F8048085B005460C4617461C
:1021E000029309F1040A4FF0FF324FF0FF335046DB
:1021F00002F038FC09F1140B00230022584602F0CB
:1022000031FC404601F022FF7B1E00260393B742BB
:1022100001D8002322E0039B217AB34283BF237DB0
:1022200083F00403C3F3800300230193029B009314
:10223000D4E90023284600F04DF8034670B94FF466
:1022400080420023584602F00DFC98B1404601F050
:102250000DFF284600F02CF86FF00403404602936F
:1022600001F004FF504602F0C9FB029B184605B07E
:10227000BDE8F08FD9F82430034A934204F10C04EE
:10228000EAD10136C3E700BF0000AD0B08B5034635
:102290004068826900F1080101F094FE034B984206
:1022A00014BF6FF00F00002008BD00BF0000AD0B91
:1022B00008B543681B68D3F80805D3F80C1501F07E
:1022C000DBFF034B984214BF6FF00F00002008BDE6
:1022D0000000AD0B2DE9F04186B00C4647689DF833
:1022E00034801546002112220DF106001E4605F02D
:1022F000B5FABDF830208DF8052004F0010314F084
:1023000008028DF804300296049519D1A10704D46F
:10231000B8F1000F12D19BB9202201A9384601F073
:10232000C1FE0A4B98420ED00B3398420CBF6FF09F
:102330000F006FF0040006B0BDE8F0814022ECE72A
:102340006FF08500F7E70020F5E700BF0000AD0B58
:10235000036803F01F025B09026004D0012B0348ED
:1023600018BF002070474FF0A04070470003005096
:102370002DE9F04FDFF89491DFF894A185B0154670
:10238000834600EB810140F2FF18594503D100203C
:1023900005B0BDE8F08FDBF800305E04C3F3C32264
:1023A000C3F3080400F1AC801B0E19F80270444519
:1023B00008BF4FF0FF34222B00F2A580DFE803F0C6
:1023C00012191F22252B22A3A3A3A33B68A3A3A317
:1023D000A3A3A3A3A3A36B818487A3A3A38A91949C
:1023E000979A9D00C5F80C45601C5ED10BF1040B5B
:1023F000CBE7C5F81445621CF8D000265FE0C5F8AD
:102400000845F1E7C5F81045F5E7631CC5F8084530
:10241000ECD0002604E0661CC5F80C45E6D0012689
:1024200003A80394FFF794FF039B012202FA03F32E
:10243000C0F80C3508E0C5F80845002FDBD1631C57
:10244000D4D0002632460627DBF80030019303F48F
:102450000040002818BF002203A8009218BF0126E0
:102460000394FFF775FF039C019B009A00EB840027
:10247000C3F3412CD0F800473B0243EA8C031343DB
:1024800004EA0A04234343EA4603C0F80037ADE7F1
:10249000C5F80C45D1E7C5F86045601CDBF8003095
:1024A000A4D0C3F30043002BB9D003A80394FFF7D3
:1024B0004FFF039B012606FA03F3C0F808353246A6
:1024C000C2E7C5F86445E8E7C5F86845E5E7C5F83B
:1024D0006C45E2E7C5F82445621C87D0002201263E
:1024E000B2E7C5F828457FE7C5F83045F4E7C5F8F9
:1024F0003445F1E7C5F83845EEE7C5F83C4573E7E4
:102500006FF0150044E76FF0850041E75882000046
:10251000F0F8FCFF036803F01F025B09026004D0BF
:10252000012B034818BF002070474FF0A0407047B0
:102530000003005073B5044640682369234A00F144
:10254000080101F073FB224B98423CD16568AE6BE9
:1025500001AA0021304604F033F9002805DB019B75
:10256000326819791868FFF703FF002631462B6897
:1025700001F5AC7253F82230002B0EDB01A8019359
:10258000FFF7C8FF019AD0F80435D34013F00103D8
:102590001CBF01238B403343DEB201310429E6D155
:1025A000002301206268916A00FA03F232420CBFF4
:1025B00001220022D20321F813200133042BF1D190
:1025C000002002B070BD6FF00F00FAE7E76700006F
:1025D0000000AD0BF7B50546002201210220FFF7F0
:1025E00041F80220FFF722F86A6811681369C1F800
:1025F0002435137D507D927D03431343C1F86C3520
:102600002C692368ABB16B683B4A1B683B49C3F834
:10261000042320680022083005F0C8F82368DD6331
:10262000206837490022683005F0C0F82368C3F8F5
:102630009C506E68D6E9004313F001033ED02F6929
:1026400007F10C0004F035FD2E4B984250D1387B39
:1026500004F10C0204F5907104F021FD387B012790
:1026600007FA00F000F032FD0823C4F80035B36A21
:10267000C4F844350023C4F84835A760D4F858316D
:10268000002BFBD00021C4F800156C68E66801AA95
:10269000304604F095F8002805DB019B3268197973
:1026A0001868FFF765FE63685B075FBF6B681B68B0
:1026B0000822C3F80025002003B0F0BD0822C4F8AA
:1026C0000025B26AC4F84425C4F848350123A36044
:1026D000D4F82031002BFBD00023C4F82031D4F8EB
:1026E00020310123E3604FF48073C4F80433C5E75D
:1026F0006FF00400E0E700BF14020A00CD6B000099
:10270000657000000000AD0B2DE9F84304464668F3
:10271000884604F05BFF6368A8B92E4A127892B12C
:102720001F684FF020096425606804F0FCF9002858
:102730003ED1012004F0B1FC013DF5D10021212062
:1027400004F0DBFFEFE721691F684FF02009EFF38A
:10275000118589F31288BFF36F8F606804F0E3F985
:1027600008B30B6853B1D3F8A4203AB1D3F8B4201E
:10277000002A03DAD7F84C25C3F8B42073685B0746
:1027800044BF4FF48003C7F80433B36A83F8008072
:10279000B16A0122204604F0D6F985F31188BFF30F
:1027A0006F8FBDE8F88385F31188BFF36F8FCEE795
:1027B000EFF311810D4689F31288BFF36F8F6068C4
:1027C00004F0B1F90028D9D181F31188BFF36F8FDC
:1027D000B4E700BF2F150020F7B5064605691C4673
:1027E000EFF31187202383F31288BFF36F8F2B68D9
:1027F000D3F8A4C0BCF1000F07D087F31188BFF352
:102800006F8F6FF00F0003B0F0BDC3F8A4202B68EA
:10281000C3F8A01001F06043B3F1005F2B6814D13E
:10282000C3F8A8102B68C3F8AC202946304604F042
:10283000ACF987F31188BFF36F8F73681B7D012B91
:1028400001D1631C06D10020DDE7C3F8B0C004F05D
:102850004BF9EAE70B480C4A2D6824EAE4744FF47C
:10286000004600210023C4FB0601FDF749FC683542
:1028700002460B4600200021CDE90001284602F067
:10288000B5FEE0E73F420F0040420F002DE9F74F51
:10289000D0F804A0D0F810B0DAF80050DBF800400F
:1028A00017469AF8082081468846002A40F0AB80F7
:1028B00094F86120002A40F0A98094F8622002F088
:1028C000FF01002A40F0A280581C4CD0042B4ADDA6
:1028D00050484FF4004C052293FBF2F64E4A002379
:1028E000C6FB0C01FDF70CFC0023C4E91601C4E98A
:1028F0001087C4E9123363652365DAF804205107B1
:1029000051D594F86060002E4DD0BE4228BF3E469F
:10291000DAF824103246404604F078FFBF1B4FF02F
:1029200000032DD194F86020921BD2B284F860206D
:10293000DAF824000BF1080B811904F075FFBFF3DE
:102940005B8F5BE8003F43F004034BE80032002A52
:10295000F7D1BFF35B8F45F30735002D06DA002072
:1029600003B0BDE8F08F00200146BDE76B092B499D
:1029700005F01F0501224033AA4041F82320EEE76D
:10298000D4E916210A430DD0C5F80831D5F808312D
:10299000D4E9162300200021CDE9000104F108004C
:1029A00002F024FEB0440023C5F83485C5F838751C
:1029B000C5F81031D5F81021C5F84C31D5F84C3197
:1029C000012384F86130DAF804305A0718D5EFF3A0
:1029D0001181202383F31288BFF36F8FD9F8102061
:1029E000936843F0020090609B0701BFD9F8043060
:1029F0001B680822C3F8002581F31188BFF36F8F8D
:102A000001232B60ABE76FF08500A9E76FF00F00A3
:102A1000A6E700BF3F420F0040420F0000E100E088
:102A200070B5012383400E4ABFF35B8FDC4352E84D
:102A3000001F01EA040542E80056002EF7D1BFF35B
:102A40005B8F4FF4803282400648C0F80823BFF302
:102A50005F8FBFF36F8F0B4214BF0120002070BD4A
:102A60002C1200200010014070B40E49D1E900344E
:102A7000D01AC31844F1000422F07F46C1E90034A3
:102A8000A6F50013B3F5400F09D2074B1B681A0ACD
:102A90001B069C19054B42F10005C3E9004570BCBB
:102AA00002F0BEBC480A002030120020500A00206C
:102AB00011B3BFF35B8F0123104A834052E800CF6C
:102AC0004CEA030C42E800C10029F7D1BFF35B8F49
:102AD0000B4A4FF480338340C2F80433094BBFF3F1
:102AE0005B8F1B68BFF35B8FC340DB0742BF064BA6
:102AF0004FF40032C3F80021704700BF2C120020B1
:102B0000001001402812002000E100E00D4B186881
:102B1000010A0006BFF35F8F0B4BD3F8043518187A
:102B200041F10001B3F5801F0AD2084BD3E900231D
:102B3000904271EB030303D210F1807041F1000168
:102B4000704700BF3012002000100140500A0020E2
:102B50002DE9F04F85B016461F469DF840A004466B
:102B6000FFF75EFF0190FFF7D1FFB04271EB070363
:102B700054D23E4B301A67EB0101984271F10001CB
:102B80004FD23B4B03EB0413D3E902239F4208BF10
:102B900096425ED037494FF4803804F1500508FA68
:102BA00004F8AD00C1F848832046ADB204F05DFAE8
:102BB00026F07F4B05F1804504F5A87305F58835AF
:102BC000DC464FF003090293029A2CF07F4341F850
:102BD0002230C1F84483D1F80435274A6FF002004F
:102BE000C01A604420F07F40904232D9286868B112
:102BF000D1F804350393A3EB0B0020F07F40B0F530
:102C0000000F26D9204604F030FA039BBAF1000FDA
:102C100007D109EB030C09F10109D5E7BAF1000F5F
:102C200009D06FF0150520460199FFF741FF2846AE
:102C300005B0BDE8F08F0123104ABFF35B8FA340BE
:102C400052E8000F184342E800010029F8D1BFF311
:102C50005B8F07490E98230101EB0412C8500F9BAC
:102C60005360C2E902670025DDE700BF0100800074
:102C7000380A002000100140FDFF7F0028120020CC
:102C80007FB51C4C1C4BC4F80833C4F848331B4BAD
:102C900000254FF0FF304FF0FF31C4F80855C3E96D
:102CA00002014FF48033C4F80433154B02264FF46D
:102CB00000320121C4F804631120C3F880212A46A0
:102CC000FEF7D0FC1120FEF7B1FC0E4A0123A360F1
:102CD000236013600C4B0D4A0093CDE9015500238E
:102CE0002846FFF735FF3046FFF71EF8284604B0A8
:102CF00070BD00BF0010014003000F00380A002023
:102D000000E100E02C120020692A0000FFFF7F0094
:102D10002DE9F7432F4CD4F8043399070BD5D4F899
:102D2000043143B12C4A0023C4F80431D4F80431EF
:102D3000136801331360D4F80433DA0329D5BFF3E1
:102D40005B8F264B53E8002F22F0010143E800106F
:102D50000028F7D1BFF35B8FD30702D4D4F84031FA
:102D6000BBB10025C4F84051D4F84031FFF7CEFE86
:102D7000EFF31182202383F31288BFF36F8F184B78
:102D8000D3E90267B042B94106D282F31188BFF39A
:102D90006F8F03B0BDE8F0834FF0FF384FF0FF397D
:102DA000C3E90289D3E900101D604FF48033C4F8F1
:102DB0004833C4F84051D4F8403182F31188BFF34E
:102DC0006F8F0029E5D0009032463B462846884761
:102DD000DFE700BF00100140301200202812002061
:102DE000380A002030B5431C124C85B005D084420F
:102DF000A8BF0446012CB8BF0124FFF787FE0E4B85
:102E00000C4DD3E90013401AB0F5000F10D2221870
:102E1000AA4228BF2A4652184FF0000007490091E5
:102E2000CDE9010043F10003FFF792FE05B030BD8C
:102E30002A46F0E7FFFF7F00480A0020692A0000C9
:102E400008B5FFF763FE024B1B68C01A08BD00BF40
:102E5000480A00204FF08053D3F83021082A06D1C9
:102E6000D3F83431052B02D8024AD05C70470020D9
:102E7000704700BF8E820000024AD2F80034002B57
:102E8000FBD0704700E0014010B54FF08053D3F8FD
:102E90003021082A4ED14FF080420021C2F80C1197
:102EA000C2F81011C2F8381502F54042D3F80414E4
:102EB000C2F82015D3F80814C2F82415D3F80C145E
:102EC000C2F82815D3F81014C2F82C15D3F814142E
:102ED000C2F83015D3F81814C2F83415D3F81C14FE
:102EE000C2F84015D3F82014C2F84415D3F82414BE
:102EF000C2F84815D3F82814C2F84C15D3F82C148E
:102F0000C2F85015D3F83014C2F85415D3F834145D
:102F1000C2F86015D3F83814C2F86415D3F83C141D
:102F2000C2F86815D3F84014C2F86C15D3F84434CD
:102F3000C2F87035FFF78EFF18B13A4B3A4AC3F822
:102F40008C26FFF787FF18B1384BFB22C3F81825F2
:102F5000FFF780FF70B14FF080414FF08053D1F800
:102F6000E42ED3F8583222F00F0203F00F0313437C
:102F7000C1F8E43EFFF76EFF20B12D4B4FF4007215
:102F8000C3F840264FF08053D3F83031082B1AD1C4
:102F90004FF08043D3F80024D20744BF6FF0010202
:102FA000C3F800244FF08053D3F83431052B02D8F6
:102FB000204AD35C3BB14FF01023D3F808224FF0E6
:102FC0008043C3F858254FF01023D3F80022002A7D
:102FD00003DBD3F80432002B22DA174901234FF028
:102FE0001020C1F804351224FFF746FFC0F8004254
:102FF000FFF742FFC0F80442FFF73EFF0023C1F88D
:103000000435FFF739FFBFF34F8F0C490C4BCA68EB
:1030100002F4E0621343CB60BFF34F8F00BFFDE7C4
:1030200010BD00BF005000404881030000F0004088
:10303000009002408882000000E0014000ED00E0C6
:103040000400FA0530B50468CCB1BFF35B8FB4FA65
:1030500084F3C3F11F03DBB201229A4024EA020287
:1030600050E8005FA54204D140E8002CBCF1000FFD
:10307000F6D1BFF35B8FE6D102480B7030BD02483A
:10308000FCE700BF0000AD0B0200AD0B10B50368FC
:10309000CB40DB0714D401238B400268BFF35B8F66
:1030A00043EA020150E8004F944204D140E8001C7A
:1030B000BCF1000FF6D1BFF35B8FEED1014810BD1C
:1030C0000148FCE70000AD0B0400AD0B014BC3F859
:1030D0000405704700F00140F7B50546F8B1012836
:1030E0001BD104224FF4807301464FF0804003440B
:1030F0000244C0F808130026012111601E608D42B1
:103100001B688DF8071008BF0DF1070642F2107416
:103110004FF0804745B1012D28D003B0F0BD0C22FF
:103120004FF482730221E0E7D7F8183403F48033B8
:103130003EB9002BF1D0012003F0AFFF013CF3D1E9
:10314000EBE7D7F8182402F003023260002BE4D03A
:103150009DF80700012803D103F09FFF013CD9D15E
:10316000012DDAD10C4B00225A71D6E7D7F80C3476
:1031700003F480333EB9002BF4D0012003F08DFF1F
:10318000013CF3D1EEE7D7F80C2402F001023270D3
:10319000002BDDD1E6E700BF34120020044B1A7982
:1031A00022B9012218609A8002487047024870478D
:1031B000341200200000AD0B0C00AD0B08B5074B1E
:1031C0001B682BB10020FEF73FFA08B9FEF72EFA74
:1031D0004FF080430022C3F8182508BD34120020A8
:1031E00010B510B1012843D010BD4FF08043D3F883
:1031F0001814D3F81824C80321D502F00303012BB7
:1032000004D013B10020FFF767FF00234FF0804286
:103210000220C2F8183508224FF4827303F180436C
:103220000021196002F180421C6801241460154AD3
:1032300012680AB34FF08043C3F80403D4E7D3F80D
:103240001424D107E1D5D3F81C249207DAD40D4A0F
:1032500012681AB10222C3F80423C5E7D3F8042187
:10326000002AFBD00022C3F80421D3F80431BBE7C5
:1032700000224FF48073D1E71A68002AFCD019604D
:103280001B68B1E734120020F8B54FF080431C4EA4
:10329000D3F804430125002704B9F8BDB4FA84F03B
:1032A000C0F11F00830003F580739BB203F18043DC
:1032B00005FA00F2196892B224EA02040029EBD060
:1032C0001F601B684FF08043012AC3F8082305D014
:1032D000022A08D03368C0B29847DDE77379002B23
:1032E000DAD17271F6E7D3F81814D3F818148907F5
:1032F000F0D1C3F81855C3F804239D60CCE700BF94
:1033000034120020036803F01F025B09026004D03E
:10331000012B034818BF002070474FF0A0407047B2
:1033200000030050034A430900F01F00D35C184417
:10333000C0B270479482000070B50546FFF7F2FFF7
:103340000C4C08300E4634F81030DA0508D5C3F3BB
:10335000432304EBC302284654F83330526898479D
:10336000A3682BB1E26831462846BDE87040184793
:1033700070BD00BF3005002008B5FFF7D3FF034B39
:10338000083033F81000400B08BD00BF30050020A6
:1033900008B5FFF7C7FF034B083033F81000C0F340
:1033A000400008BD3005002008B5FFF7BBFF034B08
:1033B000083033F81000C0F3401008BD300500207D
:1033C000034611F0010010B5CCB20DD1A207C4F331
:1033D000400012D5094AD2F820055860C2F82005ED
:1033E000003818BF012008E04FF0A041D1F8202597
:1033F0001A60C1F82025002AE8D010BD0003005053
:1034000010B5FFF78FFF124A083032F81030D90597
:103410001CD5C3F3432123F4F85322F8103002F1F2
:103420000E04002034F8023F13F4807F03D0C3F36E
:10343000432399420AD001303028F3D1002342F8C7
:1034400031300448BDE81040FFF720BE10BD00BF7A
:1034500030050020A8050020F0B5054600200446F0
:10346000012607468C420BD1114BD3F87C2132B197
:103470000022C3F87C21D3F87C3140F00040F0BD3D
:10348000E3B29B0003F580729B0806FA03F31D422A
:103490000BD002F1804202F5C042D2F800C0BCF16C
:1034A000000F02D01760126818430134DAE700BF3A
:1034B00000600040F7B506460846FFF733FF194F96
:1034C00000F108050C4637F81530DB0727D53046E4
:1034D00003F04BFE2046FFF767FF40B12046FFF7A1
:1034E0004BFF316800F5A270002341F820302046E0
:1034F000FFF786FF002301A827F815300194FFF796
:1035000001FF019B00EB8300074BD0F8002713401D
:1035100043F00203C0F80037044803B0F0BD04488C
:10352000FBE700BF30050020F0F8FCFF0000AD0B0A
:103530000400AD0B2DE9FF41164680460846FFF713
:10354000F1FE0D463168044609B32846FFF720FF17
:1035500018B12846FFF728FF10BB0023CDE9003340
:103560008DF80E308DF80F300DF10F020B46284606
:103570000DF10E0103F0A1FD474A04F1080132F8F4
:10358000113023F0020343F0010322F81130736875
:1035900063B328461F785968FFF7FAFE10B1D1B11E
:1035A0003E4826E03C4A04F1080032F8103023F08F
:1035B0002003DB04DB0C22F8103061B1032FEFD8BD
:1035C0007168496891F800C0D8F80010A7B90CF5E7
:1035D000A27C41F82C70304A04F1080132F8113015
:1035E00023F01C0343EA870322F81130B3684BBB76
:1035F0002B4804B0BDE8F08101EB8C0143EA4C3369
:10360000D1F810E52EF0030EC1F810E5D8F800103F
:1036100001EB8C0E43F02003DEF8101522F8103079
:1036200021F44F3121F44071CEF810152902DEF853
:10363000108501F47C5141EA074141EA0801CEF8C6
:103640001015C8E7D3E900672846FFF7D9FE002E1A
:10365000CED0114DD5E90023964203D19F4201D12E
:10366000002209E00F480DF10F01FFF7EBFC0C4BB6
:103670009842BED19DF80F2045F8326005EBC20399
:1036800008345F6035F8143043EA422343F4807312
:1036900025F81430ACE700BF300500200400AD0B66
:1036A0000000AD0BA80500202DE9F0430C4685B0C5
:1036B0008046204611461E46FFF734FE054629B3D4
:1036C0002046FFF765FE18B92046FFF76DFE18BBD0
:1036D000314F05F1080937F8193013F01C0F02D0EB
:1036E0004B78012B18D001238DF80F300023CDE942
:1036F00000134A1C8B1C20460DF10F0103F0DDFC6A
:1037000037F8193043F0030327F81930002E41D061
:103710002046FFF73DFE18B9204805B0BDE8F0830C
:1037200096F800C0D8F800301B4F0CF5A2720021AB
:1037300043F8221005F1080237F8121021F0200199
:10374000C904C90C27F8121075781DB3D8F8000009
:10375000B67800EB8C002D04D0F8103523F49913C3
:1037600023F4F853C0F81035230203F47C5305F416
:1037700040353605D0F810E52B4306F4801641EAB3
:103780004C31334341F0200143EA0E0327F8121075
:10379000C0F810350248C0E7300500200400AD0B2A
:1037A0000000AD0B014BC3E9021270473005002049
:1037B00010B508461446FFF7F7FD50B10846FFF76D
:1037C000B1FD054B083033F8103004485B0B237013
:1037D00010BD0348FCE700BF300500200000AD0B22
:1037E0000400AD0B70B5164D95F8804006462CBB15
:1037F0002146602205F1100004F030F830682E6F89
:1038000021468E420ED10023C0F87C31D0F87C31A5
:1038100040F30730FDF70AFF01230A4885F880309E
:10382000AB6770BDCBB29B0003F580727C2B08BFE9
:10383000845001F1010108BF8358E2E70248F0E734
:10384000300500200000AD0B0C00AD0B034B93F8CE
:103850008000003818BF0120704700BF30050020ED
:103860000148FFF713BC00BFA40500200148FFF783
:10387000E9BB00BFA405002073B503681646D3F862
:103880000423002AA8BF4FF000420546A8BFC3F892
:10389000042308460C46FFF787FD00B30846FFF7F0
:1038A00077FD0146D8B92046FFF766FD04B2A400B3
:1038B00004F58072034628688150296882582144A3
:1038C000D1F8102542F00102C1F810252EB1296867
:1038D000012202FA03F3C1F8043302B070BD20469E
:1038E000FFF720FD0F4B083033F81030C3F382038D
:1038F000042B12D0052B12D001A80194FFF702FD72
:10390000019AD0F81035D34003F00103991C2046EA
:1039100002B0BDE8704003F019BC0321F7E70221B3
:10392000F5E700BF300500202DE9F04F694BDFF8C7
:10393000A881D3F80403D8F87010C0B289B040F061
:103940000040FFF789FD051E2FDAC24600235AF812
:103950007C1F06A8CDE90633FFF732FD5F4B0193CC
:103960000DF118094FF0000B019A12F8013B01927A
:10397000DA0803F007031AF8022022FA03F3DA0741
:103980001CD409F10409BBF1000F14D0D8F8701051
:103990004FF00040FFF760FDD8F87C1006A8FFF755
:1039A0000FFD0028DAD125F000450124002D79D142
:1039B00009B0BDE8F08F4FF0010BD5E7484B5B44F1
:1039C0000293D9F800100029DBD0029B91FAA1F1F3
:1039D0001C78B1FA81F141EA44142046FFF7A2FCB9
:1039E0000830059438F81070C808BB0819F8002092
:1039F000039301F00701012303FA01F122EA010216
:103A000009F8002005A8FFF77DFC059A039B02F545
:103A1000E072C7F3820650F822205B073746C2F3F4
:103A2000014224D520463946D6B2FFF785FC05A8C9
:103A30000594FFF767FC059B03F5E07350F823300E
:103A4000C3F301439E4207D10021204603F07EFBD1
:103A50003146204603F07AFB05A80594FFF752FC97
:103A6000059B012202FA03F3C0F82035A9E7022AD8
:103A70000CD10321204603F069FB06F00503012B5E
:103A8000EAD139462046FFF757FCE5E702212046F8
:103A9000039203F05BFB032EF3D0039A032ADBD1DE
:103AA000022EEDE795FAA5F3B3FA83F304FA03F2D5
:103AB0009B0003F1804303F5C04325EA0205D3F8D8
:103AC0001005D3F81015C0F30520C1F30141FFF72D
:103AD00033FC6BE70060004030050020A48200004A
:103AE000A482000001460148FFF7ACBAB4050020EB
:103AF000036803F01F025B09026004D0012B034836
:103B000018BF002070474FF0A040704700030050DE
:103B100070B505790A4C14236B43E618E35833B9A2
:103B20000068022103F07EFB08B1012333721423E5
:103B300003FB0544207A023818BF012070BD00BF86
:103B40003C1200202DE9F3470B7F04466BBBDFF8E6
:103B5000D8900D1F01F1100601F10C08012755F84E
:103B600004AFBAF1FF3F1CD03378CDF804A001A810
:103B7000002B50D0FFF7BCFF019B07FA03F3C0F8FE
:103B8000083501A8CDF804A0FFF7B2FF019B00EBB8
:103B90008300D0F8003703EA090343F00303C0F8B9
:103BA0000037A84506F10106D9D191F81DC00D8B4B
:103BB0004F7D8E7D8A7EC87E2368BCF1000F0BD1BD
:103BC000D1E9008ED1E902C1C3F86085C3F864E58C
:103BD000C3F868C5C3F86C1542EA0022C3F80C7537
:103BE000C3F80465C3F80855C3F8102520680023FE
:103BF000C0F81031D0F81021C0F80831D0F80821F1
:103C0000C0F80C31D0F80C3140F3073002B0BDE8F9
:103C1000F047FDF70BBDFFF76BFF019B07FA03F3BE
:103C2000C0F80C35ADE700BFF0F8FCFF2DE9F0411E
:103C300090F804800D4C142606FB08F6A71997F897
:103C400008C0BCF1000F0ED1A2517B6019B10B7FEF
:103C50003B74FFF777FF142303FB08440448012358
:103C60002372BDE8F0810348FBE700BF3C1200204F
:103C70000000AD0B0C00AD0B70B40C46017926684A
:103C800015461A461A4B01EB810103EB81010368CB
:103C9000C3F82065A688C3F82465A668C3F828651C
:103CA000E668C3F82C6503682668C3F84065A688F3
:103CB000C3F84465A668C3F84865E468C3F84C4592
:103CC000046805F0010303EB5505C4F81455D40747
:103CD0000CD412F0020403D0002B14BF08240424D7
:103CE0000568C5F8004270BC03F067BA1024F7E716
:103CF0003C12002038B5036805790022C3F8002281
:103D00000368012204465A6071B12046FFF700FFA4
:103D10000028FAD023680022C3F80025054B14229E
:103D200002FB053301221A722046BDE83840FFF736
:103D3000EFBE00BF3C1200200149024803F09CBACC
:103D40003C12002000C001400149024803F094BA2F
:103D5000501200200010024030B500F01F0440094E
:103D600011D0012812D10C4800EB84001B02D0F8BE
:103D700000570A4C43EA82022C4042EA41012143A7
:103D8000C0F8001730BD4FF0A040EDE704F5E07437
:103D9000002353F82430FFDE00030050F0F8FCFF4E
:103DA000CB7B10B433B9D1E900420368C3F80845AE
:103DB000C3F80C2503688A68C3F8242503793C22DC
:103DC0005343054AD3582BB1006810BC40F3073069
:103DD000FDF72CBC10BC70476412002013B53B4BA0
:103DE00001930023C0F80431D0F80421C0F8243135
:103DF000D0F82421C0F81C31D0F81C21C0F80831BB
:103E0000D0F80821C0F800324B6381F82F3001232D
:103E1000036291F82D209A4218BF83604B6B8A6A27
:103E2000934204460ED24A6AD35CC0F81C350B6834
:103E300003B340F286238B608B682548C4F80433B3
:103E400002B010BD91F82C3013B10123C361EEE72D
:103E50000B6A13F0400F4FF0010316BFC3614361BB
:103E600081F82D30E3E7204603F03CFA28B1019BAE
:103E7000013B0193019B002BF5DC91F82F305BB9DE
:103E80001348019B002BDBDC0023C4F8003505231D
:103E90001048C4F80035D3E7D4F8C434C4F8C434A7
:103EA0008BB10D4A0B4813F0010F18BF104613F0E9
:103EB000020F02F1010218BF104613F0040F074B66
:103EC00018BF1846DDE70348DBE700BFA086010006
:103ED0000000AD0B0100AD0B0000AE0B0200AE0BFD
:103EE00013B5334B01930023C0F80431D0F80421FB
:103EF000C0F82431D0F82421C0F81C31D0F81C219E
:103F0000C0F80831D0F808214B6381F82F308B6A54
:103F1000012B044617D10B6A5B0614D40223C4F8A4
:103F200000320123236291F82D20022A18BF23605A
:103F30000B688BB140F286238B608B681D48C4F8F8
:103F4000043302B010BD0123E9E7204603F0CAF9AB
:103F500028B1019B013B0193019B002BF5DC91F8FB
:103F60002F305BB91348019B002BEADC0023C4F817
:103F7000003505231048C4F80035E2E7D4F8C4340E
:103F8000C4F8C4348BB10D4A0B4813F0010F18BFAD
:103F9000104613F0020F02F1010218BF104613F091
:103FA000040F074B18BF1846DDE70348DBE700BFE7
:103FB000A08601000000AD0B0100AD0B0000AE0BB0
:103FC0000200AE0B2DE9F84390F804901C4E074612
:103FD0003C2000FB09F035180C4695F82E1061BB0B
:103FE000A96032506B6085F82D1085F8311085F886
:103FF0003010CCB1637B85F8383094F80E8085F8AA
:104000003980B8F1000F0BD1206806230322414606
:10401000FFF7A2FE6068062303224146FFF79CFEDD
:1040200021463846FFF7BCFE3C2303FB09660548E2
:10403000012386F82E30BDE8F8830348FBE700BF74
:10404000641200200000AD0B0C00AD0B0368027978
:104050000521C3F80015044B3C2101FB0233022269
:1040600083F82E20704700BF6412002003680B4ABB
:104070000179C3F80823D3F8002222F00302C3F821
:1040800000220022C3F80025054B3C2000FB013331
:10409000012183F82E1083F83020704786420400F7
:1040A000641200202DE9F047314F0479D0F80090D8
:1040B0003C2303FB04730D4693F82D30012B9446EB
:1040C00004D10B78012B06D12A4811E0022B02D132
:1040D0000B78012BF8D13C26274BC9F8083306FB97
:1040E000047696F830302BB1B3682448C9F804330D
:1040F000BDE8F0878CF00403C3F3800386F830300A
:10410000C6F820C0A846B8E80F0006F10C0EAEE8CD
:104110000F00D8F80030CEF800306B68B362EB685F
:1041200073626B78C9F888352B78C4EB041A012BBD
:1041300007EB8A0A17D09BB9CCF3401C3C2303FB46
:1041400004735146484683F82CC0FFF747FE3C23D2
:104150005C433A193B59002BCAD182F83030C7E78B
:104160004FF0010CEAE751464846FFF7B9FEEEE78B
:10417000641200200500AD0B864204000B00AD0B5D
:10418000F0B5324C324887B0214603F0ABF8002836
:1041900059D194F82F70FFB9227B931E012B1BD8A5
:1041A000606AA369984217D1E36963626369A36295
:1041B000236A274884F82D70C3F34013032A84F838
:1041C0002C3004D107B0BDE8F040FFF707BE07B0C0
:1041D000BDE8F040FFF784BE1E4E0FCE01AD0FC507
:1041E00033682B6047B31A4AD2F8C434C2F8C434D7
:1041F00013F0020106D001238DF80030002384F86B
:10420000303007E013F0040209D002238DF80030AB
:1042100084F83010D4E900316846984713E013F071
:10422000010305D003238DF8003084F83020F1E736
:1042300004228DF80020E2E7236A8DF800705B0706
:1042400084F83070E6D507B0F0BD00BF64120020DE
:104250000030004070120020036803F01F025B0969
:10426000026004D0012B034818BF002070474FF0B4
:10427000A040704700030050F7B5064603F0CAF8A7
:10428000084603F0C7F801A80196FFF7E5FF019B78
:104290002E4D00EB83000C46D0F80037019440F21D
:1042A0000D612B400B43C0F8003701A8FFF7D4FF86
:1042B000019B00EB83000127D0F800372B400B4314
:1042C000C0F80037042002F0E8FE092501A8019497
:1042D000FFF7C2FF019AD0F81035D340DB0715D4A1
:1042E00001A80196FFF7B8FF019B07FA03F3C0F896
:1042F0000C35042002F0D1FE304603F08BF8013D6E
:10430000042002F0CAFE15F0FF05DFD101A80194D8
:10431000FFF7A2FF019A01239340C0F80C35042057
:1043200002F0BBFE204603F075F8042002F0B5FE53
:1043300001A80194FFF790FF019AD0F810350448C6
:10434000D34003F00103C01A03B0F0BDF0F8FCFF46
:104350000100AD0B08B5144BA8220021184603F04C
:104360007DFA0322026111494261114A8161C261F1
:104370004FF480620262002282624262C26201667F
:104380000C4941661021816603460267C266426796
:10439000BFF35F8F084911F8010D98540132102ABC
:1043A000F9D1BFF35F8F08BD10040020A682000082
:1043B0001000002000000020BF82000010B4BFF3F6
:1043C0005F8F0B4A0B490023C85C12F8014D8442F1
:1043D00009D10133102BF7D10023BFF35F8F23B135
:1043E00010BCFFF7B7BF0123F7E710BC704700BF51
:1043F000BF8200001004002038B5EFF311852023A0
:1044000083F31288BFF36F8F064B9C6803F02CF880
:1044100085F31188BFF36F8F2046BDE83840FDF764
:10442000ABB800BFA012002038B5094B53F82040AC
:10443000013053F82050A54200D838BD636823B13D
:10444000204603F014F80834F5E723689847FAE7A4
:10445000987E000070B52B4B2B4C2C4D012286B062
:1044600003201A70FFF7E0FFFCF78CFD03F01BF848
:104470000420FFF7D9FF2646AE4204F1300410D3E2
:1044800000F000FD204C224EAC4226D300F00EFD81
:10449000FBF7EEFF1F4A137B23F00103137306B0F3
:1044A00070BD54F80C3C059354F8103C049354F838
:1044B000143C039354F8183C029354F81C3C0193A9
:1044C00054F8203C009354E90A2354E90C0100F00D
:1044D000EFFA54F8303C5E65CDE7D4E90A23B3F136
:1044E000FF3F08BFB2F1FF3F05D052EA0301206849
:1044F00003D100F09BFD3034C6E73146183000F0A0
:1045000019FFF8E72F150020EC7B0000EC7B000082
:10451000C7760000D80A002008B50348034A0021E6
:10452000121A02F0BCFF08BDF80600203415002066
:1045300070B5002386B00122CDE90423134E144D3B
:1045400001930F22CDE902321249142303FB0055D7
:1045500006EBC01604464FF4C07000FB04110E4B6E
:1045600000954FF4A072304600F0A2FA737B0B4A1C
:10457000EE6023F0040373734FF4046304FB03330E
:1045800013442C746B6006B070BD00BF580A002045
:10459000A0120020C032002067750000802A002091
:1045A000BFB50020FFF740FF2C4B83F308882C4D4C
:1045B0002C4E6B692C4F43F400736B610024E02395
:1045C00085F82230EC772C766C76AC7685F8204036
:1045D0006B6A43F4E0236B6285F82340FCF748FFE5
:1045E000FDF7C4F84FF0FF33AB62EB62FDF784F9DF
:1045F000FDF7E0F81D4BB36040F201129A81C3E968
:104600001844DC6602F01CFF0120FFF70DFF0220BA
:10461000174DFFF709FF00F07DFC164B7561059300
:10462000012315490094CDE903434FF480623B46D2
:10463000CDE90144284600F03BFA6A7B064622F0A9
:10464000040228466A7303F001F82046FFF770FF62
:104650003A4631462846FDF76BF800BFC0320020CD
:1046600000ED00E0A012002055440000580B00208F
:10467000D80A0020C08200004034002038B5064C23
:10468000064D0020AC4200D338BD204602F00CFF9E
:104690000028F9DB1C34F5E77B0600207B060020B0
:1046A00073B50C46EFF31181202585F31288BFF313
:1046B0006F8FC5685DB125602B68C3608369013366
:1046C0008361002081F31188BFF36F8F11E052EAFC
:1046D000030603D125606FF00B00F3E7CDE900235B
:1046E0000246083000F02EFB18B9034B9B685B694B
:1046F000236002B070BD00BFA01200202DE9F3417D
:1047000004460E4600F10807EFF31188202181F3DB
:104710001288BFF36F8F006AE16888422CD2256847
:10472000AC4216D0ADB1284602F028FF05F11800C2
:1047300003F015F8A26868693146002403F066F8B2
:10474000AC67284602F082FF4146384600F074FB11
:1047500020E0A268E069314603F058F8E369A268F6
:1047600013446269E361934204BF2369E361236AEE
:10477000013323620024E7E752EA03010ED009491E
:10478000896838464E61CDE900234146224600F053
:10479000D9FA0446204602B0BDE8F0816FF0220449
:1047A000D2E700BFA0120020F7B5044604F10807C5
:1047B0000846EFF31186202181F31288BFF36F8F33
:1047C000216A002939D0A268A16903F01FF8A36902
:1047D000A268256813446269A361934204BF2369F8
:1047E000A361236AAC4203F1FF33236233D028462E
:1047F000002D31D002F0C2FE05F1180002F0AFFF2B
:10480000A2686969E06903F001F8E369A2681344EA
:104810006269E361934204BF2369E361236A013360
:10482000236200242846AC6702F010FF3846314668
:1048300000F002FB204603B0F0BD52EA030110D0A5
:10484000094989684861CDE9002331462246384646
:1048500000F078FAEFE7002086F31188BFF36F8F3E
:10486000E9E76FF02200F7E7A01200202DE9F341FD
:10487000044617461E46EFF31188202383F312885F
:10488000BFF36F8FC368334A7BB1806891688842F9
:1048900019D057EA060318D188F31188BFF36F8F38
:1048A0006FF00F0002B0BDE8F081916891F90E1031
:1048B00021610133E3609368A36088F31188BFF33B
:1048C0006F8F0020EEE72169F2E791F90E1090F961
:1048D0000E309942A8BF19466FF07E029142B8BFD0
:1048E00011468B422DDD02F056FE0546CDE90076DD
:1048F00019482246414600F025FA0028E1D0EFF39E
:104900001186202383F31288BFF36F8FA068D0B184
:10491000236821699C420AD04BB193F90E30994229
:10492000A8BF19466FF07E039942B8BF194602F03E
:1049300032FE40B10848314600F07EFA6FF00A00BE
:10494000B0E70025D2E7002DF4D186F31188BFF33C
:104950006F8FF3E7A012002030150020F8B58368B0
:104960000546002B3FD0234A926893423ED1C3684C
:10497000012B03D9013BC3600020F8BDEFF3118781
:10498000202383F31288BFF36F8F0169806802F0E0
:1049900002FE2C68A54207D10023C5E9023387F344
:1049A0001188BFF36F8FE7E7002CF5D0D4E9003210
:1049B00013605A60637B002623F002036373C4E92B
:1049C0000066A66004F1180002F0C9FEAC6094F91C
:1049D0000E302B612046A66702F038FE06483946A5
:1049E00000F02AFAC8E76FF01500C6E74FF0FF3075
:1049F000C3E700BFA01200203015002070B5EFF310
:104A00001186202383F31288BFF36F8F0468A042BE
:104A10001AD0CCB1D4E9003213605A60637B002510
:104A200023F002036373C4E90055A56004F1180084
:104A300002F095FE2046A56702F008FE31460848C0
:104A4000BDE8704000F0F8B9D0E902329A4218BFD0
:104A50000133836086F31188BFF36F8F70BD00BF91
:104A60003015002013B5EFF31181202484F3128850
:104A7000BFF36F8F846844B1013C846081F3118877
:104A8000BFF36F8F002002B010BD52EA030406D1BD
:104A900081F31188BFF36F8F6FF00F00F3E7CDE95B
:104AA00000230246014800F04DF9ECE730150020E4
:104AB0002DE9F043073285B022F007020E461F466B
:104AC0001099017300F158037F32C0E91633044690
:104AD000002322F03F020421836041733F2A0F9894
:104AE000A073C4E90633E37306F14009A2F140085C
:104AF00005D883F31188BFF36F8F084602DFB5181E
:104B000029462046FCF73CFB07300E9B20F00700AF
:104B1000A066C4E9189802930D9B01932D1A0C9B73
:104B200000932A463B4631462046FCF7CFFD002342
:104B30006365044B9B6803B1DB6EE366284605B0F2
:104B4000BDE8F083A0120020F0B587B000250595E0
:104B5000109D04950F9D03950E9D0295DDE912763B
:104B60000D9D01950C9D00950446FFF7A1FFB6F140
:104B7000FF3F08BFB7F1FF3F05D056EA070305D155
:104B8000204600F053FA204607B0F0BD03493A46EC
:104B9000334604F1180000F0CDFBF4E7C7760000BF
:104BA000094A93686FF00A019967084958674B688A
:104BB00043F080534B60002383F31188BFF36F8F62
:104BC0009368986F704700BFA012002000ED00E0CE
:104BD00070B590F90D20437B002A39DBD90637D117
:104BE0008269002A34D11D4C63F07F03224643734F
:104BF00052F8183F93422CD1E169C0E900210860C6
:104C0000E06111E09942F8D01B68002BF5D090F9D3
:104C10000E5093F90E60B542F4D0AE42F2DD596801
:104C2000C0E9003108605860A569954200D005B917
:104C3000E568A3685A7BD20604D1DA897F2A01D9B4
:104C4000AA6942B1AB4202D0284600F0D1FA6561B0
:104C500070BDE169D9E76361FAE700BFA0120020E7
:104C600038B590F90D20437B002A014604DA03F0A1
:104C70007F03437302F0B0FC0D4D2A46AB6852F837
:104C8000184F944200D004B9EC688B4207D05A7B8D
:104C9000D20604D1DA897F2A01D9A2692AB1A342B6
:104CA00002D0204600F0A4FA23466B6138BD00BF55
:104CB000A012002070B590F90D20437B002A014618
:104CC00004DA03F07F03437302F086FC4B7B1C4C39
:104CD00063F07F0322464B7352F8183FE06993421A
:104CE00007D1C1E900200160E16111E09842F8D0EC
:104CF0001B68002BF5D091F90E5093F90E60B54268
:104D0000F4D0AE42F2DD5868C1E90030016059606C
:104D1000A569A368954200D005B9E5688B4207D024
:104D20005A7BD20604D1DA897F2A01D9AA692AB12D
:104D3000AB4202D0284600F05BFA2B46636170BD9F
:104D4000A0120020F8B5124B0C461146114A986883
:104D50001060DDE90676EFF31182202282F31288DB
:104D6000BFF36F8F9D68284602F048FCB6F1FF3F05
:104D700008BFB7F1FF3F06D007493A46334605F171
:104D8000180000F0D7FA2046BDE8F840FFF708BF4A
:104D9000A0120020C0120020C7760000F8B504461B
:104DA000EFF31186202383F31288BFF36F8F437BC9
:104DB000DA0649B217D18269AAB903F07F034373B7
:104DC00002F00AFC1B4D437B817363F07F032A468C
:104DD000437352F8183F93422AD1E869C4E900208E
:104DE0000460EC6116E0A173002086F31188BFF324
:104DF0006F8FF8BD8342F1D01B68002BEED093F982
:104E00000E70B942F6D08F42F4DD5968C4E9003122
:104E10000C605C60AC69944200D004B9EC68AB688B
:104E20009C4202D0204600F0E3F96C610120DCE7EF
:104E3000E869E2E7A012002049B9EFF3058030B934
:104E4000054B5A699B689A4201D0FFF7A9BE81F3CE
:104E50001188BFF36F8F7047A0120020034648B936
:104E6000EFF3058232B9064A51699268914201D046
:104E7000FFF796BE83F31188BFF36F8F704700BFB3
:104E8000A0120020EFF31181202383F31288BFF3D7
:104E90006F8F054B9A68D37B013BD37381F31188E5
:104EA000BFF36F8F704700BFA012002070B5EFF303
:104EB0001186202383F31288BFF36F8F144DAB68E4
:104EC000DA7B0132DA732A4652F8184F944200D046
:104ED00004B9EC685A7BD20604D1DA897F2A01D959
:104EE000A2692AB1A34202D0204600F081F92346EC
:104EF0006B6186F31188BFF36F8FEFF3118020236E
:104F000083F31288BFF36F8FBDE87040FFF7A6BF31
:104F1000A0120020024B03F11802C3E906227047D9
:104F2000A012002070B5EFF31186202383F31288BE
:104F3000BFF36F8F1B4CA168E0690B68814214BFFF
:104F40001A46002249680B605960A368E1692AB9D2
:104F5000154AC3E900210B60E3610CE093F90E00F0
:104F600092F90E50A84218D0854216DD5168C3E967
:104F700000210B605360A5690B4B9D4200D005B921
:104F8000E568A3689D4202D0284600F031F96561CA
:104F90003046BDE87040FFF703BE8A42D8D01268A1
:104FA000D5E700BFA0120020B812002050EA01038C
:104FB0002DE9F04105460E4604D1FFF7B3FF00206E
:104FC000BDE8F081831C71F1FF3324DB02F0E8FBC4
:104FD0004419EFF31188202383F31288BFF36F8FF6
:104FE0000F4F104BB8681860FFF73AFEB8680E49CB
:104FF0002A463346183000F09DF9BA68537B43F0D7
:10500000040353734046FFF7CBFD02F0C9FB201A9F
:1050100020EAE070D4E76FF00104241AD9E700BF5A
:10502000A0120020C0120020C776000038B5044648
:10503000183002F094FBEFF31185202383F31288DC
:10504000BFF36F8F637B5A0704D485F31188BFF3D6
:105050006F8F38BD23F0040363732046FFF7B8FD5C
:10506000EFF30583002BF0D129460248BDE8384014
:10507000FFF7E2BE30150020014B9868704700BF73
:10508000A01200202DE9F8430446EFF311872023F6
:1050900083F31288BFF36F8F067B16F001060DD0E5
:1050A00087F31188BFF36F8F002383F31188BFF359
:1050B0006F8F0423184602DFBDE8F883437B1A078D
:1050C00004D587F31188BFF36F8FF5E7D90943F053
:1050D000080250D14273A36813B1204602F084FA4B
:1050E00004F1180002F03BFBA56D04F15808A84537
:1050F00011D04FF0000975B1284602F075FA05F19C
:10510000180002F02CFBC5F878902846FFF760FDE8
:10511000A56DA845EFD11C4DAB689C4204D1EFF3BF
:105120000586003E18BF0126D5F81880174A90451D
:1051300002D0B8F1000F01D1D5F80C80434502D060
:10514000404600F055F8C5F8148046B1104BAB60EE
:1051500040F201129A810022C3E91822DA66AB6894
:105160009C42AED1EFF30583002BAAD13846BDE8AF
:10517000F843FFF715BD03F07F0343F008034373C3
:1051800002F02AFAA7E700BFA0120020B812002000
:10519000580B0020044BC01A044BC0105843044B5A
:1051A00001221A54704700BFD80B0020ABAAAAAA4C
:1051B00030150020C3897F2B12D80A4B1B6863B1BE
:1051C000094B90F90E201B689A4209DB437BDB06F2
:1051D00006D1064BC31A18BF012303F00100704724
:1051E0000023FAE7C8120020C4120020580A002049
:1051F00070B50E4B0E4C1E7C06EB460304EBC3044D
:105200000546204602F0ABFA0A4B002228469A5582
:10521000FFF7D0FF48B1084B08491A68013A204609
:10522000D317BDE8704000F085B870BDA012002013
:10523000D80B002030150020C81200209551000026
:1052400038B5EFF31185202383F31288BFF36F8FF6
:10525000104B114A9C681068A04206D1FFF7C8FFA6
:1052600085F31188BFF36F8F38BD00211B7C11605F
:105270000A4AD35C002BF3D02046FFF79BFF00289F
:10528000EED0637BDB0602D12046FFF713FD2046FC
:10529000E4E700BFA0120020C0120020301500205B
:1052A0000748084A084908B5121A02F0FAF80748F0
:1052B000074A0849BDE80840121A02F0F2B800BFD8
:1052C000C0040020F4060020DC820000B8040020A6
:1052D000C0040020D4820000024B1868984208BF26
:1052E00000207047B8050020034B1B680BB9FDF781
:1052F000A7BD0020704700BFCC12002030B570B1B0
:105300000B4B5B6898420AD0036843B1D3E9042190
:10531000D0E90445121941EB0501C3E90421D0E9A4
:10532000003213605A600023C0E9003330BD00BF73
:10533000B8050020B3F1FF3F08BFB2F1FF3FF8B559
:1053400004461D4616465AD08160EFF3118720238C
:1053500083F31288BFF36F8F013275F1FF3321DAC7
:105360002C49D1E900206FF001039B1A4FF0FF3266
:1053700062EB00009E1B60EB0500012E70F1000344
:1053800001DA01260020C4E90460FFF7A5FF224EE0
:1053900084467068BCF1000F0DD1C4E90060046060
:1053A00074601CE0FFF7A0FF013645F100053618D8
:1053B00045EBE070E7E7DCE90425D4E904319342EA
:1053C00071EB050E1CDAD21ADCF8043065EB01052E
:1053D000CCE90425C4E900C31C60CCF80440FFF705
:1053E0007BFF844207D10D4B1C6824B902F09EF963
:1053F0002146FDF7F7FC87F31188BFF36F8FF8BDE7
:105400009B1A61EB05018445C4E90431C5D0DCF881
:1054100000C0BFE7F00B0020B8050020CC12002030
:105420002DE9F047EFF31185202383F31288BFF3B2
:105430006F8FDFF8A090DFF8A080C9F80000FFF7B9
:105440004BFF00260027D9F80030D8E900ECD91727
:1054500050B1D0E90442A34271EB020A1ADAE41A0D
:1054600062EB0102C0E9044213EB0E034CEB0101B5
:105470000024C8E90031C9F8004002F057F921467C
:10548000FDF7B0FC85F31188BFF36F8FBDE8F047DF
:10549000FFF7D6BE14EB0E024CEBE473C0E90467D1
:1054A000C8E90023FFF72AFF85F31188BFF36F8F48
:1054B00083689847EFF31185202383F31288BFF3A5
:1054C0006F8FD9F800301B1BC9F80030FFF704FFBD
:1054D000B9E700BFCC120020F00B002010B5EFF3AD
:1054E0001184202383F31288BFF36F8FFFF7FCFE34
:1054F000054A0346D2E90001181841EBE37184F331
:105500001188BFF36F8F10BDF00B0020F8B5044673
:10551000EFF31187202383F31288BFF36F8F0268A4
:1055200022B187F31188BFF36F8FF8BDD0E90A3637
:10553000581C46F10001022871F1000127D3012B0C
:1055400076F10001BCBF012316465D1E46F1FF3611
:1055500002F02AF9013041F10001401946EB010146
:10556000012871F1000139DB02F01EF9013041F12F
:1055700000016FF00102401946EB0103121A4FF0CF
:10558000FF3161EB030318492046FFF7D3FE236B7D
:1055900001332363236A6BB187F31188BFF36F8FE5
:1055A000236A20469847EFF31187202383F312885C
:1055B000BFF36F8F54F8185FA542B2D0002DB0D062
:1055C000284602F052F80023AB6787F31188BFF337
:1055D0006F8F2846BDE8F84002F038B86FF001023E
:1055E0004FF0FF33CFE700BF0D5500002DE9F0412C
:1055F00005461C4690461F46EFF31186202383F391
:105600001288BFF36F8FB4F1FF3F08BFB2F1FF3FC5
:1056100005D186F31188BFF36F8FBDE8F081531C6D
:1056200074F1FF3309DB012A74F10003BCBF0122CE
:10563000002412F1FF3844F1FF37284602F08FF8BA
:10564000DDE906010023C5E90A012B63034942464F
:105650003B462846FFF76EFEDBE700BF0D55000016
:1056600038B5064C064DAC4201D3002038BDD4E914
:105670000112204602F0C2F81434F4E77B06002041
:105680007B06002010B50A4C23681BB10123236060
:10569000002010BD00F0EAF80028F7D001380628F5
:1056A00003D8044B53F8200010BD034810BD00BFC1
:1056B000D0120020B07E0000FE8FFFFFBFF34F8F9F
:1056C0000549064BCA6802F4E0621343CB60BFF39E
:1056D0004F8F00BFFDE700BF00ED00E00400FA05BA
:1056E00010B4094B09490A4C4FF0FE32C3F80024AC
:1056F0004968C3F80424C3F80824C3F80C24002321
:10570000C4F8003510BC084700B00250C0050020A6
:1057100000A00250D0E90012014BC3E9001270470B
:10572000C005002010B5044650B1636813F0685FEF
:1057300005D0064A934202D000232360626010BD68
:10574000034B04485B689847EFE700BF2C5F5CA9F8
:10575000C0050020CC7E0000C8B143680D4A9342CA
:1057600013D013F0685F0ED0012350E8002F1946C4
:1057700040E8001C9CF0000FF7D1012AF5D0BFF3E0
:105780005F8F0020704704487047044870476FF4EB
:10579000E04070472C5F5CA9E98FFFFFEA8FFFFFB5
:1057A00080B14368094A93420AD013F0685F05D07C
:1057B000BFF35F8F002303601846704704487047AB
:1057C000044870476FF4E040704700BF2C5F5CA94D
:1057D000E98FFFFFEA8FFFFF10B5044620B1044BAD
:1057E00063600022226010BD0248FFF779FFF6E7F0
:1057F0003A00003AF47E000070B5D0E90023174C5F
:10580000174D6360D0E90230C4E902302260486875
:10581000D1F800C0134BC3E900C0D5F81801D1F886
:1058200008C0C3F808C010F0685FD1F80CC009695F
:10583000C3F80CC0196110D00B49C5F8BC11002386
:10584000C5E9453105F58A70C5F8B8319047236838
:1058500005F5DC70BDE87040184770BDDC05002020
:10586000E8120020C80500202C5F5CA938B500F0C4
:105870002FF820B1032400F063F8204638BD00F073
:1058800031F898B900F0ACF898B90F4DD5F828392F
:105890001B0EF02B08D1D5F8242A0C4B9A420AD0C3
:1058A000072400F017F8E6E70624FAE70424204668
:1058B00038BD0024F5E7012000F092F804460028E6
:1058C000F7D1C5F80C0AD8E700B002500000E0207C
:1058D0000020704700207047014BC3F8040A70474E
:1058E00000B0025010B5114800F048F800B110BDEA
:1058F0000F4800F043F80028F9D10E4C204600F084
:105900003DF80028F3D10C4B0C481C6000F036F831
:1059100001460028EBD100F02DF8044608B12046DE
:1059200010BD00F03FF82046FAE700BF1C0600203B
:1059300018060020140600200C0600201006002087
:1059400008B5084800F024F8074800F021F8074897
:1059500000F01EF8064800F01BF8BDE8084000F013
:105960000BB800BF1C0600201806002014060020FB
:105970001006002000207047704700BF08B5034B99
:1059800002681B6810689847002008BDDC050020ED
:1059900008B5034B02685B6810689847002008BD93
:1059A000DC05002070B5094C094D2069AB689847AB
:1059B00018B1084B08485B689847084AEB682069AB
:1059C00000211160BDE87040184700BFC8050020E5
:1059D000DC050020C0050020187F0000E412002034
:1059E000F8B51A4D1A4E0446B26828699047E8B9CE
:1059F000184F3B684CB1A3B1012B19D0013B3B6060
:105A00002869F36898470020F8BD43B9124A01217C
:105A1000C2F800151149D1F81029002AFBD1013331
:105A20003B60F368286998470020F8BD0C48F8BD32
:105A30000A4AD2F81039002BFBD1074A6FF07E409A
:105A4000C2F80035FFF748FF3B68D7E7C8050020DC
:105A5000DC050020E412002000A0025000B002503B
:105A6000E98FFFFF08B5054B044613B10021AFF3E2
:105A7000008000F023FB2046FBF7F2FF000000004F
:105A8000F8B50E4B1D68AB789B07064612D56F68BC
:105A900016F8014B29462CB90A20B847002805DB27
:105AA000204609E02046B8470028F1DAAB7843F0F9
:105AB0000403AB704FF0FF30F8BD00BF087D00005D
:105AC0000CB430B589B005460C461C22002101A853
:105AD00001F0C4FE02238DF806300E4B02930595AB
