:10000000003800201D150000A9620000091500003D
:100010000915000009150000091500000000000086
:100020000000000000000000000000008916000031
:100030000915000000000000251600000915000049
:10004000111800001118000011180000111800000C
:1000500011180000111800001118000011180000FC
:1000600011180000111800001118000011180000EC
:1000700011180000111800001118000011180000DC
:1000800011180000111800001118000011180000CC
:1000900011180000111800001118000011180000BC
:1000A00011180000111800001118000011180000AC
:1000B000111800001118000011180000111800009C
:1000C000111800001118000011180000111800008C
:1000D000111800001118000011180000111800007C
:1000E000111800001118000011180000111800006C
:1000F000111800001118000011180000111800005C
:1001000053B94AB9002908BF00281CBF4FF0FF317E
:100110004FF0FF3000F00CB8ADF1080C6DE904CEE3
:1001200000F010F8DDF804E0DDE9022304B07047C8
:10013000704700BF034613F8012B002AFBD1181AA1
:10014000013870472DE9F04786468C460846089EE0
:10015000154674461946002B40F0C2808542B2FA1B
:1001600082F245D94AB1C2F1200300FA02FC2EFA0C
:1001700003F3954043EA0C0C94404FEA154EA8B2A5
:10018000BCFBFEF8230C0EFB18CC08FB00F943EA7D
:100190000C43994528D9EB1808F1FF3704D299454B
:1001A00002D9A8F102072B44A3EB0903A4B2B3FBC5
:1001B000FEFC0EFB1C330CFB00F044EA0344A0429F
:1001C00014D92C190CF1FF3304D2A04202D9ACF19E
:1001D00002032C44241A43EA07401EB1D4400023F2
:1001E00034607360BDE8F0874746DDE76346F1E7BA
:1001F00092BB431B01214FEA154EAFB2B3FBFEFC8D
:10020000200C0EFB1C330CFB07F840EA0343984517
:1002100062D9EB180CF1FF3004D2984502D9ACF149
:1002200002002B44A3EB0803A4B2B3FBFEFC0EFBBD
:100230001C330CFB07F744EA0344A7424ED92C19A0
:100240000CF1FF3304D2A74202D9ACF102032C44D3
:10025000E41B43EA0040C0E7C2F1200320FA03F1A7
:10026000954090402EFA03F303434FEA154EAFB288
:10027000B1FBFEFC0EFB1C10190C0CFB07F841EA4D
:100280000041884504FA02F422D969180CF1FF30C4
:1002900004D2884502D9ACF102002944A1EB08013F
:1002A0009BB2B1FBFEFC0EFB1C110CFB07F743EAF3
:1002B00001439F420ED9EB180CF1FF3104D29F424B
:1002C00002D9ACF102012B44DB1B41EA004192E769
:1002D0006046E3E76146F7E76046A3E76346B7E7B2
:1002E000834206D916B9002108467BE7C6E900E03B
:1002F000F9E7B3FA83F78FB9834201D3724508D87F
:10030000BEEB020460EB030301209C461EB90021F2
:1003100068E73846FAE7C6E9004CF8E7C7F1200C71
:10032000BB4022FA0CF41C432EFA0CF120FA0CF319
:10033000B84001434FEA14490EFA07F5B3FBF9F848
:100340001FFA84FE09FB18300B0C08FB0EFA43EA77
:1003500000439A4502FA07F240D9E31808F1FF304A
:1003600004D29A4502D9A8F102002344A3EB0A0360
:1003700089B2B3FBF9F809FB183308FB0EFE41EA1A
:1003800003418E452CD9611808F1FF3304D28E4504
:1003900002D9A8F10203214443EA0040A0FB0298DD
:1003A000A1EB0E014145CE46434602D306D14D4551
:1003B00004D2B9EB020E68EB04030138002EA6D07C
:1003C000B5EB0E0261EB030101FA0CFC22FA07F314
:1003D0004CEA0303F940C6E9003198E74046C5E717
:1003E0004346D9E710B5064C23782BB940F6CD40EB
:1003F000002106F0F7FEF7E741F69A10F8E700BF94
:100400009214002030B5184D184C85B02B782BB9BC
:10041000002140F6CD4006F0E5FEF7E740F6CD427C
:1004200000230DF10701204604F06AF80028EDD101
:100430009DF8070000F062F9002200230DF107018A
:10044000204604F05DF80028F2D000F0A5FA00F094
:1004500079F90028DAD103A902A800F0ADFADDE9A4
:10046000020100F07FFBD1E792140020C8060020B3
:10047000D0B588B000F0A0F828B1384805F024FEC7
:10048000002008B0D0BD00F00BFB08B13448F5E700
:1004900000F07EFB04460028F8D1324806F0F8FD53
:1004A000002600270123CDE90243CDE90667CDE907
:1004B00000442D4B2D4904944FF480622C4804F0E5
:1004C000EFF92C4B18600223CDE90243CDE9066712
:1004D000CDE90044284B294904944FF48062284810
:1004E00004F0DEF9274B18600323CDE90243CDE980
:1004F0000667CDE90044244B244904944FF48062FC
:10050000234804F0CDF9234B18600423CDE90243BE
:10051000CDE90667CDE900441F4B204904944FF410
:1005200080621F4804F0BCF91E4B18600523CDE91A
:100530000243CDE90667CDE900441B4B1B490494F7
:100540004FF480621A4804F0ABF91A4B18604FF070
:10055000FF314FF0FF3006F045FE91E74079000093
:1005600051790000280C002005040000002600201E
:10057000F0080020000C0020DD050000C021002054
:1005800070080020FC0B0020E5030000801D002007
:10059000F0070020F80B00204B5E000040190020FF
:1005A00070070020F40B0020435E000000150020BF
:1005B000F0060020F00B002008B5064806F0B6FC57
:1005C00028B9054805F080FD4FF0FF3008BD002038
:1005D000FCE700BF0875000063790000F7B5184814
:1005E00006F0A4FC28B9174803B0BDE8F04005F0B8
:1005F0006BBD0023144C124D144E8DF80630237839
:100600002BB940F6CD40002106F0ECFDF7E70DF1E7
:1006100007030DF106024D21284605F019FC60B9CB
:100620009DF907704FF0FF324FF0FF33074803F09A
:10063000C9FF3775054804F03DF84FF48040E2E704
:10064000087500007779000092140020280C002023
:1006500070B5114B1C78BCB1104B00221D4613F82D
:10066000016B232E0ED001329442F8DC6FF00500AE
:1006700070BDEE5C212E0AD001339C42F9DC6FF094
:100680000600F5E71346F8E74FF0FF30F0E70260A9
:100690000B600020ECE700BF7D1400207E140020DA
:1006A000F7B50C4601682368124D043B481C2844EA
:1006B000591A05F0E8FB042103460F4A0DEB01002F
:1006C00005F0AAF801A8FFF735FD01AB0022824230
:1006D00002D1002003B0F0BD276813F8016BA91800
:1006E000394411F8031CB14201D10132EFE76FF038
:1006F0000200EFE77E1400208A790000064A137892
:10070000132B9FBF0549C8540133002094BF1370B9
:100710006FF00300704700BF7D1400207E1400209E
:10072000064A1378132B9FBF0549C8540133002094
:1007300094BF13706FF00300704700BF681400206F
:10074000691400202DE9F04186B004A903A8FFF741
:100750007FFF0446601C00F0A28003A8FFF778FF2B
:10076000821D044600F09B8003A8FFF771FFC31DA4
:10077000044600F0948003A8FFF792FF7F4D039B8F
:100780007F4E0446002840F0E680EA1852784D2A51
:1007900033D0532A00F08780432A40F0C980794F34
:1007A0004FF0FF324FF0FF33384603F00BFF97F85E
:1007B0001480384603F07EFF734ACDF800802B2367
:1007C000042105A805F028F82320FFF7A9FF6320DE
:1007D000FFF7A6FF9DF81400FFF7A2FF9DF8150094
:1007E000FFF79EFF9DF81600FFF79AFF6748042168
:1007F00005F049FB664A03462AE00233E918EA5A43
:100800008B788DF8170005A8ADF814208DF81630F8
:1008100006F0A1FD80465F4F4FF0FF324FF0FF33EF
:10082000384603F0CFFEC7F81480384603F042FF85
:100830002320FFF775FF4520FFF772FF3020FFF7F9
:100840006FFF0221514805F01EFB514A0346042167
:1008500002A804F0E1FF9DF80800FFF761FF9DF892
:100860000900FFF75DFF9DF80A00FFF759FF2120FF
:10087000FFF756FFDDE9033796F80080FF1A0137CE
:10088000A8EB07084246E919284606F042FD3A4619
:10089000302105EB080086F8008006F054FD204664
:1008A00006B0BDE8F0810233E918EA5A8B788DF87A
:1008B000170005A8ADF814208DF8163006F04BFD92
:1008C00064284FF023002CD9FFF72AFF4520FFF7BB
:1008D00027FF6920FFF724FF02212C4805F0D3FAF7
:1008E0002B4A0346042102A804F096FF9DF8080055
:1008F000FFF716FF9DF80900FFF712FF9DF80A00A9
:10090000FFF70EFF2120FFF70BFFDDE9033796F815
:1009100000801A48FF1A0137A8EB07084246E91978
:10092000B3E7FFF7FDFE4520FFF7FAFE3920D1E7D8
:10093000049C3778E41A01343F1B29193A462846AB
:1009400006F0E7FC22463021E81937706FF0010409
:1009500006F0F9FCA3E7049C3778E41A01343F1B46
:1009600029193A46284606F0D4FC22463021E819D7
:1009700037706FF0020406F0E6FC90E77E1400206A
:100980007D140020280C00208F7900006A140020BC
:100990008A790000040C002010B5054C237833B18F
:1009A00004481422302106F0CEFC0023237010BD31
:1009B0006814002069140020024B1B780B60024B66
:1009C000036070476814002069140020F7B50B78A5
:1009D0000C46062B45D8DFE803F0040A0C2B292D22
:1009E0004200224803B0BDE8F04005F06DBB20484E
:1009F000F8E72048204E214F05F066FB0025E3680C
:100A0000AB4205D81E4803B0BDE8F04003F0A2BEDB
:100A1000A3687219D35C8DF80730002200230DF112
:100A20000701384603F016FD0135E8E71548D9E718
:100A30001548D7E7154805F047FB154B186883683C
:100A40000D49DC683C224FF47A73A047014650B14F
:100A5000104805F039FB4FF0FF3004F0AFFE0E48B0
:100A6000C0E70E48BEE703B0F0BD00BF96790000B6
:100A7000AC790000C579000093140020C80600205E
:100A8000440C0020DA790000F8790000157A0000A3
:100A9000C00400202F7A0000577A0000707A00000E
:100AA00070B5244C206806F041FA30B9224805F0B0
:100AB0000BFB4FF0FF34204670BD204805F004FBCF
:100AC0001F4D20686FF085032B6083681B6833B966
:100AD0006FF0570129601B4805F0F6FAE9E71A495B
:100AE00000229847014628600028F4D120688368D6
:100AF0001649DE683C224FF47A73B04701462860FD
:100B000008B11348E8E72068836812495C684D2201
:100B10004FF0FF33A0470446286010B101460E484D
:100B2000DAE70E4805F0D0FA012221460C4806F01B
:100B3000B6FAC0E7C0040020877A0000BA7A000045
:100B4000400C0020C57A0000CD090000931400205D
:100B50002F7A000020060020F07A0000117B0000B0
:100B6000440C002030B4064B04460A4618688368DB
:100B70005D682146AC464FF0FF3330BC604700BF94
:100B8000C0040020014806F0D1B900BFE0740000A5
:100B900008B5FFF7F7FF28B9254805F095FA4FF09B
:100BA000FF3008BDFFF7EEFF0028F5D0FFF7EAFFA2
:100BB0000028F1D0FFF7E6FF0028EDD0FFF7E2FFB5
:100BC0000028E9D0FFF7DEFF0028E5D0FFF7DAFFC5
:100BD0000028E1D0FFF7D6FF0028DDD015484FF4FC
:100BE000803105F070F914484FF4803105F06BF94D
:100BF00012484FF4803105F066F911484FF4803106
:100C000005F061F90F484FF4B01105F05CF90E489A
:100C10004FF4B01105F057F90C484FF4B01105F03E
:100C200052F90B484FF4B01105F04DF90020B8E728
:100C3000237B0000607700005877000050770000A9
:100C400048770000407700003877000030770000D8
:100C5000287700002DE9F843DFF8C490314C48466E
:100C600005F01CF98046304805F018F907462F4872
:100C700005F014F905462E4805F010F90646B8F1BE
:100C8000000F20D02B4823780169096883F0010206
:100C900011F4005F08BF13462270002B3AD083681E
:100CA000DB684FF4005198472178234A234B2448AE
:100CB00000290CBF1146194605F006FA43F23430FC
:100CC000002106F08FFA4FB1237833B31D4805F0A9
:100CD000FBF943F23430002106F084FA65B1237841
:100CE000002BBCD000F034F8174805F0EDF943F2C2
:100CF0003430002106F076FA002EB0D02378002B95
:100D0000ADD0124805F0E0F9002143F2343006F08E
:100D100069FAA4E783681B69C3E7002D9FD1EBE75D
:100D20006077000092140020587700005077000090
:100D300048770000E0740000497B0000467B00001B
:100D40004D7B0000587B00006E7B00007E7B000026
:100D5000024883684FF400715B691847E074000033
:100D6000014B1B68184700BFC4040020014B1860EA
:100D7000704700BFC404002030B585B004460D465E
:100D800010220021684606F0DEFA02238DF80230B8
:100D90002A46044B01932146684604F0DFFD05B066
:100DA00030BD00BF610D000080B505460E461746F8
:100DB000984604F00DF8034606F03CFBDFF8189067
:100DC000044649F80030424630463946A84754F8B0
:100DD000090000F011FC00BF080000002DE9F047F9
:100DE000058B04462807904611D4022905F0070513
:100DF00040F0CC80204605F074F978B10138218BA1
:100E0000042811D8DFE800F0C2106D859500012993
:100E10000CBF45F0100545F02005258388F31188A7
:100E2000BFF36F8FBDE8F08701F0070AAA4500F015
:100E3000A5800027B9463E46A368002B00F0BC8081
:100E400041F00801218388F31188BFF36F8FA168F7
:100E5000002900F0BA800D68002900F0B680D1F8B2
:100E60000480334652462046C047002D76D02B687A
:100E700029461D46F0E701F007035A1F012A1BD837
:100E8000002221F00701062B276889B2C4E900225D
:100E900009D13B4603E0628B013262831B68002B61
:100EA000F9D141F002012183204605F01AF900280A
:100EB0007AD041F0200176E0042B0AD121F007011D
:100EC00089B22183204605F00CF910B141F02001D0
:100ED0002183218B01F0070AAA454FD00027B9468C
:100EE000AAE7236921F0070141F00601062DD3F896
:100EF000009021832DD1B9F1000F3FD041F00801BE
:100F0000218388F31188BFF36F8F3A492046C84781
:100F100029E021F00701236941F0040189B2042D81
:100F2000D3F804902183E6D000273E464FF0040A10
:100F300082E721F00701236941F0050189B2052DFF
:100F4000D3F808902183D6D000273E464FF0050AFB
:100F500072E700273E464FF0060A6DE72B4687E70B
:100F6000B9F1000FD1D1EFF31188202383F3128858
:100F7000BFF36F8F238B23F008032383258BEA06AF
:100F80002ED525F01003238305F007056669218B14
:100F9000002EBFF670AF00232768C4E9003321F0AC
:100FA000070141F001012183218B01F0070AAA45C5
:100FB0004FF000097FF440AF002F9CD041F00801B2
:100FC000218388F31188BFF36F8F002FC8D03D684D
:100FD000394633465246204605F0AFF82F46F4E72F
:100FE000AB067FF51BAF25F02003238305F0070533
:100FF00000E700BF67610000014B036000207047FD
:101000006877000008B5044805F05EF8BDE80840C0
:10101000024805F059B800BF947B0000C97B00006E
:10102000014804F023BA00BF6877000038B50446D1
:1010300018B90F4B0F485B6898476168B1F5683F76
:1010400010D0B1F5680F0DD00B4DA9420AD011F4A4
:101050006861206807D00146084805F0C2FF0023F8
:101060002360656038BD142206F06DF9F9E700BF12
:10107000C0050020F77B00002C5F5CA95411002004
:1010800008B520B34368B3F5683F10D10122036867
:10109000BFF35B8F53E8001F002903D143E8002012
:1010A0000028F7D1BFF35B8F0DD1002008BD094A9E
:1010B00093420AD000684FF0FF324FF0FF3303F045
:1010C00081FA0028F1D00448F0E70448EEE76FF415
:1010D000E040EBE72C5F5CA9E98FFFFFEA8FFFFFA1
:1010E00008B5D8B14368B3F5683F10D10022036852
:1010F000BFF35B8F53E8001F012903D143E80020B1
:101100000028F7D1BFF35B8F0BD1002008BD074A41
:10111000934208D0006803F0CDFAF6E76FF4E040A0
:10112000F4E70348F2E70348F0E700BF2C5F5CA94F
:10113000E98FFFFFEA8FFFFF10B5044618B91D4B7A
:101140001D485B6898476368B3F5683F2FD0B3F5D7
:10115000680F2CD0194A934219D1236803BB184851
:101160004FF0FF324FF0FF33214603F045F908B945
:1011700023681BB90F4B13485B68984720681422FB
:10118000002106F0E0F84FF46863636008E0B3F50F
:10119000683F0DD83A2B03D040F6BA629342DED1B5
:1011A000206805F075FF636843F03A03636010BD83
:1011B000054AF3E7C0050020F77B00002C5F5CA91F
:1011C000541100201D7C00003A00003A08B5064981
:1011D00006484023142205F0F6FEBDE80840044905
:1011E000044804F0B5B900BF540C0020541100208D
:1011F000707700008477000030BFFFF7FDBF00BFAD
:101200002DE9F0410B4EDFF8308006EB0807CC1BD0
:10121000054632460949204606F06DF8A0194246B7
:101220000021083C06F08FF82C6707F10800BDE8A4
:10123000F08100BF000000000800000018770000E7
:10124000074A936893F90E10002907DB526993420D
:101250001FBF044A536843F080535360704700BF78
:101260006012002000ED00E070B5264B15469A6A2A
:1012700012F0100F9A6A14BF1124102412F0080FF4
:101280009A6A18BF1224920706460AD5586B9A6AC2
:10129000140634D519B19A6A22F080029A62132496
:1012A00001E06FF01500174B9A6A12F0010F9A6A6D
:1012B00018BF142412F0200F9A6A18BF1524D20602
:1012C00002D49B6A9B070AD50E4B5B68190506D5AD
:1012D000314600F057FA10B180F309880224094B17
:1012E0009A6A920642BF5A6A22F400525A629A6A75
:1012F00042F0FF029A6200232B70204670BD6FF00F
:101300001500CCE700ED00E0134B9A6A12F0007F65
:101310009A6A14BF1E201D2012F0807F9A6A18BF9F
:101320001F2012F4002F9A6A18BF212012F4802F78
:101330009A6A18BF222012F4003F9A6A18BF23202D
:1013400012F4803F9A6A6FEA02426FEA12429A628E
:1013500018BF2420704700BF00ED00E010B5194B06
:101360000246986A9C6A10F4805F14BF172016200A
:1013700014F4006F9C6A18BF1820A40509D5986B57
:10138000986A000404D51AB19A6A22F400429A625B
:1013900019200C4B9A6A12F4806F9A6A18BF1A20AF
:1013A000D2050CD49B6A13F4005F18BF1C20054AB9
:1013B000936A43F47F43936200230B7010BD1B209C
:1013C000F5E700BF00ED00E0F0B5484B5B688BB07F
:1013D0000446C3F30803002585F31188BFF36F8F1C
:1013E00002F07F40B0F17F4F11D102F00C000828CD
:1013F0000DD010074CBF0C4601250022033B8DF891
:101400000720032B05D8DFE803F0246367602C4630
:10141000F3E700239DF80720CAB902AE04F12007C4
:1014200020686168324603C20834BC421646F7D1D0
:10143000099A002D54D0C2F3080121B96FEA522253
:101440006FEA4222099202A9184604F023FF0BB06A
:10145000F0BD264BDA6A9107DBD4DA6A002AD8DBC2
:10146000DA6A5200D5D55A69A16942F480725A618C
:10147000BFF34F8FBFF36F8F5A6931F8021C22F40C
:1014800080725A61BFF34F8FBFF36F8F4DF60272B8
:1014900091420AD09A6AD2B24AB10DF107020121F3
:1014A0002046FFF7E1FE0346B4E72368B2E79A6AF5
:1014B00012F47F4F05D00DF107010120FFF74EFF19
:1014C000F1E79B6AB3F5803FA3D3FFF71DFFEAE77F
:1014D0000DF107020021E3E70DF107010020EDE720
:1014E00022F4FF7222F00102ACE700BF00ED00E041
:1014F000044B5A6942F010025A615A6922F00802FC
:101500005A61704700ED00E0EFF30880EFF30981C6
:1015100001B57246FFF758FF01BD00BF002080F300
:101520001488BFF36F8F0F4880F3088801F08CFC9C
:1015300000200D490860BFF34F8F00F02BF82020EA
:1015400080F3118809484FF40461401880F309883A
:10155000EFF314800221084380F31488BFF36F8FE8
:1015600000F0D8F80038002094ED00E0402A002078
:101570000749D1F890200023C2F30722184693426E
:1015800000DB7047C1F89830C1F8A0000133F6E7DE
:1015900000ED00E008B572B6002383F31388FFF76F
:1015A000E7FF144B4FF0FF32C3F88020C3F88420CC
:1015B000C3F88820C3F88C20C3F89020C3F8942087
:1015C000C3F89820C3F89C20C3F88021C3F8842175
:1015D000C3F88821C3F88C21C3F89021C3F8942163
:1015E000C3F89821C3F89C2162B6BFF34F8FBFF3B5
:1015F0006F8F08BD00E100E0084B9B6883420BD170
:10160000EFF3058343B1064B5A6842F080525A60AB
:101610005A6A22F400425A6203F0E0BB60120020D2
:1016200000ED00E015498A684FF030001044EFF3F8
:10163000098C80E8F01F202080F31288BFF36F8FA1
:101640000F4F4FF000664A698A603E604FF07004A9
:10165000141920680B4C2060506F0023536780F3EF
:10166000118804B5104600F0F1F8BDE8044002F11D
:10167000300090E8F01F8CF309887047601200205A
:1016800004ED00E0701100201EF0040F0CBFEFF31A
:101690000880EFF30980816911F8021C0229FFD04C
:1016A00001B5724604F0FCFD01BD00BF40B2002848
:1016B00007DB044A4109012300F01F00834042F880
:1016C0002130704700E100E0054B420900F01F00A7
:1016D00053F82220012303FA00F01040704700BFA6
:1016E00000E100E040B20028A8BF00F1604001F135
:1016F0000101B8BF064B4FEA4111ACBF00F5614094
:1017000000F00F00C9B2B4BF195480F8001370473D
:1017100014ED00E00B4A08B50B4B22F07F029A60F3
:10172000BFF34F8FBFF36F8FD3F8882022F470027E
:10173000C3F8882002F09CFD03F05EFC00F05CF82A
:1017400002F0DAFD0000000000ED00E042F8203C6D
:10175000009B42F81C3C0A49019B42F8183C029B42
:1017600042F8143C21F001014FF0807342F8043C30
:1017700042F8081C0023203A02654367704700BF07
:10178000A90D0000094A0346906870B113F1160FC5
:10179000006E05D0A0F140029A4205D8834203D2E0
:1017A000814228BF0020704700207047601200204F
:1017B00008B51546094A0A4B9060026F1A600E463A
:1017C00000F044F82C4686F309880020054B984722
:1017D0002046002100220023034C204760120020F5
:1017E00070110020BF620000A90D0000014B102203
:1017F0001A61704700ED00E0044800232021C21860
:101800000133302B82F80013F9D1704700E100E07A
:1018100008B5EFF30583064A103B02EBC30152F80B
:10182000330049688847BDE80840FFF709BD00BF9D
:101830001C750000024B034A0348012100F076B8F2
:10184000000004200000002094770000026E054B89
:10185000403A1A60044A4021C3E9011218460121A6
:1018600000F06EB87411002000000B15084AC2F891
:1018700098000B6823F01F03034343F01003C2F8E2
:101880009C308B6843F00103C2F8A030704700BF62
:1018900000ED00E02DE9F043DFF8608085B00E46F2
:1018A0001F4604464FF00009B14523DA6068D8B1FD
:1018B0003FB1411E08421BD11F2819D92368194284
:1018C00016D12368019304F01DFDA368034303931D
:1018D000D8F89050C5F30725D0B2013DA84207D8EB
:1018E00001A9FFF7C3FF421C09F101090C34DBE732
:1018F0006FF01502104605B0BDE8F08300ED00E082
:10190000044B0522C3F89420BFF34F8FBFF36F8FB2
:10191000704700BF00ED00E0BFF35F8F024B002275
:10192000C3F89420704700BF00ED00E010B5034CF1
:1019300001232278FFF7AEFF207010BDCF140020E6
:1019400008B50B4A00231278FFF7A4FF10F1160F19
:1019500007D0084A0021D2F89030C3F307239842F9
:1019600000DB08BDC2F89800C2F8A0100130F2E711
:10197000CF14002000ED00E02DE9F043534B544C10
:10198000D3F890302568C3F307239D4285B000F259
:101990009A80FFF7C1FF00200C2685421AD14D4CDA
:1019A0004D4F25706846FFF727FBDFF82081DFF8F1
:1019B0002C9106460025AE4213D1237843490020DE
:1019C000D1F89020C2F30722934276DBFFF798FF0D
:1019D000002042E0616806FB0011FFF747FF01307D
:1019E000DBE7009800EB05114FEA051CCB683B4094
:1019F000B3F5000F48D00AD8B3F5001F30D0B3F5C7
:101A0000800F36D0B3F5801F10D00135D3E7B3F186
:101A1000807F42D0B3F1007FF7D150F80C30886856
:101A20004A6804F06FFC40F4802009E050F80C3064
:101A300088684A6804F066FC40F0885040F4302022
:101A4000CDE901230390D8F890302078C3F3072321
:101A5000013B98422AD96FF0150005B0BDE8F0832C
:101A600050F80C3088684A6804F04CFC40EA0900E1
:101A7000E6E750F80C3088684A6804F043FC40F010
:101A8000E06040F40030DBE750F80C3088684A68CA
:101A900004F038FC40F08270D2E750F80C308868CF
:101AA0004A6804F02FFC40F08870C9E701A9FFF7ED
:101AB000DDFE237801332370A7E7C1F89830C1F821
:101AC000A00001337CE74FF0FF30C6E700ED00E0F7
:101AD000A0770000CF1400200000F0FF00000811E4
:101AE00008B5024803F078FEFEE700BF597C00000D
:101AF00008B5024B1B689847002008BD80110020E4
:101B0000034B044A1860937843F0020393707047C4
:101B100080110020E804002008B50649064821F09D
:101B20000701C1F1005202F5802204F073FA00208F
:101B300008BD00BF67380020841100200E4A012331
:101B4000C2F840354FF080424FF08051C2F87835EE
:101B5000D1F83001082808D1D1F83411052904D86A
:101B60000648415C09B1C2F838364FF08043012283
:101B7000C3F880250020704700E001405E7C000033
:101B800020B1034B800143F001031847704700BFA9
:101B900020770000084B70B5C31A0D4607499B100B
:101BA000044659430648402204F0CAFB2B4601462E
:101BB0002046BDE870401847A4110020B76DDBB681
:101BC000B874000073B50C4C0C4A4023041B0093FE
:101BD0000D460B460A49A41061430646094804F025
:101BE000DBFB011E05DA30462B4602B0BDE8704033
:101BF000184702B070BD00BFA411002003640000AC
:101C0000B76DDBB6B874000010B5EFF31184202374
:101C100083F31288BFF36F8F074A136823F0020122
:101C2000DB07116002D4012005F04FF884F311881E
:101C3000BFF36F8F10BD00BFF4110020002270B5FC
:101C4000012104461046FFF74DFD0F4801F086FACA
:101C50000E4B984215D101F091FA26690C49304695
:101C600004F08EFA00280BDB01253564246908494D
:101C700004F11C0004F084FA002801DBE564002074
:101C800070BD6FF00400FBE78D1D00000000AD0B80
:101C9000C47700001FB500220123CDE90223094AC1
:101CA000CDF800D06B46CDF804D004F0A3FB00289B
:101CB00005DB4FF480420023684602F07FFD05B04B
:101CC0005DF804FB2164000030B4104B0C2202FBD1
:101CD000003301460020D3E90E529863EFF31180E0
:101CE000202484F31288BFF36F8F1C6C04F0C004AF
:101CF00044F002041C6480F31188BFF36F8F1DB1A0
:101D00002B46034830BC184730BC7047A411002054
:101D1000B874000010B4EFF31182202383F312880B
:101D2000BFF36F8F1748016841F002040460C807D1
:101D300007D482F31188BFF36F8F012010BC01F02C
:101D40002FBA4FF08041D1F80C04D1F80C14C90718
:101D5000EFD5EFF3118083F31288BFF36F8F0A4939
:101D60000B6C03F0C00343F002030B6480F3118893
:101D7000BFF36F8F82F31188BFF36F8F002010BC09
:101D8000FFF7A2BFF4110020A411002010B1012818
:101D900004D07047034B1B6C5B0701D1FFF794BF66
:101DA000704700BFA41100202DE9F0413849BFF36E
:101DB0005B8F0746012251E8003F41E800200028E0
:101DC000F9D1BFF35B8F33B9324933484B60CB60F5
:101DD0008A6004F0E8F97B1E012B2BD8012F07D174
:101DE0004FF08043D3F81C3403F00303012B21D0C0
:101DF00005F061F90546F8B9284B1B78E3B14FF0BF
:101E000080430222C3F808230646DFF894804FF08F
:101E10008044D4F81824D4F81834D20315D503F02C
:101E20000303012B01D0012F0FD155B386F3118885
:101E3000BFF36F8FBDE8F081EFF31186202383F3AA
:101E40001288BFF36F8F0125DFE7ADB1304604F094
:101E50004AFAD4F81835002BDBD1D4F80421002A33
:101E6000D7D0C4F80431D4F804310123C4F81835AC
:101E7000C8F88031A360CCE70021212005F0B2F939
:101E8000E7E74FF080430222C3F80423D2E700BF04
:101E9000A011002090110020C0110020DF140020AC
:101EA00000E100E008B5074805F040F838B1064801
:101EB000FFF726FE0448FEF759FF002008BD6FF02B
:101EC0001200FBE7F4740000CD1E00000A2838B5AC
:101ED000074D044604D1AB680D21DB6928469847BD
:101EE000AB680348DB69E1B29847204638BD00BFC4
:101EF000F4740000F0B54068057B01F01F0444EA6B
:101F00004514056987B0002D64D0B2F5001F00F1BB
:101F1000100506D12146284604F057FF002007B0DF
:101F2000F0BD01AE0027B2F5800F0197776039D17F
:101F3000B3F1007F14BF052304238DF80430002380
:101F4000CDE904630393836823FA01F111F00101E1
:101F50001AD1B2F1A07F17D104F01F03620903F573
:101F6000E0732AD0012A3BD11F4A52F82330DB0705
:101F70000AD40DF1030632462146284601F0F8FB4B
:101F80001A4B98421CD0029603AA2146284601F01B
:101F9000B1FA174B984220D101222146284601F080
:101FA0004BFCBBE7B3F1C06F05D0B3F1007F14BFAA
:101FB00001230223C1E70323BFE74FF0A042D4E788
:101FC0003146284601F032FC094B9842DBD06FF0D5
:101FD0000B00A4E76FF08500A1E76FF015009EE706
:101FE00051F82330FFDE00BF000300500400AD0BAA
:101FF0000000AD0B38B545682B69B3B110352846E4
:1020000001F004FC044680B90146284601F0CAFBF1
:10201000084B98420BD108492246284601F0A2FB02
:10202000224605210620FFF75DFB002038BD6FF03A
:102030000400FBE70000AD0B3D200000420970B535
:10204000034602D0012A17D070BD0D4E3269516887
:102050000029F9D003F01F0301250C689D400029D9
:10206000F2D08A682A4002D04B68304698472CB19B
:10207000236821461C46F2E7024EE7E72346F8E7CD
:10208000E0740000CC7400002DE9F043466840F293
:102090000635D006337B87B002EA050554BFC2F38C
:1020A0004010032001F01F07B5F5837F144647EA6F
:1020B00043178DF8030045D00FD8062D18D007D848
:1020C000B5B1022D40D06FF0150007B0BDE8F08328
:1020D000B5F5807FF7D101250AE040F20222954252
:1020E00034D0B5F5407F33D0B5F5007FEBD1022574
:1020F0000123220303FA01F12CD57368C3F80815F4
:10210000326982BB07F01F037F0929D0012F77D1E5
:102110003E4A02EB830284F48033D2F80017C3F303
:102120000043C4F3404444EA430421F4E16144EA37
:10213000800421F0070144EA05230B43C2F800376D
:102140000020C2E70725D3E70425D1E70525CFE71F
:102150000325CDE7630344BF7368C3F80C15CFE7CD
:102160004FF0A042D5E710360DF102023946304655
:1021700001F0FEFA14F4403F80460CD13946304657
:1021800004F021FE224B9845DAD19DF8021030462A
:1021900001F046FBD4E701AB4FF0000903AA394632
:1021A0003046CDE90439CDE90199CDF80C9001F024
:1021B000A1F9174B984286D114F4003315D09DF83D
:1021C00003308DF80E3084F48034C4F300444B4661
:1021D00003AA394630468DF80C508DF80D4001F0B9
:1021E00043FA0B4B9842CDD06DE7CDE9043303AAF7
:1021F0000DF1030339463046039301F07BF9F0E714
:1022000003F5E07352F82330FFDE00BF00030050F7
:102210000000AD0B02780B69012A08D0022A08D011
:102220004AB9064A5A6203F1140002F093BA044A0A
:10223000F8E7044AF6E7044AF4E700BF0000AD0BF4
:102240000100AE0B0200AE0B0100AD0B2DE9F04F0B
:10225000D0F81090D0F8048085B005460C4617469B
:10226000029309F1040A4FF0FF324FF0FF3350465A
:1022700002F0A4FA09F1140B00230022584602F0E0
:102280009DFA404601F08EFD7B1E00260393B74267
:1022900001D8002322E0039B217AB34283BF237D30
:1022A00083F00403C3F3800300230193029B009394
:1022B000D4E90023284600F04DF8034670B94FF4E6
:1022C00080420023584602F079FA98B1404601F066
:1022D00079FD284600F02CF86FF004034046029385
:1022E00001F070FD504602F035FA029B184605B029
:1022F000BDE8F08FD9F82430034A934204F10C046E
:10230000EAD10136C3E700BF0000AD0B08B50346B4
:102310004068826900F1080101F000FD034B98421A
:1023200014BF6FF00F00002008BD00BF0000AD0B10
:1023300008B543681B68D3F80805D3F80C1501F0FD
:1023400047FE034B984214BF6FF00F00002008BDFA
:102350000000AD0B2DE9F04186B00C4647689DF8B2
:1023600034801546002112220DF106001E4604F0AD
:10237000EAFFBDF830208DF8052004F0010314F0C9
:1023800008028DF804300296049519D1A10704D4EF
:10239000B8F1000F12D19BB9202201A9384601F0F3
:1023A0002DFD0A4B98420ED00B3398420CBF6FF0B4
:1023B0000F006FF0040006B0BDE8F0814022ECE7AA
:1023C0006FF08500F7E70020F5E700BF0000AD0BD8
:1023D000036803F01F025B09026004D0012B03486D
:1023E00018BF002070474FF0A04070470003005016
:1023F0002DE9F04FDFF89491DFF894A185B01546F0
:10240000834600EB810140F2FF18594503D10020BB
:1024100005B0BDE8F08FDBF800305E04C3F3C322E3
:10242000C3F3080400F1AC801B0E19F80270444598
:1024300008BF4FF0FF34222B00F2A580DFE803F045
:1024400012191F22252B22A3A3A3A33B68A3A3A396
:10245000A3A3A3A3A3A36B818487A3A3A38A91941B
:10246000979A9D00C5F80C45601C5ED10BF1040BDA
:10247000CBE7C5F81445621CF8D000265FE0C5F82C
:102480000845F1E7C5F81045F5E7631CC5F80845B0
:10249000ECD0002604E0661CC5F80C45E6D0012609
:1024A00003A80394FFF794FF039B012202FA03F3AE
:1024B000C0F80C3508E0C5F80845002FDBD1631CD7
:1024C000D4D0002632460627DBF80030019303F40F
:1024D0000040002818BF002203A8009218BF012660
:1024E0000394FFF775FF039C019B009A00EB8400A7
:1024F000C3F3412CD0F800473B0243EA8C0313435B
:1025000004EA0A04234343EA4603C0F80037ADE770
:10251000C5F80C45D1E7C5F86045601CDBF8003014
:10252000A4D0C3F30043002BB9D003A80394FFF752
:102530004FFF039B012606FA03F3C0F80835324625
:10254000C2E7C5F86445E8E7C5F86845E5E7C5F8BA
:102550006C45E2E7C5F82445621C87D000220126BD
:10256000B2E7C5F828457FE7C5F83045F4E7C5F878
:102570003445F1E7C5F83845EEE7C5F83C4573E763
:102580006FF0150044E76FF0850041E79C7C000088
:10259000F0F8FCFFF7B50546002201210220FFF705
:1025A000A1F80220FFF782F86A6811681369C1F880
:1025B0002435137D507D927D03431343C1F86C3560
:1025C0002C692368ABB16B683B4A1B683B49C3F875
:1025D000042320680022083004F05DFE2368DD63D8
:1025E000206837490022683004F055FE2368C3F89C
:1025F0009C506E68D6E9004313F001033ED02F696A
:1026000007F10C0004F05FFB2E4B984250D1387B51
:1026100004F10C0204F5907104F04BFB387B0127A8
:1026200007FA00F000F032FD0823C4F80035B36A61
:10263000C4F844350023C4F84835A760D4F85831AD
:10264000002BFBD00021C4F800156C68E66801AAD5
:10265000304603F076FF002805DB019B32681979CC
:102660001868FFF7C5FE63685B075FBF6B681B6890
:102670000822C3F80025002003B0F0BD0822C4F8EA
:102680000025B26AC4F84425C4F848350123A36084
:10269000D4F82031002BFBD00023C4F82031D4F82B
:1026A00020310123E3604FF48073C4F80433C5E79D
:1026B0006FF00400E0E700BF14020A00E1670000C9
:1026C000796C00000000AD0B2DE9F8430446466824
:1026D000884604F0F0FC6368A8B92E4A127892B1DB
:1026E0001F684FF020096425606804F026F8002870
:1026F0003ED1012004F0DBFA013DF5D1002121207B
:1027000004F070FDEFE721691F684FF02009EFF337
:10271000118589F31288BFF36F8F606804F00DF89C
:1027200008B30B6853B1D3F8A4203AB1D3F8B4205E
:10273000002A03DAD7F84C25C3F8B42073685B0786
:1027400044BF4FF48003C7F80433B36A83F80080B2
:10275000B16A0122204604F000F885F31188BFF326
:102760006F8FBDE8F88385F31188BFF36F8FCEE7D5
:10277000EFF311810D4689F31288BFF36F8F606804
:1027800003F0DBFF0028D9D181F31188BFF36F8FED
:10279000B4E700BFDF140020F7B5064605691C4604
:1027A000EFF31187202383F31288BFF36F8F2B6819
:1027B000D3F8A4C0BCF1000F07D087F31188BFF392
:1027C0006F8F6FF00F0003B0F0BDC3F8A4202B682B
:1027D000C3F8A01001F06043B3F1005F2B6814D17F
:1027E000C3F8A8102B68C3F8AC202946304603F084
:1027F000D6FF87F31188BFF36F8F73681B7D012BA2
:1028000001D1631C06D10020DDE7C3F8B0C003F09E
:1028100075FFEAE70B480C4A2D6824EAE4744FF48C
:10282000004600210023C4FB0601FDF769FC683562
:1028300002460B4600200021CDE90001284602F0A7
:1028400081FDE0E73F420F0040420F002DE9F74FC6
:10285000D0F804A0D0F810B0DAF80050DBF800404F
:1028600017469AF8082081468846002A40F0AB8037
:1028700094F86120002A40F0A98094F8622002F0C8
:10288000FF01002A40F0A280581C4CD0042B4ADDE6
:1028900050484FF4004C052293FBF2F64E4A0023B9
:1028A000C6FB0C01FDF72CFC0023C4E91601C4E9AA
:1028B0001087C4E9123363652365DAF804205107F1
:1028C00051D594F86060002E4DD0BE4228BF3E46E0
:1028D000DAF824103246404604F00DFDBF1B4FF0DD
:1028E00000032DD194F86020921BD2B284F86020AE
:1028F000DAF824000BF1080B811904F00AFDBFF38C
:102900005B8F5BE8003F43F004034BE80032002A92
:10291000F7D1BFF35B8F45F30735002D06DA0020B2
:1029200003B0BDE8F08F00200146BDE76B092B49DD
:1029300005F01F0501224033AA4041F82320EEE7AD
:10294000D4E916210A430DD0C5F80831D5F808316D
:10295000D4E9162300200021CDE9000104F108008C
:1029600002F0F0FCB0440023C5F83485C5F8387592
:10297000C5F81031D5F81021C5F84C31D5F84C31D7
:10298000012384F86130DAF804305A0718D5EFF3E0
:102990001181202383F31288BFF36F8FD9F81020A1
:1029A000936843F0020090609B0701BFD9F80430A0
:1029B0001B680822C3F8002581F31188BFF36F8FCD
:1029C00001232B60ABE76FF08500A9E76FF00F00E4
:1029D000A6E700BF3F420F0040420F0000E100E0C9
:1029E00070B5012383400E4ABFF35B8FDC4352E88E
:1029F000001F01EA040542E80056002EF7D1BFF39C
:102A00005B8F4FF4803282400648C0F80823BFF342
:102A10005F8FBFF36F8F0B4214BF0120002070BD8A
:102A2000141200200010014070B40E49D1E90034A6
:102A3000D01AC31844F1000422F07F46C1E90034E3
:102A4000A6F50013B3F5400F09D2074B1B681A0A0D
:102A50001B069C19054B42F10005C3E9004570BCFB
:102A600002F08ABB400A002018120020480A002009
:102A700011B3BFF35B8F0123104A834052E800CFAC
:102A80004CEA030C42E800C10029F7D1BFF35B8F89
:102A90000B4A4FF480338340C2F80433094BBFF331
:102AA0005B8F1B68BFF35B8FC340DB0742BF064BE6
:102AB0004FF40032C3F80021704700BF1412002009
:102AC000001001401012002000E100E00D4B1868DA
:102AD000010A0006BFF35F8F0B4BD3F804351818BB
:102AE00041F10001B3F5801F0AD2084BD3E900235E
:102AF000904271EB030303D210F1807041F10001A9
:102B0000704700BF1812002000100140480A002042
:102B10002DE9F04F85B016461F469DF840A00446AB
:102B2000FFF75EFF0190FFF7D1FFB04271EB0703A3
:102B300054D23E4B301A67EB0101984271F100010B
:102B40004FD23B4B03EB0413D3E902239F4208BF50
:102B500096425ED037494FF4803804F1500508FAA8
:102B600004F8AD00C1F848832046ADB204F087F800
:102B700026F07F4B05F1804504F5A87305F58835EF
:102B8000DC464FF003090293029A2CF07F4341F890
:102B90002230C1F84483D1F80435274A6FF002008F
:102BA000C01A604420F07F40904232D9286868B152
:102BB000D1F804350393A3EB0B0020F07F40B0F570
:102BC000000F26D9204604F05AF8039BBAF1000FF3
:102BD00007D109EB030C09F10109D5E7BAF1000FA0
:102BE00009D06FF0150520460199FFF741FF2846EF
:102BF00005B0BDE8F08F0123104ABFF35B8FA340FF
:102C000052E8000F184342E800010029F8D1BFF351
:102C10005B8F07490E98230101EB0412C8500F9BEC
:102C20005360C2E902670025DDE700BF01008000B4
:102C3000300A002000100140FDFF7F00101200202C
:102C40007FB51C4C1C4BC4F80833C4F848331B4BED
:102C500000254FF0FF304FF0FF31C4F80855C3E9AD
:102C600002014FF48033C4F80433154B02264FF4AD
:102C700000320121C4F804631120C3F880212A46E0
:102C8000FEF730FD1120FEF711FD0E4A0123A3606F
:102C9000236013600C4B0D4A0093CDE901550023CE
:102CA0002846FFF735FF3046FFF77EF8284604B088
:102CB00070BD00BF0010014003000F00300A00206B
:102CC00000E100E014120020292A0000FFFF7F002D
:102CD0002DE9F7432F4CD4F8043399070BD5D4F8DA
:102CE000043143B12C4A0023C4F80431D4F8043130
:102CF000136801331360D4F80433DA0329D5BFF322
:102D00005B8F264B53E8002F22F0010143E80010AF
:102D10000028F7D1BFF35B8FD30702D4D4F840313A
:102D2000BBB10025C4F84051D4F84031FFF7CEFEC6
:102D3000EFF31182202383F31288BFF36F8F184BB8
:102D4000D3E90267B042B94106D282F31188BFF3DA
:102D50006F8F03B0BDE8F0834FF0FF384FF0FF39BD
:102D6000C3E90289D3E900101D604FF48033C4F831
:102D70004833C4F84051D4F8403182F31188BFF38E
:102D80006F8F0029E5D0009032463B4628468847A1
:102D9000DFE700BF001001401812002010120020D1
:102DA000300A002030B5431C124C85B005D0844257
:102DB000A8BF0446012CB8BF0124FFF787FE0E4BC5
:102DC0000C4DD3E90013401AB0F5000F10D22218B1
:102DD000AA4228BF2A4652184FF000000749009126
:102DE000CDE9010043F10003FFF792FE05B030BDCD
:102DF0002A46F0E7FFFF7F00400A0020292A000052
:102E000008B5FFF763FE024B1B68C01A08BD00BF80
:102E1000400A00204FF08053D3F83021082A06D111
:102E2000D3F83431052B02D8024AD05C7047002019
:102E3000704700BFB87C0000024AD2F80034002B73
:102E4000FBD0704700E0014010B54FF08053D3F83D
:102E50003021082A4ED14FF080420021C2F80C11D7
:102E6000C2F81011C2F8381502F54042D3F8041424
:102E7000C2F82015D3F80814C2F82415D3F80C149E
:102E8000C2F82815D3F81014C2F82C15D3F814146E
:102E9000C2F83015D3F81814C2F83415D3F81C143E
:102EA000C2F84015D3F82014C2F84415D3F82414FE
:102EB000C2F84815D3F82814C2F84C15D3F82C14CE
:102EC000C2F85015D3F83014C2F85415D3F834149E
:102ED000C2F86015D3F83814C2F86415D3F83C145E
:102EE000C2F86815D3F84014C2F86C15D3F844340E
:102EF000C2F87035FFF78EFF18B13A4B3A4AC3F863
:102F00008C26FFF787FF18B1384BFB22C3F8182532
:102F1000FFF780FF70B14FF080414FF08053D1F840
:102F2000E42ED3F8583222F00F0203F00F031343BC
:102F3000C1F8E43EFFF76EFF20B12D4B4FF4007255
:102F4000C3F840264FF08053D3F83031082B1AD104
:102F50004FF08043D3F80024D20744BF6FF0010242
:102F6000C3F800244FF08053D3F83431052B02D836
:102F7000204AD35C3BB14FF01023D3F808224FF026
:102F80008043C3F858254FF01023D3F80022002ABD
:102F900003DBD3F80432002B22DA174901234FF068
:102FA0001020C1F804351224FFF746FFC0F8004294
:102FB000FFF742FFC0F80442FFF73EFF0023C1F8CD
:102FC0000435FFF739FFBFF34F8F0C490C4BCA682C
:102FD00002F4E0621343CB60BFF34F8F00BFFDE705
:102FE00010BD00BF005000404881030000F00040C9
:102FF00000900240B27C000000E0014000ED00E0E3
:103000000400FA0530B50468CCB1BFF35B8FB4FAA5
:1030100084F3C3F11F03DBB201229A4024EA0202C7
:1030200050E8005FA54204D140E8002CBCF1000F3D
:10303000F6D1BFF35B8FE6D102480B7030BD02487A
:10304000FCE700BF0000AD0B0200AD0B10B503683C
:10305000CB40DB0714D401238B400268BFF35B8FA6
:1030600043EA020150E8004F944204D140E8001CBA
:10307000BCF1000FF6D1BFF35B8FEED1014810BD5C
:103080000148FCE70000AD0B0400AD0B014BC3F899
:103090000405704700F00140F7B50546F8B1012876
:1030A0001BD104224FF4807301464FF0804003444B
:1030B0000244C0F808130026012111601E608D42F1
:1030C0001B688DF8071008BF0DF1070642F2107457
:1030D0004FF0804745B1012D28D003B0F0BD0C2240
:1030E0004FF482730221E0E7D7F8183403F48033F9
:1030F0003EB9002BF1D0012003F0D9FD013CF3D102
:10310000EBE7D7F8182402F003023260002BE4D07A
:103110009DF80700012803D103F0C9FD013CD9D176
:10312000012DDAD10C4B00225A71D6E7D7F80C34B6
:1031300003F480333EB9002BF4D0012003F0B7FD37
:10314000013CF3D1EEE7D7F80C2402F00102327013
:10315000002BDDD1E6E700BF1C120020044B1A79DA
:1031600022B9012218609A800248704702487047CD
:103170001C1200200000AD0B0C00AD0B08B5074B76
:103180001B682BB10020FEF79FFA08B9FEF78EFAF4
:103190004FF080430022C3F8182508BD1C12002000
:1031A00010B510B1012843D010BD4FF08043D3F8C3
:1031B0001814D3F81824C80321D502F00303012BF7
:1031C00004D013B10020FFF767FF00234FF08042C7
:1031D0000220C2F8183508224FF4827303F18043AD
:1031E0000021196002F180421C6801241460154A14
:1031F00012680AB34FF08043C3F80403D4E7D3F84E
:103200001424D107E1D5D3F81C249207DAD40D4A4F
:1032100012681AB10222C3F80423C5E7D3F80421C7
:10322000002AFBD00022C3F80421D3F80431BBE705
:1032300000224FF48073D1E71A68002AFCD019608D
:103240001B68B1E71C120020F8B54FF080431C4EFC
:10325000D3F804430125002704B9F8BDB4FA84F07B
:10326000C0F11F00830003F580739BB203F180431C
:1032700005FA00F2196892B224EA02040029EBD0A0
:103280001F601B684FF08043012AC3F8082305D054
:10329000022A08D03368C0B29847DDE77379002B63
:1032A000DAD17271F6E7D3F81814D3F81814890735
:1032B000F0D1C3F81855C3F804239D60CCE700BFD4
:1032C0001C120020036803F01F025B09026004D097
:1032D000012B034818BF002070474FF0A0407047F3
:1032E00000030050034A430900F01F00D35C184458
:1032F000C0B27047BE7C000070B50546FFF7F2FF14
:103300000C4C08300E4634F81030DA0508D5C3F3FB
:10331000432304EBC302284654F8333052689847DD
:10332000A3682BB1E26831462846BDE870401847D3
:1033300070BD00BF3005002008B5FFF7D3FF034B79
:10334000083033F81000400B08BD00BF30050020E6
:1033500008B5FFF7C7FF034B083033F81000C0F380
:10336000400008BD3005002008B5FFF7BBFF034B48
:10337000083033F81000C0F3401008BD30050020BD
:10338000034611F0010010B5CCB20DD1A207C4F371
:10339000400012D5094AD2F820055860C2F820052D
:1033A000003818BF012008E04FF0A041D1F82025D7
:1033B0001A60C1F82025002AE8D010BD0003005093
:1033C00010B5FFF78FFF124A083032F81030D905D8
:1033D0001CD5C3F3432123F4F85322F8103002F133
:1033E0000E04002034F8023F13F4807F03D0C3F3AF
:1033F000432399420AD001303028F3D1002342F808
:1034000031300448BDE81040FFF720BE10BD00BFBA
:1034100030050020A8050020F0B505460020044630
:10342000012607468C420BD1114BD3F87C2132B1D7
:103430000022C3F87C21D3F87C3140F00040F0BD7D
:10344000E3B29B0003F580729B0806FA03F31D426A
:103450000BD002F1804202F5C042D2F800C0BCF1AC
:10346000000F02D01760126818430134DAE700BF7A
:1034700000600040F7B506460846FFF733FF194FD6
:1034800000F108050C4637F81530DB0727D5304624
:1034900003F075FC2046FFF767FF40B12046FFF7B9
:1034A0004BFF316800F5A270002341F82030204620
:1034B000FFF786FF002301A827F815300194FFF7D6
:1034C00001FF019B00EB8300074BD0F8002713405E
:1034D00043F00203C0F80037044803B0F0BD0448CD
:1034E000FBE700BF30050020F0F8FCFF0000AD0B4B
:1034F0000400AD0B2DE9FF41164680460846FFF754
:10350000F1FE0D463168044609B32846FFF720FF57
:1035100018B12846FFF728FF10BB0023CDE9003380
:103520008DF80E308DF80F300DF10F020B46284646
:103530000DF10E0103F0CBFB474A04F1080132F80C
:10354000113023F0020343F0010322F811307368B5
:1035500063B328461F785968FFF7FAFE10B1D1B15E
:103560003E4826E03C4A04F1080032F8103023F0CF
:103570002003DB04DB0C22F8103061B1032FEFD8FD
:103580007168496891F800C0D8F80010A7B90CF527
:10359000A27C41F82C70304A04F1080132F8113055
:1035A00023F01C0343EA870322F81130B3684BBBB6
:1035B0002B4804B0BDE8F08101EB8C0143EA4C33A9
:1035C000D1F810E52EF0030EC1F810E5D8F8001080
:1035D00001EB8C0E43F02003DEF8101522F81030BA
:1035E00021F44F3121F44071CEF810152902DEF894
:1035F000108501F47C5141EA074141EA0801CEF807
:103600001015C8E7D3E900672846FFF7D9FE002E5A
:10361000CED0114DD5E90023964203D19F4201D16E
:10362000002209E00F480DF10F01FFF7EBFC0C4BF6
:103630009842BED19DF80F2045F8326005EBC203D9
:1036400008345F6035F8143043EA422343F4807352
:1036500025F81430ACE700BF300500200400AD0BA6
:103660000000AD0BA80500202DE9F0430C4685B005
:103670008046204611461E46FFF734FE054629B314
:103680002046FFF765FE18B92046FFF76DFE18BB10
:10369000314F05F1080937F8193013F01C0F02D02B
:1036A0004B78012B18D001238DF80F300023CDE982
:1036B00000134A1C8B1C20460DF10F0103F007FB81
:1036C00037F8193043F0030327F81930002E41D0A2
:1036D0002046FFF73DFE18B9204805B0BDE8F0834D
:1036E00096F800C0D8F800301B4F0CF5A2720021EC
:1036F00043F8221005F1080237F8121021F02001DA
:10370000C904C90C27F8121075781DB3D8F8000049
:10371000B67800EB8C002D04D0F8103523F4991303
:1037200023F4F853C0F81035230203F47C5305F456
:1037300040353605D0F810E52B4306F4801641EAF3
:103740004C31334341F0200143EA0E0327F81210B5
:10375000C0F810350248C0E7300500200400AD0B6A
:103760000000AD0B014BC3E9021270473005002089
:1037700010B508461446FFF7F7FD50B10846FFF7AD
:10378000B1FD054B083033F8103004485B0B237053
:1037900010BD0348FCE700BF300500200000AD0B62
:1037A0000400AD0B70B5164D95F8804006462CBB55
:1037B0002146602205F1100003F0C5FD30682E6F30
:1037C00021468E420ED10023C0F87C31D0F87C31E6
:1037D00040F30730FDF76AFF01230A4885F880307F
:1037E000AB6770BDCBB29B0003F580727C2B08BF2A
:1037F000845001F1010108BF8358E2E70248F0E775
:10380000300500200000AD0B0C00AD0B034B93F80E
:103810008000003818BF0120704700BF300500202D
:103820000148FFF713BC00BFA40500200148FFF7C3
:10383000E9BB00BFA405002073B503681646D3F8A2
:103840000423002AA8BF4FF000420546A8BFC3F8D2
:10385000042308460C46FFF787FD00B30846FFF730
:1038600077FD0146D8B92046FFF766FD04B2A400F3
:1038700004F58072034628688150296882582144E3
:10388000D1F8102542F00102C1F810252EB12968A7
:10389000012202FA03F3C1F8043302B070BD2046DE
:1038A000FFF720FD0F4B083033F81030C3F38203CD
:1038B000042B12D0052B12D001A80194FFF702FDB2
:1038C000019AD0F81035D34003F00103991C20462B
:1038D00002B0BDE8704003F043BA0321F7E70221CC
:1038E000F5E700BF300500202DE9F04F694BDFF808
:1038F000A881D3F80403D8F87010C0B289B040F0A2
:103900000040FFF789FD051E2FDAC24600235AF852
:103910007C1F06A8CDE90633FFF732FD5F4B01930C
:103920000DF118094FF0000B019A12F8013B0192BA
:10393000DA0803F007031AF8022022FA03F3DA0781
:103940001CD409F10409BBF1000F14D0D8F8701091
:103950004FF00040FFF760FDD8F87C1006A8FFF795
:103960000FFD0028DAD125F000450124002D79D182
:1039700009B0BDE8F08F4FF0010BD5E7484B5B4431
:103980000293D9F800100029DBD0029B91FAA1F133
:103990001C78B1FA81F141EA44142046FFF7A2FCF9
:1039A0000830059438F81070C808BB0819F80020D2
:1039B000039301F00701012303FA01F122EA010256
:1039C00009F8002005A8FFF77DFC059A039B02F586
:1039D000E072C7F3820650F822205B073746C2F335
:1039E000014224D520463946D6B2FFF785FC05A80A
:1039F0000594FFF767FC059B03F5E07350F823304F
:103A0000C3F301439E4207D10021204603F0A8F9E9
:103A10003146204603F0A4F905A80594FFF752FCAF
:103A2000059B012202FA03F3C0F82035A9E7022A18
:103A30000CD10321204603F093F906F00503012B76
:103A4000EAD139462046FFF757FCE5E70221204638
:103A5000039203F085F9032EF3D0039A032ADBD1F6
:103A6000022EEDE795FAA5F3B3FA83F304FA03F215
:103A70009B0003F1804303F5C04325EA0205D3F818
:103A80001005D3F81015C0F30520C1F30141FFF76D
:103A900033FC6BE70060004030050020CE7C000066
:103AA000CE7C000001460148FFF7ACBAB405002007
:103AB00030B500F01F04400911D0012812D10C4884
:103AC00000EB84001B02D0F800570A4C43EA820244
:103AD0002C4042EA41012143C0F8001730BD4FF0AD
:103AE000A040EDE704F5E074002353F82430FFDE36
:103AF00000030050F0F8FCFFCB7B10B433B9D1E9E0
:103B000000420368C3F80845C3F80C2503688A68B7
:103B1000C3F8242503793C225343054AD3582BB1DB
:103B2000006810BC40F30730FDF7C0BD10BC704703
:103B30002412002013B53B4B01930023C0F804313D
:103B4000D0F80421C0F82431D0F82421C0F81C3169
:103B5000D0F81C21C0F80831D0F80821C0F8003294
:103B60004B6381F82F300123036291F82D209A4294
:103B700018BF83604B6B8A6A934204460ED24A6A2E
:103B8000D35CC0F81C350B6803B340F286238B600E
:103B90008B682548C4F8043302B010BD91F82C306E
:103BA00013B10123C361EEE70B6A13F0400F4FF02E
:103BB000010316BFC361436181F82D30E3E720465E
:103BC00003F005F928B1019B013B0193019B002BF8
:103BD000F5DC91F82F305BB91348019B002BDBDC3F
:103BE0000023C4F8003505231048C4F80035D3E796
:103BF000D4F8C434C4F8C4348BB10D4A0B4813F064
:103C0000010F18BF104613F0020F02F1010218BF96
:103C1000104613F0040F074B18BF1846DDE70348A2
:103C2000DBE700BFA08601000000AD0B0100AD0B7B
:103C30000000AE0B0200AE0B13B5334B0193002313
:103C4000C0F80431D0F80421C0F82431D0F8242180
:103C5000C0F81C31D0F81C21C0F80831D0F8082178
:103C60004B6381F82F308B6A012B044617D10B6A06
:103C70005B0614D40223C4F800320123236291F8B6
:103C80002D20022A18BF23600B688BB140F28623D7
:103C90008B608B681D48C4F8043302B010BD01234B
:103CA000E9E7204603F093F828B1019B013B01931B
:103CB000019B002BF5DC91F82F305BB91348019B79
:103CC000002BEADC0023C4F8003505231048C4F8B3
:103CD0000035E2E7D4F8C434C4F8C4348BB10D4ADB
:103CE0000B4813F0010F18BF104613F0020F02F13A
:103CF000010218BF104613F0040F074B18BF1846F7
:103D0000DDE70348DBE700BFA08601000000AD0B44
:103D10000100AD0B0000AE0B0200AE0B2DE9F84325
:103D200090F804901C4E07463C2000FB09F0351823
:103D30000C4695F82E1061BBA96032506B6085F877
:103D40002D1085F8311085F83010CCB1637B85F8E3
:103D5000383094F80E8085F83980B8F1000F0BD117
:103D60002068062303224146FFF7A2FE606806236F
:103D700003224146FFF79CFE21463846FFF7BCFE72
:103D80003C2303FB09660548012386F82E30BDE875
:103D9000F8830348FBE700BF241200200000AD0BAE
:103DA0000C00AD0B036802790521C3F80015044B24
:103DB0003C2101FB0233022283F82E20704700BF12
:103DC0002412002003680B4A0179C3F80823D3F8B2
:103DD000002222F00302C3F800220022C3F80025CB
:103DE000054B3C2000FB0133012183F82E1083F8A2
:103DF0003020704786420400241200202DE9F0474D
:103E0000314F0479D0F800903C2303FB04730D4636
:103E100093F82D30012B944604D10B78012B06D159
:103E20002A4811E0022B02D10B78012BF8D13C2655
:103E3000274BC9F8083306FB047696F830302BB1CF
:103E4000B3682448C9F80433BDE8F0878CF0040354
:103E5000C3F3800386F83030C6F820C0A846B8E81F
:103E60000F0006F10C0EAEE80F00D8F80030CEF8C7
:103E700000306B68B362EB6873626B78C9F88835A1
:103E80002B78C4EB041A012B07EB8A0A17D09BB9D5
:103E9000CCF3401C3C2303FB04735146484683F893
:103EA0002CC0FFF747FE3C235C433A193B59002BDB
:103EB000CAD182F83030C7E74FF0010CEAE751462B
:103EC0004846FFF7B9FEEEE7241200200500AD0BCF
:103ED000864204000B00AD0BF0B5324C324887B07F
:103EE000214602F074FF002859D194F82F70FFB9D1
:103EF000227B931E012B1BD8606AA369984217D1BD
:103F0000E36963626369A362236A274884F82D70BA
:103F1000C3F34013032A84F82C3004D107B0BDE862
:103F2000F040FFF707BE07B0BDE8F040FFF784BEE2
:103F30001E4E0FCE01AD0FC533682B6047B31A4A32
:103F4000D2F8C434C2F8C43413F0020106D00123FD
:103F50008DF80030002384F8303007E013F00402BD
:103F600009D002238DF8003084F83010D4E90031F4
:103F70006846984713E013F0010305D003238DF83A
:103F8000003084F83020F1E704228DF80020E2E7C9
:103F9000236A8DF800705B0784F83070E6D507B0AF
:103FA000F0BD00BF2412002000300040301200207D
:103FB000036803F01F025B09026004D0012B034871
:103FC00018BF002070474FF0A0407047000300501A
:103FD000F7B5064602F093FF084602F090FF01A8ED
:103FE0000196FFF7E5FF019B2E4D00EB83000C4689
:103FF000D0F80037019440F20D612B400B43C0F81C
:10400000003701A8FFF7D4FF019B00EB83000127D5
:10401000D0F800372B400B43C0F80037042002F0E3
:1040200046FE092501A80194FFF7C2FF019AD0F8C6
:104030001035D340DB0715D401A80196FFF7B8FF70
:10404000019B07FA03F3C0F80C35042002F02FFEA1
:10405000304602F054FF013D042002F028FE15F026
:10406000FF05DFD101A80194FFF7A2FF019A012308
:104070009340C0F80C35042002F019FE204602F0EF
:104080003EFF042002F013FE01A80194FFF790FF09
:10409000019AD0F810350448D34003F00103C01A48
:1040A00003B0F0BDF0F8FCFF0100AD0B08B5144BF8
:1040B000A8220021184603F046F9032202611149A3
:1040C0004261114A8161C2614FF480620262002242
:1040D00082624262C26201660C49416610218166B9
:1040E00003460267C2664267BFF35F8F084911F853
:1040F000010D98540132102AF9D1BFF35F8F08BD2A
:1041000010040020D07C00001000002000000020DF
:10411000E97C000010B4BFF35F8F0B4A0B4900230A
:10412000C85C12F8014D844209D10133102BF7D13C
:104130000023BFF35F8F23B110BCFFF7B7BF01238C
:10414000F7E710BC704700BFE97C000010040020B6
:1041500038B5EFF31185202383F31288BFF36F8FF7
:10416000064B9C6802F0F5FE85F31188BFF36F8F54
:104170002046BDE83840FDF73FBA00BF601200207E
:1041800038B5094B53F82040013053F82050A54270
:1041900000D838BD636823B1204602F0DDFE083444
:1041A000F5E723689847FAE7A078000070B52B4B35
:1041B0002B4C2C4D012286B003201A70FFF7E0FF34
:1041C000FCF720FF02F0E4FE0420FFF7D9FF2646AB
:1041D000AE4204F1300410D300F000FD204C224E1A
:1041E000AC4226D300F00EFDFCF742F91F4A137BC8
:1041F00023F00103137306B070BD54F80C3C059313
:1042000054F8103C049354F8143C039354F8183CAD
:10421000029354F81C3C019354F8203C009354E959
:104220000A2354E90C0100F0EFFA54F8303C5E65C3
:10423000CDE7D4E90A23B3F1FF3F08BFB2F1FF3F56
:1042400005D052EA0301206803D100F09BFD303411
:10425000C6E73146183000F019FFF8E7DF140020F8
:104260009C7600009C760000B1710000D00A00200E
:1042700008B50348034A0021121A02F085FE08BD62
:10428000F0060020E414002070B5002386B001225F
:10429000CDE90423134E144D01930F22CDE90232D0
:1042A0001249142303FB005506EBC01604464FF4D5
:1042B000C07000FB04110E4B00954FF4A072304605
:1042C00000F0A2FA737B0B4AEE6023F004037373D1
:1042D0004FF4046304FB033313442C746B6006B087
:1042E00070BD00BF500A0020601200208032002004
:1042F00051700000402A0020BFB50020FFF740FFAA
:104300002C4B83F308882C4D2C4E6B692C4F43F4B7
:1043100000736B610024E02385F82230EC772C7663
:104320006C76AC7685F820406B6A43F4E0236B62D0
:1043300085F82340FDF7DCF8FDF758FA4FF0FF331E
:10434000AB62EB62FDF718FBFDF774FA1D4BB3602F
:1043500040F201129A81C3E91844DC6602F0E5FDDF
:104360000120FFF70DFF0220174DFFF709FF00F0B6
:104370007DFC164B75610593012315490094CDE929
:1043800003434FF480623B46CDE90144284600F0E8
:104390003BFA6A7B064622F0040228466A7302F062
:1043A000CAFE2046FFF770FF3A4631462846FDF721
:1043B000FFF900BF8032002000ED00E06012002015
:1043C000AD410000500B0020D00A0020EA7C000024
:1043D0000034002038B5064C064D0020AC4200D316
:1043E00038BD204602F0D5FD0028F9DB1C34F5E786
:1043F000770600207706002073B50C46EFF3118195
:10440000202585F31288BFF36F8FC5685DB12560E5
:104410002B68C360836901338361002081F31188B5
:10442000BFF36F8F11E052EA030603D125606FF0EE
:104430000B00F3E7CDE900230246083000F02EFB25
:1044400018B9034B9B685B69236002B070BD00BF65
:10445000601200202DE9F34104460E4600F10807E2
:10446000EFF31188202181F31288BFF36F8F006A68
:10447000E16888422CD22568AC4216D0ADB12846FE
:1044800002F0F1FD05F1180002F0DEFEA268686995
:104490003146002402F02FFFAC67284602F04BFEA5
:1044A0004146384600F074FB20E0A268E0693146DE
:1044B00002F021FFE369A26813446269E361934259
:1044C00004BF2369E361236A013323620024E7E721
:1044D00052EA03010ED00949896838464E61CDE998
:1044E00000234146224600F0D9FA0446204602B095
:1044F000BDE8F0816FF02204D2E700BF6012002017
:10450000F7B5044604F108070846EFF311862021A9
:1045100081F31288BFF36F8F216A002939D0A26816
:10452000A16902F0E8FEA369A268256813446269E4
:10453000A361934204BF2369A361236AAC4203F1E0
:10454000FF33236233D02846002D31D002F08BFD9B
:1045500005F1180002F078FEA2686969E06902F0CE
:10456000CAFEE369A26813446269E361934204BF2F
:104570002369E361236A0133236200242846AC6780
:1045800002F0D9FD3846314600F002FB204603B068
:10459000F0BD52EA030110D0094989684861CDE9AC
:1045A000002331462246384600F078FAEFE7002033
:1045B00086F31188BFF36F8FE9E76FF02200F7E70A
:1045C000601200202DE9F341044617461E46EFF322
:1045D0001188202383F31288BFF36F8FC368334A97
:1045E0007BB180689168884219D057EA060318D1D8
:1045F00088F31188BFF36F8F6FF00F0002B0BDE832
:10460000F081916891F90E1021610133E3609368A4
:10461000A36088F31188BFF36F8F0020EEE7216954
:10462000F2E791F90E1090F90E309942A8BF1946A1
:104630006FF07E029142B8BF11468B422DDD02F031
:104640001FFD0546CDE9007619482246414600F097
:1046500025FA0028E1D0EFF31186202383F3128896
:10466000BFF36F8FA068D0B1236821699C420AD044
:104670004BB193F90E309942A8BF19466FF07E03F3
:104680009942B8BF194602F0FBFC40B108483146D8
:1046900000F07EFA6FF00A00B0E70025D2E7002DA7
:1046A000F4D186F31188BFF36F8FF3E76012002017
:1046B000E0140020F8B583680546002B3FD0234A5C
:1046C000926893423ED1C368012B03D9013BC3607A
:1046D0000020F8BDEFF31187202383F31288BFF386
:1046E0006F8F0169806802F0CBFC2C68A54207D16E
:1046F0000023C5E9023387F31188BFF36F8FE7E723
:10470000002CF5D0D4E9003213605A60637B002698
:1047100023F002036373C4E90066A66004F1180085
:1047200002F092FDAC6094F90E302B612046A66732
:1047300002F001FD0648394600F02AFAC8E76FF09A
:104740001500C6E74FF0FF30C3E700BF601200203E
:10475000E014002070B5EFF31186202383F3128854
:10476000BFF36F8F0468A0421AD0CCB1D4E90032F5
:1047700013605A60637B002523F002036373C4E96E
:104780000055A56004F1180002F05EFD2046A56703
:1047900002F0D1FC31460848BDE8704000F0F8B99D
:1047A000D0E902329A4218BF0133836086F3118840
:1047B000BFF36F8F70BD00BFE014002013B5EFF39F
:1047C0001181202484F31288BFF36F8F846844B171
:1047D000013C846081F31188BFF36F8F002002B029
:1047E00010BD52EA030406D181F31188BFF36F8F25
:1047F0006FF00F00F3E7CDE900230246014800F017
:104800004DF9ECE7E01400202DE9F043073285B0C4
:1048100022F007020E461F461099017300F158035B
:104820007F32C0E916330446002322F03F02042100
:10483000836041733F2A0F98A073C4E90633E37382
:1048400006F14009A2F1400805D883F31188BFF3AF
:104850006F8F084602DFB51829462046FCF7D0FCCA
:1048600007300E9B20F00700A066C4E91898029359
:104870000D9B01932D1A0C9B00932A463B46314613
:104880002046FCF763FF00236365044B9B6803B17C
:10489000DB6EE366284605B0BDE8F08360120020B9
:1048A000F0B587B000250595109D04950F9D0395E3
:1048B0000E9D0295DDE912760D9D01950C9D0095EA
:1048C0000446FFF7A1FFB6F1FF3F08BFB7F1FF3F76
:1048D00005D056EA070305D1204600F053FA2046DA
:1048E00007B0F0BD03493A46334604F1180000F022
:1048F000CDFBF4E7B1710000094A93686FF00A013B
:104900009967084958674B6843F080534B60002310
:1049100083F31188BFF36F8F9368986F704700BF60
:104920006012002000ED00E070B590F90D20437B8F
:10493000002A39DBD90637D18269002A34D11D4CCF
:1049400063F07F032246437352F8183F93422CD101
:10495000E169C0E900210860E06111E09942F8D006
:104960001B68002BF5D090F90E5093F90E60B542FC
:10497000F4D0AE42F2DD5968C0E9003108605860F9
:10498000A569954200D005B9E568A3685A7BD206AF
:1049900004D1DA897F2A01D9AA6942B1AB4202D097
:1049A000284600F0D1FA656170BDE169D9E763611D
:1049B000FAE700BF6012002038B590F90D20437B64
:1049C000002A014604DA03F07F03437302F079FB07
:1049D0000D4D2A46AB6852F8184F944200D004B9E6
:1049E000EC688B4207D05A7BD20604D1DA897F2A41
:1049F00001D9A2692AB1A34202D0204600F0A4FA4C
:104A000023466B6138BD00BF6012002070B590F97D
:104A10000D20437B002A014604DA03F07F03437331
:104A200002F04FFB4B7B1C4C63F07F0322464B7321
:104A300052F8183FE069934207D1C1E900200160B4
:104A4000E16111E09842F8D01B68002BF5D091F994
:104A50000E5093F90E60B542F4D0AE42F2DD5868C4
:104A6000C1E9003001605960A569A368954200D092
:104A700005B9E5688B4207D05A7BD20604D1DA89A2
:104A80007F2A01D9AA692AB1AB4202D0284600F098
:104A90005BFA2B46636170BD60120020F8B5124BC3
:104AA0000C461146114A98681060DDE90676EFF36E
:104AB0001182202282F31288BFF36F8F9D682846EF
:104AC00002F011FBB6F1FF3F08BFB7F1FF3F06D080
:104AD00007493A46334605F1180000F0D7FA204658
:104AE000BDE8F840FFF708BF6012002080120020E8
:104AF000B1710000F8B50446EFF31186202383F36B
:104B00001288BFF36F8F437BDA0649B217D18269EF
:104B1000AAB903F07F03437302F0D3FA1B4D437B22
:104B2000817363F07F032A46437352F8183F934220
:104B30002AD1E869C4E900200460EC6116E0A173A1
:104B4000002086F31188BFF36F8FF8BD8342F1D048
:104B50001B68002BEED093F90E70B942F6D08F424D
:104B6000F4DD5968C4E900310C605C60AC699442C2
:104B700000D004B9EC68AB689C4202D0204600F03B
:104B8000E3F96C610120DCE7E869E2E760120020EC
:104B900049B9EFF3058030B9054B5A699B689A42D1
:104BA00001D0FFF7A9BE81F31188BFF36F8F704763
:104BB00060120020034648B9EFF3058232B9064A75
:104BC00051699268914201D0FFF796BE83F3118834
:104BD000BFF36F8F704700BF60120020EFF31181A9
:104BE000202383F31288BFF36F8F054B9A68D37B22
:104BF000013BD37381F31188BFF36F8F704700BF00
:104C00006012002070B5EFF31186202383F3128821
:104C1000BFF36F8F144DAB68DA7B0132DA732A462B
:104C200052F8184F944200D004B9EC685A7BD2066F
:104C300004D1DA897F2A01D9A2692AB1A34202D01C
:104C4000204600F081F923466B6186F31188BFF39B
:104C50006F8FEFF31180202383F31288BFF36F8FE0
:104C6000BDE87040FFF7A6BF60120020024B03F1C1
:104C70001802C3E9062270476012002070B5EFF3F6
:104C80001186202383F31288BFF36F8F1B4CA1681A
:104C9000E0690B68814214BF1A46002249680B6024
:104CA0005960A368E1692AB9154AC3E900210B607C
:104CB000E3610CE093F90E0092F90E50A84218D06F
:104CC000854216DD5168C3E900210B605360A56978
:104CD0000B4B9D4200D005B9E568A3689D4202D008
:104CE000284600F031F965613046BDE87040FFF7B5
:104CF00003BE8A42D8D01268D5E700BF60120020F8
:104D00007812002050EA01032DE9F04105460E46D5
:104D100004D1FFF7B3FF0020BDE8F081831C71F1DF
:104D2000FF3324DB02F0B1FA4419EFF3118820239A
:104D300083F31288BFF36F8F0F4F104BB868186062
:104D4000FFF73AFEB8680E492A463346183000F09D
:104D50009DF9BA68537B43F0040353734046FFF751
:104D6000CBFD02F092FA201A20EAE070D4E76FF04F
:104D70000104241AD9E700BF60120020801200202D
:104D8000B171000038B50446183002F05DFAEFF357
:104D90001185202383F31288BFF36F8F637B5A073B
:104DA00004D485F31188BFF36F8F38BD23F004035B
:104DB00063732046FFF7B8FDEFF30583002BF0D1B6
:104DC00029460248BDE83840FFF7E2BEE014002063
:104DD000014B9868704700BF601200202DE9F8432E
:104DE0000446EFF31187202383F31288BFF36F8FFC
:104DF000067B16F001060DD087F31188BFF36F8F85
:104E0000002383F31188BFF36F8F0423184602DF5A
:104E1000BDE8F883437B1A0704D587F31188BFF3F5
:104E20006F8FF5E7D90943F0080250D14273A368A8
:104E300013B1204602F04DF904F1180002F004FA13
:104E4000A56D04F15808A84511D04FF0000975B1BF
:104E5000284602F03EF905F1180002F0F5F9C5F810
:104E600078902846FFF760FDA56DA845EFD11C4D51
:104E7000AB689C4204D1EFF30586003E18BF0126C3
:104E8000D5F81880174A904502D0B8F1000F01D12B
:104E9000D5F80C80434502D0404600F055F8C5F8DF
:104EA000148046B1104BAB6040F201129A8100228F
:104EB000C3E91822DA66AB689C42AED1EFF30583F2
:104EC000002BAAD13846BDE8F843FFF715BD03F023
:104ED0007F0343F00803437302F0F3F8A7E700BF32
:104EE0006012002078120020500B0020044BC01AE2
:104EF000044BC0105843044B01221A54704700BFA2
:104F0000D00B0020ABAAAAAAE0140020C3897F2BF3
:104F100012D80A4B1B6863B1094B90F90E201B682D
:104F20009A4209DB437BDB0606D1064BC31A18BF46
:104F3000012303F0010070470023FAE788120020E4
:104F400084120020500A002070B50E4B0E4C1E7CBF
:104F500006EB460304EBC3040546204602F074F951
:104F60000A4B002228469A55FFF7D0FF48B1084B5C
:104F700008491A68013A2046D317BDE8704000F08E
:104F800085B870BD60120020D00B0020E014002016
:104F900088120020ED4E000038B5EFF31185202374
:104FA00083F31288BFF36F8F104B114A9C6810680F
:104FB000A04206D1FFF7C8FF85F31188BFF36F8FBA
:104FC00038BD00211B7C11600A4AD35C002BF3D052
:104FD0002046FFF79BFF0028EED0637BDB0602D163
:104FE0002046FFF713FD2046E4E700BF60120020D3
:104FF00080120020E01400200748084A084908B53C
:10500000121A01F0C3FF0748074A0849BDE80840E3
:10501000121A01F0BBBF00BFC0040020F006002040
:10502000087D0000B8040020C0040020007D0000BE
:10503000024B1868984208BF00207047B80500204E
:10504000034B1B680BB9FDF7DBBE0020704700BFA8
:105050008C12002030B570B10B4B5B6898420AD0BF
:10506000036843B1D3E90421D0E90445121941EBA7
:105070000501C3E90421D0E9003213605A6000231E
:10508000C0E9003330BD00BFB8050020B3F1FF3FD9
:1050900008BFB2F1FF3FF8B504461D4616465AD088
:1050A0008160EFF31187202383F31288BFF36F8FA2
:1050B000013275F1FF3321DA2C49D1E900206FF07C
:1050C00001039B1A4FF0FF3262EB00009E1B60EB66
:1050D0000500012E70F1000301DA01260020C4E969
:1050E0000460FFF7A5FF224E84467068BCF1000FF4
:1050F0000DD1C4E90060046074601CE0FFF7A0FFFC
:10510000013645F10005361845EBE070E7E7DCE9CC
:105110000425D4E90431934271EB050E1CDAD21A4E
:10512000DCF8043065EB0105CCE90425C4E900C3D3
:105130001C60CCF80440FFF77BFF844207D10D4B85
:105140001C6824B902F067F82146FDF72BFE87F3AF
:105150001188BFF36F8FF8BD9B1A61EB0501844581
:10516000C4E90431C5D0DCF800C0BFE7E80B00207B
:10517000B80500208C1200202DE9F047EFF31185CF
:10518000202383F31288BFF36F8FDFF8A090DFF83E
:10519000A080C9F80000FFF74BFF00260027D9F8D0
:1051A0000030D8E900ECD91750B1D0E90442A3424D
:1051B00071EB020A1ADAE41A62EB0102C0E9044256
:1051C00013EB0E034CEB01010024C8E90031C9F8D0
:1051D000004002F020F82146FDF7E4FD85F3118838
:1051E000BFF36F8FBDE8F047FFF7D6BE14EB0E029A
:1051F0004CEBE473C0E90467C8E90023FFF72AFF1A
:1052000085F31188BFF36F8F83689847EFF311859B
:10521000202383F31288BFF36F8FD9F800301B1B54
:10522000C9F80030FFF704FFB9E700BF8C12002077
:10523000E80B002010B5EFF31184202383F31288CC
:10524000BFF36F8FFFF7FCFE054A0346D2E900016A
:10525000181841EBE37184F31188BFF36F8F10BD11
:10526000E80B0020F8B50446EFF31187202383F301
:105270001288BFF36F8F026822B187F31188BFF3E2
:105280006F8FF8BDD0E90A36581C46F1000102289C
:1052900071F1000127D3012B76F10001BCBF01237E
:1052A00016465D1E46F1FF3601F0F3FF013041F175
:1052B0000001401946EB0101012871F1000139DBC1
:1052C00001F0E7FF013041F100016FF001024019E8
:1052D00046EB0103121A4FF0FF3161EB030318494B
:1052E0002046FFF7D3FE236B01332363236A6BB1A0
:1052F00087F31188BFF36F8F236A20469847EFF337
:105300001187202383F31288BFF36F8F54F8185F3F
:10531000A542B2D0002DB0D0284601F01BFF0023DB
:10532000AB6787F31188BFF36F8F2846BDE8F8405D
:1053300001F001BF6FF001024FF0FF33CFE700BF74
:10534000655200002DE9F04105461C4690461F4677
:10535000EFF31186202383F31288BFF36F8FB4F12C
:10536000FF3F08BFB2F1FF3F05D186F31188BFF3BD
:105370006F8FBDE8F081531C74F1FF3309DB012A04
:1053800074F10003BCBF0122002412F1FF3844F184
:10539000FF37284601F058FFDDE906010023C5E983
:1053A0000A012B63034942463B462846FFF76EFE3F
:1053B000DBE700BF6552000038B5064C064DAC4235
:1053C00001D3002038BDD4E90112204601F08BFF43
:1053D0001434F4E7770600207706002010B50A4C55
:1053E00023681BB101232360002010BD00F0EAF800
:1053F0000028F7D00138062803D8044B53F82000C2
:1054000010BD034810BD00BF90120020B878000006
:10541000FE8FFFFFBFF34F8F0549064BCA6802F4AA
:10542000E0621343CB60BFF34F8F00BFFDE700BFC7
:1054300000ED00E00400FA0510B4094B09490A4CDC
:105440004FF0FE32C3F800244968C3F80424C3F8BF
:105450000824C3F80C240023C4F8003510BC084706
:1054600000B00250C005002000A00250D0E9001298
:10547000014BC3E900127047C005002010B5044677
:1054800050B1636813F0685F05D0064A934202D0BA
:1054900000232360626010BD034B04485B6898479B
:1054A000EFE700BF2C5F5CA9C0050020D4780000A6
:1054B000C8B143680D4A934213D013F0685F0ED011
:1054C000012350E8002F194640E8001C9CF0000F13
:1054D000F7D1012AF5D0BFF35F8F00207047044851
:1054E0007047044870476FF4E04070472C5F5CA938
:1054F000E98FFFFFEA8FFFFF80B14368094A9342BB
:105500000AD013F0685F05D0BFF35F8F00230360FC
:105510001846704704487047044870476FF4E040ED
:10552000704700BF2C5F5CA9E98FFFFFEA8FFFFF88
:1055300010B5044620B1044B63600022226010BD08
:105540000248FFF779FFF6E73A00003AFC780000DE
:1055500070B5D0E90023174C174D6360D0E90230D5
:10556000C4E9023022604868D1F800C0134BC3E997
:1055700000C0D5F81801D1F808C0C3F808C010F071
:10558000685FD1F80CC00969C3F80CC0196110D06C
:105590000B49C5F8BC110023C5E9453105F58A70F2
:1055A000C5F8B8319047236805F5DC70BDE8704058
:1055B000184770BDDC050020A8120020C805002097
:1055C0002C5F5CA938B500F02FF820B1032400F05F
:1055D00063F8204638BD00F031F898B900F0ACF817
:1055E00098B90F4DD5F828391B0EF02B08D1D5F8F6
:1055F000242A0C4B9A420AD0072400F017F8E6E759
:105600000624FAE70424204638BD0024F5E70120EB
:1056100000F092F804460028F7D1C5F80C0AD8E744
:1056200000B002500000E0200020704700207047CA
:10563000014BC3F8040A704700B0025010B511487E
:1056400000F048F800B110BD0F4800F043F8002802
:10565000F9D10E4C204600F03DF80028F3D10C4B58
:105660000C481C6000F036F801460028EBD100F031
:105670002DF8044608B1204610BD00F03FF8204642
:10568000FAE700BF1C0600201806002014060020C0
:105690000C0600201006002008B5084800F024F889
:1056A000074800F021F8074800F01EF8064800F00F
:1056B0001BF8BDE8084000F00BB800BF1C06002036
:1056C0001806002014060020100600200020704755
:1056D000704700BF08B5034B02681B681068984705
:1056E000002008BDDC05002008B5034B02685B689C
:1056F00010689847002008BDDC05002070B5094CF3
:10570000094D2069AB68984718B1084B08485B6899
:105710009847084AEB68206900211160BDE8704095
:10572000184700BFC8050020DC050020C005002088
:1057300020790000A4120020F8B51A4D1A4E044634
:10574000B26828699047E8B9184F3B684CB1A3B1DB
:10575000012B19D0013B3B602869F3689847002072
:10576000F8BD43B9124A0121C2F800151149D1F818
:105770001029002AFBD101333B60F3682869984760
:105780000020F8BD0C48F8BD0A4AD2F81039002BA9
:10579000FBD1074A6FF07E40C2F80035FFF748FFA3
:1057A0003B68D7E7C8050020DC050020A4120020D4
:1057B00000A0025000B00250E98FFFFF08B5054B72
:1057C000044613B10021AFF3008000F023FB204614
:1057D000FCF786F900000000F8B50E4B1D68AB78A9
:1057E0009B07064612D56F6816F8014B29462CB95F
:1057F0000A20B847002805DB204609E02046B847C4
:105800000028F1DAAB7843F00403AB704FF0FF30BF
:10581000F8BD00BFC07700000CB430B589B00546B4
:105820000C461C22002101A801F08DFD02238DF8F9
:1058300006300E4B0293059523462CB1B4F1004F70
:1058400028BF4FF00043013B1D440DAA0C9906955B
:1058500001A8009200F082F814B1059B00221A7092
:1058600009B0BDE8304002B0704700BF25740000A9
:10587000242A2DE9F041044601D8012A4CD101F037
:10588000D9FD354B16221A5001B10C60002738465D
:10589000BDE8F08135462E4616F8010B2028F9D0D8
:1058A000A0F10907042F0346F4D92B2836D02D2860
:1058B00037D14FF0010C6B78AE1C302B38D13078DB
:1058C00040F0200078282FD132F010002CD17378CE
:1058D0003446102202360CF1004001380027B0FB9C
:1058E000F2FE02FB1E08392B82BF03F1FF3343F0A7
:1058F0002003263B303B9A421ED9774502DC03D178
:10590000984501D24CF0020C354607FB023715F8DA
:10591000013B34462E46E6E70546BCE74FF0000C57
:10592000C9E74FF0000CC8E7002A08BF0822D2E7F9
:10593000002A08BF0A22CEE701B10C601CF0010F5B
:1059400018BF7F421CF0020FA1D0074601F072FD84
:10595000014B22221A509AE70C0000002DE9F04F6B
:105960008DB043680293837815469A07804640F1CC
:105970000D8100240E78002E00F00A81252E0BD018
:105980004B1C03930134029B414630469847002844
:10599000C0F2F6800399EDE74E788B1C252E039319
:1059A000F0D00027B946BB46BBF11F0F38D8A6F18F
:1059B0002003102B0AD8DFE803F02A09093009096F
:1059C000092109090928092D09091F00A6F1300339
:1059D000092B33D92A2E37D11BF0400F55F8043B41
:1059E00040F08280002BA7BF4BF0200B9946C3F1FB
:1059F00000094BF0280B01E04BF0010B039B13F85F
:105A0000016B0393002ECFD130E04BF0020B4BF033
:105A1000040BF3E74BF0080BF0E74BF0100BEDE74E
:105A2000BBF17F0F19D8A6F13003092BD2D81BF098
:105A3000400F03D00A2101FB0737DFE70A2101FBF2
:105A400009394BF0200BD9E72E2E06D11BF0400F61
:105A500040F09E804BF0400BD0E76C2E31D02BD81D
:105A6000682E36D06A2E3CD04C2E3AD0002F46F00D
:105A70002003B8BF2BF04002A3F16501BCBF1FFAA1
:105A800082FB0027022901D9612B2FD1073525F090
:105A90000705DFF8ACA2083507271BF0080F66D012
:105AA0000AEB070B56465E4563D1A4EB0A0A06EBE8
:105AB0000A02A9EB07096FE1742E9FD07A2E9DD0C0
:105AC000D4E71BF0800F18BF4BF4007B4BF0800B2A
:105AD00094E71BF4807F18BF4BF4007B4BF4807B72
